:020000040800F2
:100000006435012085030008E1030008E1030008CE
:10001000E1030008E1030008E1030008000000001C
:10002000000000000000000000000000E1030008E4
:10003000E103000800000000E1030008E1030008FC
:10004000E1030008E1030008E1030008E103000800
:10005000E1030008E1030008E1030008E1030008F0
:10006000E1030008E1030008E1030008E1030008E0
:10007000E1030008E1030008E1030008E1030008D0
:10008000E1030008E1030008E1030008E1030008C0
:10009000E1030008E1030008E1030008E1030008B0
:1000A000E1030008E1030008E1030008E1030008A0
:1000B000D5100008E1030008E1030008E10300088F
:1000C000E1030008E1030008E1030008E103000880
:1000D000E1030008E1030008D1020008E103000881
:1000E000E1030008E1030008E1030008E103000860
:1000F000E1030008E1030008E1030008E103000850
:10010000E1030008E1030008E1030008E10300083F
:10011000E1030008E1030008E1030008E10300082F
:10012000E1030008E1030008E1030008E10300081F
:10013000E1030008E1030008E1030008E10300080F
:10014000E1030008E1030008E1030008E1030008FF
:1001500091110008E1030008E1030008E103000831
:10016000E1030008E1030008E1030008E1030008DF
:10017000E1030008E1030008E1030008E1030008CF
:10018000E1030008E103000880B483B000AF7860A9
:100190000B467B807B88C3F308039AB27B689A8006
:1001A00000BF0C37BD4680BC704700BF80B485B02F
:1001B00000AF78600B467B800023FB737B681B8855
:1001C0009AB27B8813409BB2002B02D00123FB73B1
:1001D00001E00023FB73FB7B18461437BD4680BC4F
:1001E000704700BF80B487B000AF78600B467B805B
:1001F0000023FB6000237B610023BB600023FB74B2
:100200007B88DBB25B09DBB2BB607B8803F01F033A
:100210007B6101227B6902FA03F37B61BB68012BDE
:1002200007D17B689B899BB21A467B6913407B612F
:1002300011E0BB68022B07D17B681B8A9BB21A4670
:100240007B6913407B6106E07B689B8A9BB21A4600
:100250007B6913407B617B881B0A9BB2FB60012298
:10026000FB6802FA03F3FB607B681B889BB21A46AB
:10027000FB681340FB607B69002B05D0FB68002BFB
:1002800002D00123FB7401E00023FB74FB7C1846C1
:100290001C37BD4680BC704780B485B000AF786025
:1002A0000B467B800023FB810023BB817B881B0ADC
:1002B000FB81FB89012202FA03F3BB81BB89DB438B
:1002C0009AB27B681A8000BF1437BD4680BC704765
:1002D00080B582B000AF40F225512748FFF782FF7A
:1002E0000346002B44D040F225512348FFF7D4FFAA
:1002F000214B9B889BB2FB70FB78402B05D9FB7888
:100300005A2B02D8FB782033FB70FB780D2B1DD8BD
:1003100000237B600BE0194A7B6813441B789BB277
:1003200019461548FFF730FF7B6801337B60144B9B
:100330001B687A689A42EEDB114B00221A60FB7848
:100340009BB219460C48FFF71FFF09E00C4B1B68D6
:100350000A49FA78CA540A4B1B680133084A1360E9
:1003600000BF40210448FFF721FF0346002BF8D0CF
:1003700000BF0837BD4680BD004400400400002097
:100380000000002080B582B000AF104B7B60104BA6
:100390003B6007E03B681A1D3A607A68111D79607E
:1003A00012681A603B680B4A9342F3D30A480B4920
:1003B0004FF000028842B8BF40F8042BFADB00F08F
:1003C00013F800BF0837BD4680BD00BF201D0008E0
:1003D000000000200000002000000020642D01200B
:1003E00080B400AFFEE700BF80B582B002AF00F07E
:1003F0004BF900F0B9FCE02000F0F6FC002301937B
:1004000019230093C823C9226421642000F0E6FB6D
:1004100000230193192300936423C922C821642077
:1004200000F0DCFBFEE700BF80B483B000AF786073
:100430000B46FB70FB78002B06D00949084B1A6B62
:100440007B6813430B6306E00549054B1A6B7B6819
:10045000DB4313400B6300BF0C37BD4680BC7047C5
:100460000038024080B483B000AF78600B46FB7068
:10047000FB78002B06D00949084B1A6C7B681343A4
:100480000B6406E00549054B1A6C7B68DB4313409F
:100490000B6400BF0C37BD4680BC7047003802407B
:1004A00080B483B000AF78600B46FB70FB78002B04
:1004B00006D00949084B5A6C7B6813434B6406E02D
:1004C0000549054B5A6C7B68DB4313404B6400BF06
:1004D0000C37BD4680BC70470038024080B487B0FE
:1004E00000AF7860396000237B6100233B6100230B
:1004F000FB6000237B6176E001227B6902FA03F353
:100500003B613B681A683B691340FB60FA683B69D2
:100510009A4265D17B681A687B695B00032101FA06
:1005200003F3DB431A407B681A607B681A683B68F8
:100530001B7919467B695B0001FA03F31A437B6858
:100540001A603B681B79012B03D03B681B79022B97
:100550002ED17B689A687B695B00032101FA03F363
:10056000DB431A407B689A607B689A683B685B79DA
:1005700019467B695B0001FA03F31A437B689A60B2
:100580007B685A687B699BB2194601238B40DB4329
:100590001A407B685A607B685B683A6892791146BA
:1005A0007A6992B201FA02F292B21A437B685A60F7
:1005B0007B68DA687B699BB25B00032101FA03F375
:1005C000DB431A407B68DA607B68DA683B68DB797A
:1005D00019467B695B0001FA03F31A437B68DA6012
:1005E0007B6901337B617B690F2B85D900BF1C3789
:1005F000BD4680BC704700BF80B485B000AF786056
:100600000B467B8013467B700023FB600023BB609E
:100610007A787B8803F007039B0002FA03F3FB6000
:100620007B88DB089BB218467B88DB089BB21A46A6
:100630007B68083253F822207B8803F007039B0075
:100640000F2101FA03F3DB4302EA03017B6800F1A7
:10065000080243F822107B88DB089BB21A467B68AD
:10066000083253F82220FB681343BB607B88DB0809
:100670009BB21A467B680832B96843F8221000BF63
:100680001437BD4680BC704780B500AF124A124B8C
:100690001B6843F0010313600F4B00229A600E4A5F
:1006A0000D4B1B6823F0847323F4803313600A4BD3
:1006B0000A4A5A60084A084B1B6823F480231360D7
:1006C000054B0022DA6000F00DF8054B4FF0006298
:1006D0009A6000BF80BD00BF003802401030002487
:1006E00000ED00E080B483B000AF00237B60002306
:1006F0003B60354A344B1B6843F480331360324B04
:100700001B6803F400333B607B6801337B603B680C
:10071000002B03D17B68B3F5A06FF0D12A4B1B6887
:1007200003F40033002B02D001233B6001E00023DF
:100730003B603B68012B42D1234A234B1B6C43F0A7
:1007400080531364214A214B1B6843F48043136098
:100750001D4A1D4B9B6893601B4A1B4B9B6843F4CF
:1007600000439360184A184B9B6843F4A05393606E
:10077000154B174A5A60144A134B1B6843F0807399
:10078000136000BF104B1B6803F00073002BF9D0FF
:10079000104B40F205621A600B4A0B4B9B6823F02A
:1007A00003039360084A084B9B6843F0020393607D
:1007B00000BF054B9B6803F00C03082BF9D100BF69
:1007C0000C37BD4680BC70470038024000700040C6
:1007D00008544007003C024080B483B000AF78600A
:1007E0007B681B6823F001027B681A607B6800222B
:1007F0001A607B6800225A607B6800229A607B68DE
:100800000022DA607B6800221A617B6821225A612B
:100810007B68454A934203D1444B3D229A607EE077
:100820007B68434A934204D1404B4FF474629A6010
:1008300075E07B683F4A934204D13C4B4FF47412FD
:100840009A606CE07B683C4A934204D1374B4FF08E
:1008500074629A6063E07B68384A934203D1334BF9
:10086000374ADA605BE07B68364A934203D12F4B0C
:10087000354ADA6053E07B68344A934203D12B4B0C
:10088000334ADA604BE07B68324A934204D1274B0B
:100890004FF03D52DA6042E07B682F4A934203D129
:1008A0002E4B3D229A603AE07B682D4A934204D158
:1008B0002A4B4FF474629A6031E07B68294A934274
:1008C00004D1264B4FF474129A6028E07B68264AC4
:1008D000934204D1214B4FF074629A601FE07B6811
:1008E000224A934203D11D4B154ADA6017E07B6818
:1008F0001F4A934203D1194B134ADA600FE07B6819
:100900001C4A934203D1154B114ADA6007E07B6819
:10091000194A934203D1114B4FF03D52DA6000BFA8
:100920000C37BD4680BC704710600240006002403A
:1009300028600240406002405860024070600240FF
:100940003D00002088600240400F0020A06002406F
:1009500000003D20B8600240106402400064024084
:1009600028640240406402405864024070640240BF
:1009700088640240A0640240B864024080B485B03C
:1009800000AF786039600023FB607B681B68FB6008
:10099000FA68244B1340FB603B681A683B68DB68CD
:1009A0001A433B685B691A433B689B691A433B687F
:1009B000DB691A433B681B6A1A433B685B6A1A434C
:1009C0003B689B6A1A433B685B6B1A433B689B6BB3
:1009D0001343FA681343FB607B68FA681A607B680C
:1009E0005B69FB60FB6823F00703FB603B68DA6A26
:1009F0003B681B6B1343FA681343FB607B68FA6820
:100A00005A613B681A697B685A603B685A687B6820
:100A10009A603B689A687B68DA6000BF1437BD460D
:100A200080BC70473F801CF080B483B000AF78601A
:100A30000B46FB70FB78002B06D07B681B6843F0ED
:100A400001027B681A6005E07B681B6823F00102E5
:100A50007B681A6000BF0C37BD4680BC704700BF82
:100A600080B485B000AFF860B9601346FB71BB6815
:100A700003F08003002B0FD0FB79002B06D0FB681E
:100A80005B6943F08002FB685A6105E0FB685B69C3
:100A900023F08002FB685A61BB68802B14D0FB797D
:100AA000002B08D0FB681A68BB6803F01E031A43CA
:100AB000FB681A6008E0FB681A68BB6803F01E0355
:100AC000DB431A40FB681A6000BF1437BD4680BC88
:100AD000704700BF80B487B000AF786039600023F2
:100AE000FB750023FB600023BB607B68214A9342B7
:100AF00002D8214B3B6101E0204B3B613B6823F076
:100B0000F02323F0C313002B0AD03B68DB0A03F069
:100B10001E03FB607B681A68FB681340BB6004E03F
:100B20007B685B6903F08003BB603B6803F00053A4
:100B3000002B03D03B695B68FB6002E03B691B68EC
:100B4000FB60FB6823F0F02323F08213FB60FA685C
:100B50003B681340002B05D0BB68002B02D001235B
:100B6000FB7501E00023FB75FB7D18461C37BD4675
:100B700080BC70470F640240006002400064024085
:100B800080B485B000AF786039607B68104A9342CA
:100B900002D8104BFB6001E00F4BFB603B6803F099
:100BA0000053002B07D03B6823F0F02323F082137F
:100BB000FA68D36006E03B6823F0F02323F0821349
:100BC000FA68936000BF1437BD4680BC704700BF11
:100BD0000F6402400060024000640240B0B58AB079
:100BE00000AF0446084611461A462346FB800346DA
:100BF000BB800B467B8013463B807A88FB88D31AE8
:100C0000002BB8BF5B42184600F02AFE03463B614A
:100C10003A88BB88D31A002BB8BF5B42184600F055
:100C20001FFE0346FB60F968386900F021FF0346A8
:100C30007B623969F86800F01BFF03463B62396943
:100C4000F86801F01DF80346002B08D0F86801F0A1
:100C500021F803467B614FF07E533B6207E0386921
:100C600001F018F803467B614FF07E537B627A886F
:100C7000FB889A4203D27B6A83F000437B623A8806
:100C8000BB889A4203D23B6A83F000433B62002355
:100C9000BB6161E03B8F5B42FB6156E0FB8818461D
:100CA00000F0DEFD0446F86900F0DAFD0346396A1B
:100CB000184600F029FE03461946204600F01CFDA8
:100CC00003461C46B86900F0CBFD0346796A184616
:100CD00000F01AFE03461946204600F00DFD0346BB
:100CE000184600F0FDFF03469CB2BB88184600F092
:100CF000B7FD0546F86900F0B3FD0346796A18466A
:100D000000F002FE03461946284600F0F5FC0346B3
:100D10001D46B86900F0A4FD0346396A184600F084
:100D2000F3FD03461946284600F0E6FC0346184644
:100D300000F0D6FF03469BB297F83C2019462046A8
:100D400000F074F8FB690133FB613A8FFB699A424A
:100D5000A4DCBB690133BB61BA697B699A4299DB48
:100D600000BF2837BD46B0BD80B582B000AF1B4B79
:100D700000221A80194B00225A60184B00229A60F8
:100D80000023BB8017E00023FB800DE0BA881346E8
:100D90009B0013449B011A44FB881344104A002112
:100DA000D154FB880133FB80FB88B3F5A07FEDD9DC
:100DB000BB880133BB80BB88EF2BE4D900F05CF823
:100DC00000F0AEF800F03EF900F010F9054B1B689A
:100DD000024A936000BF0837BD4680BD680000200E
:100DE000740000208864024080B584B000AF0346E0
:100DF000FB710023BB8112E00023FB8108E0FA793C
:100E0000B989FB89184600F011F8FB890133FB8191
:100E1000FB89B3F5A07FF2D3BB890133BB81BB89CA
:100E2000EF2BE9D900BF1037BD4680BD80B483B039
:100E300000AF0346FB800B46BB801346FB70FB886C
:100E4000B3F5A07F01D30023FB80BB88EF2B01D932
:100E50000023BB80BA8813469B0013449B011A44AD
:100E6000FB8813440349FA78CA5400BF0C37BD46C7
:100E700080BC70477400002080B582B000AF0121B3
:100E80001020FFF7D1FA4FF47F433B6001233B7101
:100E90000023BB710123FB7103237B713B46194681
:100EA0001D48FFF71BFB1C4B4FF47F425A83012167
:100EB0000220FFF7B9FA4FF400633B6002233B7155
:100EC00003237B710023BB710123FB713B46194651
:100ED0001248FFF703FB01220B211048FFF78CFBA0
:100EE00001210220FFF7A0FA4FF480533B60012359
:100EF0003B710023BB710123FB7103237B713B46D4
:100F000019460648FFF7EAFA044B4FF480521A8359
:100F100000BF0837BD4680BD0010024000040240FB
:100F200080B588B000AF01210120FFF7B9FA0B238B
:100F3000BB610023BB820023BB830023FB8207F13C
:100F400014031946284800F0A9F901210120FFF7F0
:100F500089FA40F66B23BB610023BB820023BB836D
:100F60000023FB8207F1140319464FF0804000F084
:100F700095F960233B8001237B804FF4D273BB60E3
:100F80000223BB813B4619464FF0804000F030FA07
:100F900008214FF0804000F017FB60233B800123C5
:100FA0007B804FF4A073BB600223BB813B46194694
:100FB0004FF0804000F0A2FA08214FF0804000F08E
:100FC0001FFB0121084800F0D3F901214FF08040B8
:100FD00000F0CEF901214FF0804000F0E9F900BFA8
:100FE0002037BD4680BD00BF0000014080B582B003
:100FF00000AF012210211248FFF732FD44233B715C
:1010000000237B710023BB710123FB713B1D18463C
:1010100000F0E4F8012208214FF0804000F00EFBC0
:101020001C233B7100237B710023BB710123FB71E7
:101030003B1D184600F0D2F800BF0837BD4680BD02
:101040008864024080B590B000AF01214FF4800069
:10105000FFF7EAF900211B48FFF7E6FC1948FFF704
:10106000BBFB4FF040637B60174BBB60174BFB60D3
:1010700040233B6140F241137B610023BB614FF48D
:101080008063FB6100233B6200237B620023BB6221
:101090004FF44033FB6200233B6301237B63002357
:1010A000BB630023FB633B1D19460648FFF766FC44
:1010B00001224FF48071064800F0F4FA00BF403777
:1010C000BD4680BD886402401510024074000020B7
:1010D0000000014080B500AF08214FF0804000F0D3
:1010E000D1FA264B1B8801339AB2244B1A80234B2A
:1010F0001B88B3F5037F05D9204B00221A80204AB4
:101100001E4B5A601D4B1B88012B04D81D4B4FF4FE
:1011100080525A8303E01B4B4FF480521A83174BC3
:101120001B88232B27D9154B1B8840F202229342A0
:1011300021D8154A114B9B681360134A0F4B5B680B
:10114000D360124A114B1B889BB243F001039BB240
:1011500013800D4A0C4B1B6843F001031360074BCF
:101160001B8803F00103002B05D0044B5B6803F2DE
:101170004113024A536000BF80BD00BF68000020D9
:101180007400002000040240886402400000014016
:1011900080B500AF0D490E48FFF79CFC0346002BBD
:1011A00012D00A490A48FFF7EBFC0A4A094B1B8890
:1011B0009BB223F001039BB21380054B00221A60FF
:1011C000054B4FF47F425A8300BF80BD008800204A
:1011D00088640240000001400010024080B485B0E5
:1011E00000AF78600023FB730023BB730F237B7376
:1011F0007B68DB78002B38D0264BDB68DB4303F4BD
:10120000E0631B0AFB73FB7BC3F10403BB737A7BB4
:10121000FB7B42FA03F37B737B685B781A46BB7BEC
:1012200002FA03F3FB737B689A787B7B1340DAB294
:10123000FB7B1343FB73FB7B1B01FB73164A7B6831
:101240001B781344FA7B83F80023134A7B681B78CE
:101250005B09DBB218467B681B7803F01F03012192
:1012600001FA03F342F820300FE00B497B681B784A
:101270005B09DBB218467B681B7803F01F03012271
:101280009A4000F1200341F8232000BF1437BD46E7
:1012900080BC704700ED00E000E100E080B485B064
:1012A00000AF786039600023FB817B681B88FB817D
:1012B0007B68284A934213D07B68274A93420FD019
:1012C0007B68B3F1804F0BD07B68244A934207D0F0
:1012D0007B68234A934203D07B68224A934208D119
:1012E000FB8923F07003FB813B685A88FB89134319
:1012F000FB817B681C4A93420CD07B681B4A93425B
:1013000008D0FB8923F44073FB813B681A89FB8971
:101310001343FB817B68FA891A803B685A687B68B3
:10132000DA623B681A887B681A857B68094A9342AF
:1013300003D07B68084A934204D13B689B7A9AB2F7
:101340007B681A867B6801229A8200BF1437BD46EB
:1013500080BC7047000001400004014000040040D0
:1013600000080040000C0040001000400014004045
:1013700080B483B000AF78600B46FB70FB78002B25
:1013800008D07B681B889BB243F080039AB27B68CD
:101390001A8007E07B681B889BB223F080039AB217
:1013A0007B681A8000BF0C37BD4680BC704700BF09
:1013B00080B483B000AF78600B46FB70FB78002BE5
:1013C00008D07B681B889BB243F001039AB27B680C
:1013D0001A8007E07B681B889BB223F001039AB256
:1013E0007B681A8000BF0C37BD4680BC704700BFC9
:1013F00080B485B000AF7860396000237B81002322
:10140000FB810023BB817B681B8C9BB223F4807320
:101410009AB27B681A847B681B8CFB817B689B88F3
:10142000BB817B689B8B7B817B8923F070037B81F5
:101430007B8923F003037B813B681A887B891343F4
:101440007B81FB8923F40073FB813B689B891B0232
:101450009AB2FB891343FB813B685B881B029AB2FB
:10146000FB891343FB817B68224A934203D07B684C
:10147000214A93422BD1FB8923F40063FB813B6813
:10148000DB891B029AB2FB891343FB81FB8923F49E
:101490008063FB813B689B881B029AB2FB891343E4
:1014A000FB81BB8923F48053BB81BB8923F40053A8
:1014B000BB813B681B8A1B019AB2BB891343BB816A
:1014C0003B685B8A1B019AB2BB891343BB817B6873
:1014D000BA899A807B687A899A833B689A687B6824
:1014E000DA637B68FA891A8400BF1437BD4680BC72
:1014F000704700BF000001400004014080B485B087
:1015000000AF786039600023BB8100237B8100231A
:10151000FB817B681B8C9BB223F480539AB27B685F
:101520001A847B681B8C7B817B689B88FB817B6832
:101530009B8BBB81BB8923F4E043BB81BB8923F434
:101540004073BB813B681B881B029AB2BB89134363
:10155000BB817B8923F400537B813B689B891B0300
:101560009AB27B8913437B813B685B881B039AB2E9
:101570007B8913437B817B68114A934203D07B684C
:10158000104A93420AD1FB8923F48043FB813B68D4
:101590001B8A9B019AB2FB891343FB817B68FA8902
:1015A0009A807B68BA899A833B689A687B681A64D8
:1015B0007B687A891A8400BF1437BD4680BC7047A7
:1015C000000001400004014080B485B000AF7860A5
:1015D0000B467B800023FB817B689B8BFB81FB8917
:1015E00023F00803FB81FA897B881343FB817B6826
:1015F000FA899A8300BF1437BD4680BC704700BF8C
:1016000080B485B000AF78600B467B800023FB81FF
:101610007B689B8BFB81FB8923F40063FB817B88C8
:101620001B029AB2FB891343FB817B68FA899A8378
:1016300000BF1437BD4680BC704700BF80B483B084
:1016400000AF78600B467B8013467B707B78002B65
:1016500008D07B689B899AB27B8813439AB27B68D7
:101660009A8109E07B689B899AB27B88DB439BB2B5
:1016700013409AB27B689A8100BF0C37BD4680BC8C
:10168000704700BF80B483B000AF78600B467B80AA
:101690007B88DB439AB27B681A8200BF0C37BD4659
:1016A00080BC704780B483B000AF78600B467B800D
:1016B00013467B707B78002B08D07B689B899AB29D
:1016C0007B8813439AB27B689A8109E07B689B8987
:1016D0009AB27B88DB439BB213409AB27B689A81B3
:1016E00000BF0C37BD4680BC704700BF80F0004093
:1016F00002E000BF81F0004142001FBF5FEA4103EA
:1017000092EA030F7FEA226C7FEA236C6AD04FEAE9
:101710001262D2EB1363C1BFD2184140484041402E
:10172000B8BF5B42192B88BF704710F0004F40F4E0
:10173000000020F07F4018BF404211F0004F41F4FC
:10174000000121F07F4118BF494292EA030F3FD0C8
:10175000A2F1010241FA03FC10EB0C00C3F12003DB
:1017600001FA03F100F0004302D5494260EB40006A
:10177000B0F5000F13D3B0F1807F06D340084FEAD5
:10178000310102F10102FE2A51D2B1F1004F40EBCA
:10179000C25008BF20F0010040EA03007047490032
:1017A00040EB000010F4000FA2F10102EDD1B0FAFD
:1017B00080FCACF1080CB2EB0C0200FA0CF0AABFF2
:1017C00000EBC25052421843BCBFD0401843704790
:1017D00092F0000F81F4000106BF80F40000013296
:1017E000013BB5E74FEA41037FEA226C18BF7FEA6D
:1017F000236C21D092EA030F04D092F0000F08BFAF
:101800000846704790EA010F1CBF0020704712F095
:101810007F4F04D1400028BF40F00040704712F1D4
:1018200000723CBF00F50000704700F0004343F039
:10183000FE4040F4000070477FEA226216BF08466F
:101840007FEA23630146420206BF5FEA412390EA32
:10185000010F40F4800070474FF0000304E000BF28
:1018600010F0004348BF40425FEA000C08BF7047D9
:1018700043F0964301464FF000001CE050EA01029D
:1018800008BF70474FF000030AE000BF50EA0102B2
:1018900008BF704711F0004302D5404261EB41019F
:1018A0005FEA010C02BF84460146002043F0B643C4
:1018B00008BFA3F18053A3F50003BCFA8CF2083AE9
:1018C000A3EBC25310DB01FA02FC634400FA02FCF2
:1018D000C2F12002BCF1004F20FA02F243EB0200F9
:1018E00008BF20F00100704702F1200201FA02FC5B
:1018F000C2F1200250EA4C0021FA02F243EB02004E
:1019000008BF20EADC7070474FF0FF0C1CEAD05291
:101910001EBF1CEAD15392EA0C0F93EA0C0F6FD052
:101920001A4480EA010C400218BF5FEA41211ED030
:101930004FF0006343EA501043EA5111A0FB01311C
:101940000CF00040B1F5000F3EBF490041EAD371F1
:101950005B0040EA010062F17F02FD2A1DD8B3F16D
:10196000004F40EBC25008BF20F00100704790F0DC
:10197000000F0CF0004C08BF49024CEA502040EA2E
:1019800051207F3AC2BFD2F1FF0340EAC2507047F4
:1019900040F400004FF00003013A5DDC12F1190F32
:1019A000DCBF00F000407047C2F10002410021FAA4
:1019B00002F1C2F1200200FA02FC5FEA310040F1BC
:1019C000000053EA4C0308BF20EADC70704792F035
:1019D000000F00F0004C02BF400010F4000F013A6D
:1019E000F9D040EA0C0093F0000F01F0004C02BF68
:1019F000490011F4000F013BF9D041EA0C018FE7D7
:101A00000CEAD15392EA0C0F18BF93EA0C0F0AD0DC
:101A100030F0004C18BF31F0004CD8D180EA010002
:101A200000F00040704790F0000F17BF90F0004F9B
:101A3000084691F0000F91F0004F14D092EA0C0F7D
:101A400001D142020FD193EA0C0F03D14B0218BF10
:101A5000084608D180EA010000F0004040F0FE4056
:101A600040F40000704740F0FE4040F440007047F2
:101A70004FF0FF0C1CEAD0521EBF1CEAD15392EA71
:101A80000C0F93EA0C0F69D0A2EB030280EA010C61
:101A900049024FEA402037D04FF0805343EA1111FA
:101AA00043EA10130CF000408B4238BF5B0042F158
:101AB0007D024FF4000C8B4224BF5B1A40EA0C00FD
:101AC000B3EB510F24BFA3EB510340EA5C00B3EB2F
:101AD000910F24BFA3EB910340EA9C00B3EBD10F1D
:101AE00024BFA3EBD10340EADC001B0118BF5FEA6F
:101AF0001C1CE0D1FD2A3FF650AF8B4240EBC25098
:101B000008BF20F0010070470CF0004C4CEA502058
:101B10007F32C2BFD2F1FF0340EAC250704740F4A7
:101B200000004FF00003013A37E792F0000F00F099
:101B3000004C02BF400010F4000F013AF9D040EA17
:101B40000C0093F0000F01F0004C02BF490011F4AB
:101B5000000F013BF9D041EA0C0195E70CEAD153A3
:101B600092EA0C0F08D142027FF47DAF93EA0C0F8A
:101B70007FF470AF084676E793EA0C0F04D14B026E
:101B80003FF44CAF08466EE730F0004C18BF31F020
:101B9000004CCAD130F000427FF45CAF31F000431A
:101BA0007FF43CAF5FE700BF4FF0FF3C06E000BFB3
:101BB0004FF0010C02E000BF4FF0010C4DF804CDD6
:101BC0004FEA40024FEA41037FEA226C18BF7FEAE6
:101BD000236C11D001B052EA530C18BF90EA010FE8
:101BE00058BFB2EB030088BFC81738BF6FEAE17077
:101BF00018BF40F0010070477FEA226C02D15FEA13
:101C0000402C05D17FEA236CE4D15FEA412CE1D07E
:101C10005DF8040B704700BF844608466146FFE745
:101C20000FB5FFF7C9FF002848BF10F1000F0FBD27
:101C30004DF808EDFFF7F4FF0CBF012000205DF820
:101C400008FB00BF4DF808EDFFF7EAFF34BF0120A5
:101C500000205DF808FB00BF4DF808EDFFF7E0FF3E
:101C600094BF012000205DF808FB00BF4DF808ED8F
:101C7000FFF7D2FF94BF012000205DF808FB00BFF2
:101C80004DF808EDFFF7C8FF34BF012000205DF8D4
:101C900008FB00BF4FEA4002B2F1FE4F0FD34FF0F6
:101CA0009E03B3EB12620DD94FEA002343F00043C9
:101CB00010F0004F23FA02F018BF404270474FF077
:101CC0000000704712F1610F01D1420205D110F0FE
:101CD000004008BF6FF0004070474FF000007047B1
:101CE00042000ED2B2F1FE4F0BD34FF09E03B3EB86
:101CF000126209D44FEA002343F0004323FA02F0B2
:101D000070474FF00000704712F1610F01D142029D
:101D100002D14FF0FF3070474FF00000704700BF16
:0400000508000000EF
:00000001FF
