:020000040800F2
:100000001C3B0120410800089D0800089D080008CD
:100010009D0800089D0800089D08000800000000D9
:100020000000000000000000000000009D08000823
:100030009D080008000000009D0800089D080008B9
:100040009D0800089D0800089D0800089D080008FC
:100050009D0800089D0800089D0800089D080008EC
:100060009D0800089D0800089D0800089D080008DC
:100070009D0800089D0800089D0800089D080008CC
:100080009D0800089D0800089D0800089D080008BC
:100090009D0800089D0800089D0800089D080008AC
:1000A0009D0800089D0800089D0800089D0800089C
:1000B000890F00089D0800089D0800089D08000899
:1000C0009D0800089D0800089D0800089D0800087C
:1000D0009D0800089D080008390600089D080008D2
:1000E0009D0800089D0800089D0800089D0800085C
:1000F0009D0800089D0800089D0800089D0800084C
:100100009D0800089D0800089D0800089D0800083B
:100110009D0800089D0800089D0800089D0800082B
:100120009D0800089D0800089D0800089D0800081B
:100130009D0800089D0800089D0800089D0800080B
:100140009D0800089D0800089D0800089D080008FB
:10015000451000089D0800089D0800089D0800083B
:100160009D0800089D0800089D0800089D080008DB
:100170009D0800089D0800089D0800089D080008CB
:100180009D0800089D08000880B58AB000AF78601F
:10019000396000237B6200233B620023FB61002364
:1001A000BB617B681B8A9BB27B627B6A23F44053F2
:1001B0007B623B68DB881A467B6A13437B627B6AFF
:1001C0009AB27B681A827B689B899BB27B627B6A4E
:1001D00023F4B05323F00C037B623B689A883B689E
:1001E0001B8913439AB23B685B8913439BB21A463F
:1001F0007B6A13437B627B6A9AB27B689A817B68D5
:100200009B8A9BB27B627B6A23F440737B623B6870
:100210009B891A467B6A13437B627B6A9AB27B682E
:100220009A8207F10803184600F0C6FB7B68304A43
:10023000934203D07B682F4A934202D17B693B6291
:1002400001E03B693B627B689B899BB21BB2002B40
:100250000CDA3A6A13469B0013449A001A443B682E
:100260001B685B00B2FBF3F3FB610BE03A6A1346D9
:100270009B0013449A001A443B681B689B00B2FB26
:10028000F3F3FB61FB691C4AA2FB03235B091B011F
:100290007B627B6A1B09642202FB03F3FA69D31AAF
:1002A000BB617B689B899BB21BB2002B0CDABB69DC
:1002B000DB003233104AA2FB03235B0903F0070380
:1002C0007A6A13437B620BE0BB691B0132330A4A33
:1002D000A2FB03235B0903F00F037A6A13437B62DB
:1002E0007B6A9AB27B681A8100BF2837BD4680BD01
:1002F00000100140001401401F85EB5180B483B011
:1003000000AF78600B46FB70FB78002B08D07B6851
:100310009B899BB243F400539AB27B689A8107E0B1
:100320007B689B899BB223F400539AB27B689A81C5
:1003300000BF0C37BD4680BC704700BF80B483B09F
:1003400000AF78600B467B807B88C3F308039AB2CA
:100350007B689A8000BF0C37BD4680BC704700BFE9
:1003600080B487B000AF78600B467B8013467B700B
:1003700000233B610023FB600023BB6000237B6103
:100380007B687B617B88DBB25B09DBB23B617B888E
:1003900003F01F03FB600122FB6802FA03F3BB605A
:1003A0003B69012B03D17B690C337B6109E03B691D
:1003B000022B03D17B6910337B6102E07B6914332C
:1003C0007B617B78002B06D07B697A691168BA68FB
:1003D0000A431A6006E07B697A691168BA68D243F9
:1003E0000A401A6000BF1C37BD4680BC704700BF82
:1003F00080B485B000AF78600B467B800023FB7330
:100400007B681B889AB27B8813409BB2002B02D07A
:100410000123FB7301E00023FB73FB7B18461437B9
:10042000BD4680BC704700BF80B487B000AF786025
:100430000B467B800023FB6000237B610023BB60B5
:100440000023FB747B88DBB25B09DBB2BB607B887B
:1004500003F01F037B6101227B6902FA03F37B61D6
:10046000BB68012B07D17B689B899BB21A467B69CD
:1004700013407B6111E0BB68022B07D17B681B8AAC
:100480009BB21A467B6913407B6106E07B689B8ABE
:100490009BB21A467B6913407B617B881B0A9BB227
:1004A000FB600122FB6802FA03F3FB607B681B8898
:1004B0009BB21A46FB681340FB607B69002B05D09A
:1004C000FB68002B02D00123FB7401E00023FB74C6
:1004D000FB7C18461C37BD4680BC704780B485B095
:1004E00000AF78600B467B800023FB810023BB813B
:1004F0007B881B0AFB81FB89012202FA03F3BB8183
:10050000BB89DB439AB27B681A8000BF1437BD46B3
:1005100080BC704780B584B000AF3B46184600F001
:100520004BFA7B68044AA2FB03231B0D034A1360AA
:1005300000BF1037BD4680BD83DE1B431C33012046
:1005400080B483B000AF7860084B1B687A6802FB08
:1005500003F30A3B7B6000BF7B685A1E7A60002B66
:10056000FAD100BF0C37BD4680BC70471C33012058
:1005700080B586B000AF01214FF4003000F0E4FAFE
:100580000121012000F0C2FA0C233B6102233B75DC
:100590000023BB750123FB7502237B7507F1100354
:1005A0001946164800F0EEFA07220221134800F01F
:1005B00077FB07220321114800F072FB4FF4E1336F
:1005C0003B600023BB800023FB8000233B81002392
:1005D000BB810C237B813B4619460948FFF7D4FDBC
:1005E000012240F225510648FFF7BAFE01210448D6
:1005F000FFF784FE00BF1837BD4680BD00000240F3
:100600000044004080B582B000AF0346FB7100BFDC
:1006100080210848FFF7ECFE0346002BF8D0FB7959
:100620009BB219460348FFF789FE00BF0837BD4655
:1006300080BD00BF0044004080B582B000AF40F2F2
:1006400025512748FFF7F0FE0346002B44D040F227
:1006500025512348FFF742FF214B9B889BB2FB703B
:10066000FB78402B05D9FB785A2B02D8FB78203336
:10067000FB70FB780D2B1DD800237B600BE0194A23
:100680007B6813441B789BB219461548FFF756FE4A
:100690007B6801337B60144B1B687A689A42EEDBFF
:1006A000114B00221A60FB789BB219460C48FFF7E9
:1006B00045FE09E00C4B1B680A49FA78CA540A4BFC
:1006C0001B680133084A136000BF40210448FFF74C
:1006D0008FFE0346002BF8D000BF0837BD4680BD13
:1006E00000440040BC050020B805002080B582B061
:1006F00000AF78600A21786800F004F800BF08377E
:10070000BD4680BD80B588B000AF78600B46FB70F9
:100710000F23FB617B68002B29D107F10802FB69DD
:10072000134430221A70FB69013BFB6139E0FA780F
:100730007B68B3FBF2F102FB01F29B1ABB61FB7811
:100740007A68B2FBF3F37B60194ABB6913441B78E8
:1007500059B207F10802FB6913440A461A70FB6993
:10076000013BFB61FB69002B01D100237B607B68AF
:10077000002BDCD115E0FB690133FB6100BF802158
:100780000C48FFF735FE0346002BF8D007F10802AE
:10079000FB69134493F900309BB219460548FFF7F3
:1007A000CDFDFB690E2BE6DD00BF2037BD4680BDC9
:1007B000000000200044004080B582B000AFFF235D
:1007C000FB7120210748FFF713FE0346012B03D1DD
:1007D000044B9B889BB2FB71FB7918460837BD46DA
:1007E00080BD00BF0044004080B582B000AF78609B
:1007F0003960FFF7E1FF03461A467B681A707B6891
:100800001B78FF2B17D07B681B780A2B13D03B6813
:10081000002B04D07B681B781846FFF7F3FE7B683B
:100820001B780D2B03D17B6800221A7005E07B68D2
:1008300001337B60DDE700BFDBE70837BD4680BDE5
:1008400080B582B000AF104B7B60104B3B6007E07F
:100850003B681A1D3A607A68111D796012681A6047
:100860003B680B4A9342F3D30A480B494FF000020E
:100870008842B8BF40F8042BFADB00F013F800BF41
:100880000837BD4680BD00BFD51600080000002017
:10089000B8050020B80500202033012080B400AF47
:1008A000FEE700BF80B5A6B000AF00F041FAFFF749
:1008B0005FFEFFF72FFE3B4600211846FFF794FF2F
:1008C0006420FFF73DFE0023C7F894300023C7F8EB
:1008D00094301BE03A46D7F8943013441B782C2B05
:1008E0000FD1D7F89420394607F17003184600F06D
:1008F00055FD07F17002D7F89430134400221A70A6
:1009000008E0D7F894300133C7F89430D7F8943022
:10091000632BDFDD07F170032649184600F0D4FB96
:100920000346002BC7D10023C7F888300023C7F83F
:1009300090303AE0D7F88830012B02D0022B12D049
:100940001EE03A46D7F890301344197807F1640254
:10095000D7F88C3013440A461A70D7F88C3001331C
:10096000C7F88C300DE007F16403184600F0A0FBD7
:100970000346A7F88630B7F886301846FFF7B6FE6C
:1009800000BF3A46D7F8903013441B782C2B07D180
:100990000023C7F88C30D7F888300133C7F8883087
:1009A000D7F890300133C7F89030D7F89030632BE8
:1009B000C0DD80E7B815000880B489B000AF78606A
:1009C0000023BB6100237B610023FB6102233B61A9
:1009D0000023FB600223BB60484B9B6803F00C03C1
:1009E000BB61BB69042B07D0082B09D0002B3FD17A
:1009F0007B68434A1A603FE07B68424A1A603BE0EA
:100A00003E4B5B6803F480039B0DFB603B4B5B68D4
:100A100003F03F03BB60FB68002B0DD0394ABB6875
:100A2000B2FBF3F2354B596847F6C0730B409B0994
:100A300003FB02F3FB610CE0314ABB68B2FBF3F24B
:100A40002E4B596847F6C0730B409B0903FB02F31A
:100A5000FB612A4B5B6803F440331B0C01335B00E2
:100A60003B61FA693B69B2FBF3F27B681A6003E011
:100A70007B68234A1A6000BF204B9B6803F0F00399
:100A8000BB61BB691B09BB611F4ABB6913441B786F
:100A9000DBB27B617B681A687B69DA407B685A60ED
:100AA000164B9B6803F4E053BB61BB699B0ABB61B7
:100AB000154ABB6913441B78DBB27B617B685A68BB
:100AC0007B69DA407B689A600C4B9B6803F4604357
:100AD000BB61BB695B0BBB610B4ABB6913441B78F1
:100AE000DBB27B617B685A687B69DA407B68DA60DD
:100AF00000BF2437BD4680BC704700BF00380240AD
:100B00000024F40000127A001000002080B483B0AA
:100B100000AF78600B46FB70FB78002B06D00949CC
:100B2000084B1A6B7B6813430B6306E00549054BC2
:100B30001A6B7B68DB4313400B6300BF0C37BD4669
:100B400080BC70470038024080B483B000AF78604A
:100B50000B46FB70FB78002B06D00949084B1A6C3A
:100B60007B6813430B6406E00549054B1A6C7B68F0
:100B7000DB4313400B6400BF0C37BD4680BC70479D
:100B80000038024080B487B000AF7860396000233D
:100B90007B6100233B610023FB6000237B6176E0E7
:100BA00001227B6902FA03F33B613B681A683B69E7
:100BB0001340FB60FA683B699A4265D17B681A680A
:100BC0007B695B00032101FA03F3DB431A407B6876
:100BD0001A607B681A683B681B7919467B695B0061
:100BE00001FA03F31A437B681A603B681B79012BF7
:100BF00003D03B681B79022B2ED17B689A687B69F6
:100C00005B00032101FA03F3DB431A407B689A601F
:100C10007B689A683B685B7919467B695B0001FADF
:100C200003F31A437B689A607B685A687B699BB2BE
:100C3000194601238B40DB431A407B685A607B686E
:100C40005B683A68927911467A6992B201FA02F2C7
:100C500092B21A437B685A607B68DA687B699BB200
:100C60005B00032101FA03F3DB431A407B68DA607F
:100C70007B68DA683B68DB7919467B695B0001FABF
:100C800003F31A437B68DA607B6901337B617B691C
:100C90000F2B85D900BF1C37BD4680BC704700BFF5
:100CA00080B485B000AF78600B467B8013467B70C4
:100CB0000023FB600023BB607A787B8803F0070386
:100CC0009B0002FA03F3FB607B88DB089BB21846AB
:100CD0007B88DB089BB21A467B68083253F82220D7
:100CE0007B8803F007039B000F2101FA03F3DB432A
:100CF00002EA03017B6800F1080243F822107B88B6
:100D0000DB089BB21A467B68083253F82220FB6846
:100D10001343BB607B88DB089BB21A467B680832B2
:100D2000B96843F8221000BF1437BD4680BC704735
:100D300080B500AF124A124B1B6843F001031360E9
:100D40000F4B00229A600E4A0D4B1B6823F08473F0
:100D500023F4803313600A4B0A4A5A60084A084B4E
:100D60001B6823F480231360054B0022DA6000F037
:100D70000DF8054B4FF000629A6000BF80BD00BFC8
:100D8000003802401030002400ED00E080B483B051
:100D900000AF00237B6000233B60354A344B1B6867
:100DA00043F480331360324B1B6803F400333B6021
:100DB0007B6801337B603B68002B03D17B68B3F514
:100DC000A06FF0D12A4B1B6803F40033002B02D034
:100DD00001233B6001E000233B603B68012B42D1D3
:100DE000234A234B1B6C43F080531364214A214B4D
:100DF0001B6843F4804313601D4A1D4B9B6893603E
:100E00001B4A1B4B9B6843F400439360184A184BE2
:100E10009B6843F4A0539360154B174A5A60144AD9
:100E2000134B1B6843F08073136000BF104B1B68AB
:100E300003F00073002BF9D0104B40F205621A60EA
:100E40000B4A0B4B9B6823F003039360084A084B43
:100E50009B6843F00203936000BF054B9B6803F05F
:100E60000C03082BF9D100BF0C37BD4680BC70477E
:100E7000003802400070004008544007003C024027
:100E800080B487B000AF786039600023FB75002321
:100E9000FB600023BB607B68214A934202D8214B50
:100EA0003B6101E0204B3B613B6823F0F02323F0E2
:100EB000C313002B0AD03B68DB0A03F01E03FB6060
:100EC0007B681A68FB681340BB6004E07B685B6961
:100ED00003F08003BB603B6803F00053002B03D09A
:100EE0003B695B68FB6002E03B691B68FB60FB6879
:100EF00023F0F02323F08213FB60FA683B68134071
:100F0000002B05D0BB68002B02D00123FB7501E04C
:100F10000023FB75FB7D18461C37BD4680BC70471F
:100F20000F640240006002400064024080B485B05B
:100F300000AF786039607B68104A934202D8104B4A
:100F4000FB6001E00F4BFB603B6803F00053002B9C
:100F500007D03B6823F0F02323F08213FA68D360B4
:100F600006E03B6823F0F02323F08213FA689360D5
:100F700000BF1437BD4680BC704700BF0F640240FD
:100F8000006002400064024080B500AF08214FF0CD
:100F9000804000F07DF8264B1B8801339AB2244B29
:100FA0001A80234B1B88B3F5037F05D9204B002201
:100FB0001A80204A1E4B5A601D4B1B88012B04D8F7
:100FC0001D4B4FF480525A8303E01B4B4FF4805269
:100FD0001A83174B1B88232B27D9154B1B8840F2EC
:100FE0000222934221D8154A114B9B681360134A81
:100FF0000F4B5B68D360124A114B1B889BB243F0C6
:1010000001039BB213800D4A0C4B1B6843F0010394
:101010001360074B1B8803F00103002B05D0044B22
:101020005B6803F24113024A536000BF80BD00BFFA
:10103000200600202C0600200004024088640240A4
:101040000000014080B500AF0D490E48FFF718FFC2
:101050000346002B12D00A490A48FFF767FF0A4AE5
:10106000094B1B889BB223F001039BB21380054BF5
:1010700000221A60054B4FF47F425A8300BF80BDA7
:1010800000880020886402400000014000100240F7
:1010900080B483B000AF78600B467B807B88DB43F5
:1010A0009AB27B681A8200BF0C37BD4680BC70477D
:1010B0000A22002100F042BA0000000000000000F7
:1010C000A2EB0300704700BF02780B78012A28BF0B
:1010D0009A42F5D16DE9044540EA0104CDE9026781
:1010E0006FF0000C4FEA447212B380EA010414F06E
:1010F000070F6AD100F0070420F0070004F0030591
:1011000021F007014FEAC505F0E8042314F0040FAD
:10111000F1E804670CFA05F462EA040266EA0406E0
:101120000AD063EA0403624667EA0407664603E0FE
:10113000F0E80423F1E8046782FA4CF582EA060439
:10114000A4FA8CF46CBB83FA4CF583EA0705A5FA84
:101150008CF595B950E9022351E9026782FA4CF502
:1011600082EA0604A4FA8CF483FA4CF583EA0705B4
:10117000A5FA8CF52543DBD09CB92DBAB5FA85F4D8
:1011800024F0070427FA04F1DDE9026723FA04F3E7
:1011900003F0FF0001F0FF01FDE80445A0EB0100B2
:1011A000704724BAB4FA84F424F0070426FA04F150
:1011B000DDE9026722FA04F202F0FF0001F0FF010C
:1011C000FDE80445A0EB0100704714F0030F3CD18B
:1011D00010F0030428D150F8082B51F8083B82FA8C
:1011E0004CF582EA0305A5FA8CF55DB950F8042C9C
:1011F00051F8043C82FA4CF582EA0305A5FA8CF515
:10120000002DE8D02DBAB5FA85F424F0070423FAAE
:1012100004F122FA04F202F0FF0001F0FF01FDE800
:101220000445A0EB010070474FEAC40420F003001E
:1012300050F8082B21F0030151F8083B0CFA04F494
:1012400062EA040263EA0403C9E710F003041AD057
:10125000A1EB040120F00300E40750F8042B06D0B2
:101260000FD28B785FFAA2F4E41A06D12BB1CB78B7
:101270005FFAB2F4E41A00D11BB920465DF8104BB6
:10128000704701F1040150F8042BCC0721F0030151
:1012900051F8043B48D824D222F07F4482FA4CF51E
:1012A00094EA1325A5FA8CF50AD165B951F8043BE7
:1012B00084EA0204B4EB036F0ED150F8042BEBE781
:1012C0004FEA132355E035F07F454DD10878FDE80E
:1012D0000445C0F1000070474FEA126203F0FF03BB
:1012E00047E002EA1C4482FA4CF594EA1345A5FA59
:1012F0008CF50AD165B951F8043B84EA0204B4EBD9
:10130000034F0CD150F8042BEBE74FEA134330E0C6
:1013100015EA1C4528D10B884FEA124229E04FEA12
:10132000124203EA1C4324E002F0FF0482FA4CF567
:1013300094EA1365A5FA8CF50AD165B951F8043B16
:1013400084EA0204B4EB032F09D150F8042BEBE735
:101350004FEA13630DE015F0FF0F05D10B684FEA5C
:10136000122223F07F4304E04FF00000FDE8044523
:10137000704712BA1BBA82FA4CF482EA0304A4FA48
:101380008CF5B5FA85F402FA04F203FA04F34FEA95
:101390001260FDE80445A0EB1360704740EA0103CA
:1013A0009B0770B42BD1032A29D90C46034621464A
:1013B00054F8046BA6F1013525EA060515F0803FC7
:1013C00006D1043A032A43F8046B2146EFD8A2B1B0
:1013D0000C781C70013A013301313CB16AB111F84B
:1013E000014B03F8014B013A002CF7D12AB11A4402
:1013F000002103F8011B9A42FBD170BC70470346E1
:10140000E5E700BF2DE9F84FDDF828900F4680464C
:1014100016461D468B4600E0A3465C46484614F837
:1014200001AB00F0A1F85044417801F0080101F04F
:10143000FF0C0029F0D152462D2A61D02B2A04BF7F
:101440009BF801200BF10204002D43D0102D65D034
:10145000A946BCF1000F0CBF6FF0004A4FF0004AE4
:101460000021BAFBF9FE084609FB1EAA05E029D0B7
:1014700009FB0030012114F8012BA2F13003092BE4
:1014800005D9A2F14103192B0AD8A2F137039D42D5
:101490000EDD4A1CEFD08645E9D24FF0FF31EAE776
:1014A000A2F16103192B03D8A2F157039D42F0DC8E
:1014B0004B1C15D0BCF1000F10D14EB1E1B9376013
:1014C000BDE8F88F9A45D3DA70464FF0FF31D2E786
:1014D000BDE8F88F302A1AD00A25B9E74042ECE778
:1014E000BCF1000F4FF022030CBF6FF000404FF033
:1014F0000040C8F80030F6B1671E3760BDE8F88FCD
:101500000BF102049BF801204FF0010C9CE72378BB
:1015100003F0DF03582B08D0082599E7302A97D12C
:10152000237803F0DF03582B92D14FF01009627833
:101530004D4602348DE7BDE8F88F00BF30B5084C4A
:10154000084B25686C6B83B0002C08BF1C460094C8
:1015500013460A4601462846FFF754FF03B030BD44
:10156000480400204C040020D0F8EC00704700BF75
:1015700082B049B15AB16BB113780B601278101C6C
:1015800018BF012002B0704701A9002AF3D110460C
:1015900002B070476FF00100F4E700BF21B1FF2AED
:1015A00004D80A7001207047084670478A230360F8
:1015B0004FF0FF30704700BF6C696A6E000000009A
:1015C00043000000504F5349580000000000000045
:1015D0002E0000000020202020202020202028286D
:1015E00028282820202020202020202020202020E3
:1015F0002020202020881010101010101010101023
:101600001010101010040404040404040404041052
:1016100010101010101041414141414101010101E0
:1016200001010101010101010101010101010101AA
:1016300010101010101042424242424202020202B6
:10164000020202020202020202020202020202027A
:10165000101010102000000000000000000000002A
:10166000000000000000000000000000000000007A
:10167000000000000000000000000000000000006A
:10168000000000000000000000000000000000005A
:10169000000000000000000000000000000000004A
:1016A000000000000000000000000000000000003A
:1016B000000000000000000000000000000000002A
:1016C000000000000000000000000000000000001A
:0516D000000000000015
:1016D5003031323334353637383941424344454663
:1016E50000000000010203040102030406070809C3
:1016F500000000000C03002074030020DC03002020
:1017050000000000000000000000000000000000D4
:1017150000000000000000000000000000000000C4
:1017250000000000000000000000000000000000B4
:1017350000000000000000000000000000000000A4
:101745000000000000000000000000000000000094
:101755000000000000000000000000000000000084
:101765000000000000000000000000000000000074
:101775000000000000000000000000000000000064
:101785000000000000000000000000000000000054
:101795000000000000000000010000000000000043
:1017A5000E33CDAB34126DE6ECDE05000B00000008
:1017B5000000000000000000000000000000000024
:1017C5000000000000000000000000000000000014
:1017D5000000000000000000000000000000000004
:1017E50000000000000000000000000000000000F4
:101B1500000000000000000020000020430000003D
:101B250000000000000000000000000000000000B0
:101B3500000000000000000000000000430000005D
:101B45000000000000000000000000000000000090
:101B5500000000000000000000000000430000003D
:101B65000000000000000000000000000000000070
:101B7500000000000000000000000000430000001D
:101B85000000000000000000000000000000000050
:101B950000000000000000000000000043000000FD
:101BA5000000000000000000000000000000000030
:101BB50000000000000000000000000043000000DD
:101BC5000000000000000000000000000000000010
:101BD50000000000000000000000000043000000BD
:101BE50000000000000000000000000000000000F0
:101BF5000000000000000000000000009D15000826
:101C05007115000800000000D4150008D015000863
:101C1500CC150008CC150008CC150008CC1500081B
:101C2500CC150008CC150008CC150008CC1500080B
:101C3500CC150008FFFFFFFFFFFFFFFFFFFFFFFFC2
:101C4500FFFF000001004153434949000000000027
:101C5500000000000000000000000000000000007F
:101C65000000000000004153434949000000000006
:101C7500000000000000000000000000000000005F
:081C8500000000000000000057
:0400000508000000EF
:00000001FF
