:020000040800F2
:100000000C3B0120C5100008211100082111000837
:100010002111000821110008211100080000000032
:100020000000000000000000000000002111000896
:100030002111000800000000211100082111000812
:1000400021110008211100082111000821110008C8
:1000500021110008211100082111000821110008B8
:1000600021110008211100082111000821110008A8
:100070002111000821110008211100082111000898
:100080002111000821110008211100082111000888
:100090002111000821110008211100082111000878
:1000A0002111000821110008211100082111000868
:1000B00075260008211100082111000821110008EF
:1000C0002111000821110008211100082111000848
:1000D00021110008211100087906000821110008EB
:1000E0002111000821110008211100082111000828
:1000F0002111000821110008211100082111000818
:100100002111000821110008211100082111000807
:1001100021110008211100082111000821110008F7
:1001200021110008211100082111000821110008E7
:1001300021110008211100082111000821110008D7
:1001400021110008211100082111000821110008C7
:100150003127000821110008211100082111000891
:1001600021110008211100082111000821110008A7
:100170002111000821110008211100082111000897
:10018000211100082111000880B58AB000AF786005
:10019000396000237B6200233B620023FB61002364
:1001A000BB617B681B8A9BB27B627B6A23F44053F2
:1001B0007B623B68DB881A467B6A13437B627B6AFF
:1001C0009AB27B681A827B689B899BB27B627B6A4E
:1001D00023F4B05323F00C037B623B689A883B689E
:1001E0001B8913439AB23B685B8913439BB21A463F
:1001F0007B6A13437B627B6A9AB27B689A817B68D5
:100200009B8A9BB27B627B6A23F440737B623B6870
:100210009B891A467B6A13437B627B6A9AB27B682E
:100220009A8207F10803184601F0EAFB7B68304A1E
:10023000934203D07B682F4A934202D17B693B6291
:1002400001E03B693B627B689B899BB21BB2002B40
:100250000CDA3A6A13469B0013449A001A443B682E
:100260001B685B00B2FBF3F3FB610BE03A6A1346D9
:100270009B0013449A001A443B681B689B00B2FB26
:10028000F3F3FB61FB691C4AA2FB03235B091B011F
:100290007B627B6A1B09642202FB03F3FA69D31AAF
:1002A000BB617B689B899BB21BB2002B0CDABB69DC
:1002B000DB003233104AA2FB03235B0903F0070380
:1002C0007A6A13437B620BE0BB691B0132330A4A33
:1002D000A2FB03235B0903F00F037A6A13437B62DB
:1002E0007B6A9AB27B681A8100BF2837BD4680BD01
:1002F00000100140001401401F85EB5180B483B011
:1003000000AF78600B46FB70FB78002B08D07B6851
:100310009B899BB243F400539AB27B689A8107E0B1
:100320007B689B899BB223F400539AB27B689A81C5
:1003300000BF0C37BD4680BC704700BF80B483B09F
:1003400000AF78600B467B807B88C3F308039AB2CA
:100350007B689A8000BF0C37BD4680BC704700BFE9
:1003600080B487B000AF78600B467B8013467B700B
:1003700000233B610023FB600023BB6000237B6103
:100380007B687B617B88DBB25B09DBB23B617B888E
:1003900003F01F03FB600122FB6802FA03F3BB605A
:1003A0003B69012B03D17B690C337B6109E03B691D
:1003B000022B03D17B6910337B6102E07B6914332C
:1003C0007B617B78002B06D07B697A691168BA68FB
:1003D0000A431A6006E07B697A691168BA68D243F9
:1003E0000A401A6000BF1C37BD4680BC704700BF82
:1003F00080B485B000AF78600B467B800023FB7330
:100400007B681B889AB27B8813409BB2002B02D07A
:100410000123FB7301E00023FB73FB7B18461437B9
:10042000BD4680BC704700BF80B487B000AF786025
:100430000B467B800023FB6000237B610023BB60B5
:100440000023FB747B88DBB25B09DBB2BB607B887B
:1004500003F01F037B6101227B6902FA03F37B61D6
:10046000BB68012B07D17B689B899BB21A467B69CD
:1004700013407B6111E0BB68022B07D17B681B8AAC
:100480009BB21A467B6913407B6106E07B689B8ABE
:100490009BB21A467B6913407B617B881B0A9BB227
:1004A000FB600122FB6802FA03F3FB607B681B8898
:1004B0009BB21A46FB681340FB607B69002B05D09A
:1004C000FB68002B02D00123FB7401E00023FB74C6
:1004D000FB7C18461C37BD4680BC704780B485B095
:1004E00000AF78600B467B800023FB810023BB813B
:1004F0007B881B0AFB81FB89012202FA03F3BB8183
:10050000BB89DB439AB27B681A8000BF1437BD46B3
:1005100080BC704780B584B000AF3B46184601F000
:100520006FFA7B68044AA2FB03231B0D034A136086
:1005300000BF1037BD4680BD83DE1B430C33012056
:1005400080B483B000AF78600A4B1B687A6802FB06
:1005500003F34FF47A7202FB03F30A3B7B6000BFA4
:100560007B685A1E7A60002BFAD100BF0C37BD465B
:1005700080BC70470C33012080B586B000AF0121EC
:100580004FF4003001F004FB0121012001F0E2FAF8
:100590000C233B6102233B750023BB750123FB75D4
:1005A00002237B7507F110031946164801F02CFB56
:1005B00007220221134801F0B5FB0722032111484D
:1005C00001F0B0FB4FF4E1333B600023BB8000231C
:1005D000FB8000233B810023BB810C237B813B46B6
:1005E00019460948FFF7D0FD012240F2255106487F
:1005F000FFF7B6FE01210448FFF780FE00BF183761
:10060000BD4680BD000002400044004080B582B07D
:1006100000AF0346FB7100BF80210848FFF7E8FEEA
:100620000346002BF8D0FB799BB219460348FFF72D
:1006300085FE00BF0837BD4680BD00BF00440040B6
:1006400080B584B000AF78600023FB6009E0FB68F0
:100650007A6813441B781846FFF7D8FFFB6801330C
:10066000FB60FB687A6813441B78002BEFD100BF56
:100670001037BD4680BD00BF80B582B000AF40F2EC
:1006800025512748FFF7D0FE0346002B44D040F207
:1006900025512348FFF722FF214B9B889BB2FB701B
:1006A000FB78402B05D9FB785A2B02D8FB782033F6
:1006B000FB70FB780D2B1DD800237B600BE0194AE3
:1006C0007B6813441B789BB219461548FFF736FE2A
:1006D0007B6801337B60144B1B687A689A42EEDBBF
:1006E000114B00221A60FB789BB219460C48FFF7A9
:1006F00025FE09E00C4B1B680A49FA78CA540A4BDC
:100700001B680133084A136000BF40210448FFF70B
:100710006FFE0346002BF8D000BF0837BD4680BDF2
:1007200000440040A8320120A805002080B582B016
:1007300000AFFF23FB7120210748FFF759FE034656
:10074000012B03D1044B9B889BB2FB71FB791846AC
:100750000837BD4680BD00BF0044004080B582B070
:1007600000AF78603960FFF7E1FF03461A467B6807
:100770001A707B681B78FF2B17D07B681B780A2BBD
:1007800013D03B68002B04D07B681B781846FFF71A
:100790003DFF7B681B780D2B03D17B6800221A700C
:1007A00005E07B6801337B60DDE700BFDBE70837EE
:1007B000BD4680BD80B584B000AF78604C49786894
:1007C00002F0E2FD0346002B02D10323FB738AE013
:1007D0004849786802F0D8FD0346002B02D1E02397
:1007E000FB7380E04449786802F0CEFD0346002B9D
:1007F00002D1FC23FB7376E04049786802F0C4FD27
:100800000346002B02D11C23FB736CE03C49786843
:1008100002F0BAFD0346002B02D1F223FB7362E023
:100820003849786802F0B0FD0346002B02D1E3237B
:10083000FB7358E03449786802F0A6FD0346002BAC
:1008400002D1F323FB734EE03049786802F09CFD3F
:100850000346002B02D17E23FB7344E02C497868C9
:1008600002F092FD0346002B02D16F23FB733AE0A6
:100870002849786802F088FD0346002B02D11F2327
:10088000FB7330E02449786802F07EFD0346002BBC
:1008900002D19F23FB7326E02049786802F074FDA3
:1008A0000346002B02D18823FB731CE01C497868A7
:1008B00002F06AFD0346002B02D19223FB7312E083
:1008C0001849786802F060FD0346002B02D1FF232F
:1008D000FB7308E01449786802F056FD0346002BCC
:1008E00001D10023FB73FB7B18461037BD4680BD4A
:1008F000343900083C390008443900084C390008F4
:10090000543900086039000868390008783900084F
:10091000843900089039000898390008A439000883
:10092000AC390008B4390008B8390008B0B58CB04B
:1009300000AF0446084611461A462346FB8003468C
:10094000BB800B467B8013463B807A88FB88D31A9A
:10095000002BB8BF5B42184602F052FA03467B6197
:100960003A88BB88D31A002BB8BF5B42184602F006
:1009700047FA03463B613969786902F049FB03464F
:10098000FB627969386902F043FB0346BB620023CE
:10099000FB60FB88B3F5A07F09D87B88B3F5A07F07
:1009A00005D8BB88F02B02D83B88F02B03D9022353
:1009B000FB60FB68A0E07969386902F031FC03460E
:1009C000002B08D0386902F035FC0346BB614FF0BC
:1009D0007E53BB6207E0786902F02CFC0346BB61E2
:1009E0004FF07E53FB627A88FB889A4203D2FB6AFF
:1009F00083F00043FB623A88BB889A4203D2BB6A09
:100A000083F00043BB6200233B6270E0B7F84030E4
:100A10005B427B6263E0B7F840305B42FB6156E0CB
:100A2000FB88184602F0ECF90446F86902F0E8F990
:100A30000346F96A184602F037FA0346194620467B
:100A400002F02AF903461C46386A02F0D9F9034637
:100A5000F96A184602F028FA03461946204602F0C1
:100A60001BF90346184602F00BFC03469CB2BB88F8
:100A7000184602F0C5F90546786A02F0C1F9034646
:100A8000B96A184602F010FA03461946284602F0E1
:100A900003F903461D46386A02F0B2F90346B96A03
:100AA000184602F001FA03461946284602F0F4F807
:100AB0000346184602F0E4FB03469BB297F8442035
:100AC0001946204601F082FCFB690133FB61B7F84F
:100AD0004020FB699A42A3DC7B6A01337B62B7F852
:100AE00040207B6A9A4296DC3B6A01333B623A6A59
:100AF000BB699A428ADBFB6818463037BD46B0BDF9
:100B000090B589B000AF0446084611461A46234600
:100B1000FB800346BB800B467B8013463B80002353
:100B20007B61FA887B881344B3F5A07F04DCBA8824
:100B30003B881344F02B03DD02237B617B6980E05B
:100B40003B885B42FB6177E07B885B42BB616CE08A
:100B5000BB69BA6902FB03F33A8802FB03F33A88E4
:100B600002FB03F2FB69F96901FB03F3798801FBDE
:100B700003F3798801FB03F313443B613B887A88D4
:100B800002FB03F37A88023A398801FB02F17A8882
:100B900052008A1A02FB03F3FB603B883A8802FB8F
:100BA00003F37A8802FB03F37A8802FB03F23B69C2
:100BB0009A4217DB3A69FB689A4213DB97F83030A8
:100BC000002B0FD0BB699AB2FB88134498B2FB6923
:100BD0009AB2BB8813449BB297F83420194601F0AF
:100BE000F5FB1FE03B883A8802FB03F37A8802FB9F
:100BF00003F37A8802FB03F23B699A4212DB97F80F
:100C00003030002B0ED1BB699AB2FB88134498B2E6
:100C1000FB699AB2BB8813449BB297F834201946FB
:100C200001F0D4FBBB690133BB617A88BB699A428E
:100C30008EDAFB690133FB613A88FB699A4283DAF9
:100C40007B6918462437BD4690BD00BF90B58DB076
:100C500002AF0446084611461A462346FB80034667
:100C6000BB800B467B8013463B800123FB61012345
:100C7000BB6100237B61FB88B3F5A07F09D87B882B
:100C8000B3F5A07F05D8BB88F02B02D83B88F02BAA
:100C900003D902237B617B697EE07A88FB88D31AC3
:100CA000002BB8BF5B423B613A88BB88D31A002B4C
:100CB000B8BF5B42FB607A88FB889A4202D24FF051
:100CC000FF33FB613A88BB889A4202D24FF0FF3370
:100CD000BB61BC887A88B988F88897F8403001935E
:100CE000BB8F00932346FFF721FE3C88FA88B98822
:100CF000F88897F840300193BB8F00932346FFF7A5
:100D000015FE3C887A88B988788897F84030019336
:100D1000BB8F00932346FFF709FE7B8801339AB20D
:100D20003C883988F88897F840300193BB8F00934E
:100D30002346FFF7FBFD3B8F012B2CD100237B6269
:100D400025E000233B621BE07B6A9AB2FB699BB201
:100D500012FB03F39AB2FB88134498B23B6A9AB22F
:100D6000BB699BB212FB03F39AB2BB8813449BB2DC
:100D700097F84020194601F029FB3B6A01333B629A
:100D80003A6AFB689A42DFDB7B6A01337B627A6AEC
:100D90003B699A42D5DB7B6918462C37BD4690BD2E
:100DA0002DE9F04192B002AF0446084611461A46BA
:100DB0002346FB800346BB800B467B8013463B806B
:100DC0000023FB61FB88B3F5A07F12D87B88B3F5C5
:100DD000A07F0ED8B7F85830B3F5A07F09D8BB88EC
:100DE000F02B06D83B88F02B03D8B7F85C30F02BFB
:100DF00003D90223FB61FB6942E13C887A88B98808
:100E0000F88897F864300193012300932346FFF795
:100E10008DFDB7F85C40B7F858203988788897F886
:100E200064300193012300932346FFF77FFDBC88C4
:100E3000FA88B7F85C10B7F8580097F86430019357
:100E4000012300932346FFF771FD97F86030012BD3
:100E500040F01581B7F85820FB88D31A002BB8BF93
:100E60005B42184601F0CCFF0346BB61B7F85C203B
:100E7000BB88D31A002BB8BF5B42184601F0C0FFF5
:100E800003467B61B7F858207B88D31A002BB8BF84
:100E90005B42184601F0B4FF03463B61B7F85C20A3
:100EA0003B88D31A002BB8BF5B42184601F0A8FF5D
:100EB0000346FB607969B86902F0AAF80346FB6350
:100EC000F968386902F0A4F80346BB63B969786928
:100ED00002F09EF803467B633969F86802F098F8DF
:100EE00003463B63B969786902F09AF90346002B1F
:100EF00008D0786902F09EF903467B624FF07E537A
:100F00007B6307E0B86902F095F903467B624FF016
:100F10007E53FB633969F86802F082F90346002BBF
:100F200008D0F86802F086F903463B624FF07E5322
:100F30003B6307E0386902F07DF903463B624FF0FE
:100F40007E53BB63B7F85820FB889A4203D2FB6BF1
:100F500083F00043FB63B7F85C20BB889A4203D25E
:100F60007B6B83F000437B63B7F858207B889A4201
:100F700003D2BB6B83F00043BB63B7F85C203B88B4
:100F80009A4203D23B6B83F000433B633B6ABB62F4
:100F90003A6A7B6A9A4201DD7B6ABB624FF00003CA
:100FA000FB6261E0FB88184601F02AFF0446F96BFA
:100FB000F86A01F079FF03461946204601F06CFEFD
:100FC0000346184602F05CF903469CB2BB881846FB
:100FD00001F016FF0546796BF86A01F065FF0346DC
:100FE0001946284601F058FE0346184602F048F913
:100FF00003469DB27B88184601F002FF0646B96B96
:10100000F86A01F051FF03461946304601F044FEEC
:101010000346184602F034F903469EB23B88184650
:1010200001F0EEFE8046396BF86A01F03DFF0346A1
:101030001946404601F030FE0346184602F020F9FA
:1010400003469AB297F86430019301230093134644
:10105000324629462046FFF769FC4FF07E51F86A78
:1010600001F01AFE0346FB62B86A01F0C9FE0346AE
:10107000F96A184602F0D4F80346002B92D1FB69B6
:1010800018464037BD46BDE8F08100BF80B582B04C
:1010900000AF0346FB71FB79184601F075F9FB7947
:1010A00018460837BD4680BD80B582B000AF786075
:1010B0007B681846FFF744FA7B6818460837BD4638
:1010C00080BD00BF80B582B000AF104B7B60104B7D
:1010D0003B6007E03B681A1D3A607A68111D796031
:1010E00012681A603B680B4A9342F3D30A480B49D3
:1010F0004FF000028842B8BF40F8042BFADB00F042
:1011000013F800BF0837BD4680BD00BF3D3B000857
:1011100000000020A8050020A805002010330120B1
:1011200080B400AFFEE700BFB0B5ADF5007D04AF01
:1011300000F040FE01F0E8F81C2001F025F9FFF76F
:10114000E9F9FFF719FA0023C7F8EC313B46012112
:101150001846FFF703FB0023C7F8E8310023C7F860
:10116000E8311BE03A46D7F8E83113441B782C2BC2
:101170000FD1D7F8E821394607F5A073184602F0D9
:10118000CBFA07F5A072D7F8E831134400221A70A1
:1011900008E0D7F8E8310133C7F8E831D7F8E8318B
:1011A000632BDFDD07F5A073E149184602F0ECF888
:1011B0000346002B40F0B9800023C7F8E03100233C
:1011C000C7F8DC310023C7F8E431A8E03A46D7F885
:1011D000E43113441B782C2B4FD1D7F8DC31013389
:1011E000C7F8DC31D7F8DC31023B042B39D801A237
:1011F00052F823F0091200081B1200082D120008F3
:101200003F1200085112000807F59673184602F0C5
:1012100057F80346A7F8DA3124E007F59673184625
:1012200002F04EF80346A7F8D8311BE007F5967395
:10123000184602F045F80346A7F8D63112E007F544
:101240009673184602F03CF80346A7F8D43109E03B
:1012500007F59673184602F033F8034687F8D33142
:1012600000E000BF0023C7F8E03107F596731422B1
:101270000021184602F028F84CE03A46D7F8E4314D
:1012800013441B78002B30D1D7F8DC31062B2CD13E
:1012900007F5967207F58C731146184602F0DEF9D1
:1012A00007F58C731846FFF785FAC7F8540197F8CD
:1012B000D3319BB2D7F85421D2B2B7F8D451B7F892
:1012C000D641B7F8D811B7F8DA01019200932B464E
:1012D0002246FFF72BFBC7F8EC0107F596731422A3
:1012E0000021184601F0F0FF66E3D7F8DC31002B4F
:1012F00010DD3A46D7F8E4311344197807F59672B1
:10130000D7F8E03113440A461A70D7F8E0310133B8
:10131000C7F8E031D7F8E4310133C7F8E431D7F842
:10132000E431632B7FF752AF46E307F5A0738149A1
:10133000184602F029F80346002B40F0B88000233D
:10134000C7F8C8310023C7F8C4310023C7F8CC312F
:10135000A7E03A46D7F8CC3113441B782C2B50D158
:10136000D7F8C4310133C7F8C431D7F8C431023BD0
:10137000042B3AD801A252F823F000BF91130008C1
:10138000A3130008B5130008C7130008D9130008F9
:1013900007F58273184601F093FF0346A7F8C231A0
:1013A00024E007F58273184601F08AFF0346A7F888
:1013B000C0311BE007F58273184601F081FF034638
:1013C000A7F8BE3112E007F58273184601F078FFE6
:1013D0000346A7F8BC3109E007F58273184601F00F
:1013E0006FFF034687F8BB3100E000BF0023C7F85A
:1013F000C83107F5827314220021184601F064FFFA
:101400004AE03A46D7F8CC3113441B78002B2ED152
:10141000D7F8C431062B2AD107F5827207F1F00301
:101420001146184602F01AF907F1F0031846FFF7C3
:10143000C1F9C7F86801D7F86831DBB2B7F8BC4129
:10144000B7F8BE21B7F8C011B7F8C201019397F8F9
:10145000BB3100932346FFF753FBC7F8EC0107F5B8
:10146000827314220021184601F02EFFA4E2D7F85F
:10147000C431002B10DD3A46D7F8CC31134419782B
:1014800007F58272D7F8C83113440A461A70D7F8A4
:10149000C8310133C7F8C831D7F8CC310133C7F8A8
:1014A000CC31D7F8CC31632B7FF753AF84E207F50B
:1014B000A0732149184601F067FF0346002B40F056
:1014C000DC800023C7F8B0310023C7F8AC3100231B
:1014D000C7F8B431CBE03A46D7F8B43113441B789F
:1014E0002C2B6CD1D7F8AC310133C7F8AC31D7F81D
:1014F000AC31023B062B56D801A252F823F000BFB4
:101500001D1500083D1500084F150008611500085D
:1015100073150008851500089715000807F1DC030E
:10152000184601F0CDFE0346A7F8AA313CE000BF03
:10153000C0390008C8390008D039000807F1DC03B9
:10154000184601F0BDFE0346A7F8A8312CE007F1CC
:10155000DC03184601F0B4FE0346A7F8A63123E0E9
:1015600007F1DC03184601F0ABFE0346A7F8A431EF
:101570001AE007F1DC03184601F0A2FE0346A7F8C3
:10158000A23111E007F1DC03184601F099FE034691
:10159000A7F8A03108E007F1DC03184601F090FE3F
:1015A000C7F89C0100E000BF0023C7F8B03107F185
:1015B000DC0314220021184601F086FE52E03A4670
:1015C000D7F8B43113441B78002B36D1D7F8AC319F
:1015D000082B32D107F1DC0207F1C8031146184687
:1015E00002F03CF807F1C8031846FFF7E3F8C7F824
:1015F0006401D7F89C31DBB2D7F86421D2B2B7F8D6
:10160000A451B7F8A641B7F8A811B7F8AA010392F8
:101610000293B7F8A0310193B7F8A23100932B469B
:101620002246FFF7BDFBC7F8EC0107F1DC031422EB
:101630000021184601F048FEBEE1D7F8AC31002B7E
:1016400010DD3A46D7F8B4311344197807F1DC02BB
:10165000D7F8B03113440A461A70D7F8B0310133C5
:10166000C7F8B031D7F8B4310133C7F8B431D7F87F
:10167000B431632B7FF72FAF9EE107F5A073DA49F2
:10168000184601F081FE0346002B40F0BA8000238B
:10169000C7F894310023C7F890310023C7F8983178
:1016A000A9E03A46D7F8983113441B782C2B50D137
:1016B000D7F890310133C7F89031D7F89031023B19
:1016C000042B3AD801A252F823F000BFE11600081B
:1016D000F316000805170008171700082917000857
:1016E00007F1B403184601F0EBFD0346A7F88E316D
:1016F00024E007F1B403184601F0E2FD0346A7F821
:101700008C311BE007F1B403184601F0D9FD034604
:10171000A7F88A3112E007F1B403184601F0D0FDB2
:101720000346A7F8883109E007F1B403184601F031
:10173000C7FD0346A7F8863100E000BF0023C7F8C5
:10174000943107F1B40314220021184601F0BCFDC6
:101750004CE03A46D7F8983113441B78002B30D12F
:10176000D7F89031062B2CD107F1B40207F1A00372
:101770001146184601F072FF07F1A0031846FFF763
:1017800019F8C7F86001D7F86031DBB2B7F88841C3
:10179000B7F88A21B7F88C11B7F88E0102930123AC
:1017A0000193B7F8863100932346FFF74FFAC7F845
:1017B000EC0107F1B40314220021184601F084FD66
:1017C000FAE0D7F89031002B10DD3A46D7F898317F
:1017D0001344197807F1B402D7F8943113440A4638
:1017E0001A70D7F894310133C7F89431D7F898318B
:1017F0000133C7F89831D7F89831632B7FF751AF91
:10180000DAE007F5A0737949184601F0BDFD0346FB
:10181000002B67D10023C7F87C310023C7F878314B
:101820000023C7F8803158E03A46D7F88031134496
:101830001B782C2B0FD1D7F878310133C7F87831CA
:101840000023C7F87C3107F18C03142200211846CD
:1018500001F03AFD3CE03A46D7F8803113441B785A
:10186000002B20D1D7F87831012B1CD107F18C0245
:1018700007F178031146184601F0F0FE07F17803EE
:101880001846FEF797FFC7F85C01D7F85C31DBB26A
:101890001846FFF7FBFB07F18C03142200211846C2
:1018A00001F012FD88E0D7F87831002B10DD3A46C0
:1018B000D7F880311344197807F18C02D7F87C31BE
:1018C00013440A461A70D7F87C310133C7F87C31CB
:1018D000D7F880310133C7F88031D7F88031632BD6
:1018E000A2DD69E007F5A0734149184601F04CFDFF
:1018F0000346002B5DD10023C7F870310023C7F8E1
:101900006C310023C7F874314EE03A46D7F8743191
:1019100013441B782C2B0FD1D7F86C310133C7F847
:101920006C310023C7F8703107F1640314220021E1
:10193000184601F0C9FC32E03A46D7F87431134436
:101940001B78002B16D1D7F86C31012B12D107F17F
:101950006403184601F0B4FCC7F85801D7F85801E1
:10196000FFF7A2FB07F1640314220021184601F0DF
:10197000ABFC21E0D7F86C31002B10DD3A46D7F8EC
:1019800074311344197807F16402D7F870311344A5
:101990000A461A70D7F870310133C7F87031D7F89A
:1019A00074310133C7F87431D7F87431632BACDD6F
:1019B00002E00123C7F8EC31D7F8EC31012B02D05B
:1019C000022B07D00DE00B48FEF73AFE0A48FEF75F
:1019D00037FE06E00948FEF733FE0748FEF730FE03
:1019E00000BFFFF7B0BB00BFDC390008E8390008D2
:1019F000F4390008FC390008143A0008183A0008C5
:101A000080B489B000AF78600023BB6100237B61A4
:101A10000023FB6102233B610023FB600223BB60C8
:101A2000484B9B6803F00C03BB61BB69042B07D0D8
:101A3000082B09D0002B3FD17B68434A1A603FE056
:101A40007B68424A1A603BE03E4B5B6803F48003CC
:101A50009B0DFB603B4B5B6803F03F03BB60FB6887
:101A6000002B0DD0394ABB68B2FBF3F2354B5968F5
:101A700047F6C0730B409B0903FB02F3FB610CE0CC
:101A8000314ABB68B2FBF3F22E4B596847F6C0737C
:101A90000B409B0903FB02F3FB612A4B5B6803F4D9
:101AA00040331B0C01335B003B61FA693B69B2FBBD
:101AB000F3F27B681A6003E07B68234A1A6000BF78
:101AC000204B9B6803F0F003BB61BB691B09BB6142
:101AD0001F4ABB6913441B78DBB27B617B681A68C1
:101AE0007B69DA407B685A60164B9B6803F4E053CD
:101AF000BB61BB699B0ABB61154ABB6913441B7878
:101B0000DBB27B617B685A687B69DA407B689A60EC
:101B10000C4B9B6803F46043BB61BB695B0BBB610F
:101B20000B4ABB6913441B78DBB27B617B685A6844
:101B30007B69DA407B68DA6000BF2437BD4680BC31
:101B4000704700BF003802400024F40000127A0001
:101B50000000002080B483B000AF78600B46FB70BB
:101B6000FB78002B06D00949084B1A6B7B6813439E
:101B70000B6306E00549054B1A6B7B68DB4313409A
:101B80000B6300BF0C37BD4680BC70470038024075
:101B900080B483B000AF78600B46FB70FB78002BFD
:101BA00006D00949084B1A6C7B6813430B6406E0A6
:101BB0000549054B1A6C7B68DB4313400B6400BF7F
:101BC0000C37BD4680BC70470038024080B483B0FB
:101BD00000AF78600B46FB70FB78002B06D00949FC
:101BE000084B5A6C7B6813434B6406E00549054B70
:101BF0005A6C7B68DB4313404B6400BF0C37BD4617
:101C000080BC70470038024080B487B000AF786075
:101C1000396000237B6100233B610023FB600023CC
:101C20007B6176E001227B6902FA03F33B613B684A
:101C30001A683B691340FB60FA683B699A4265D1B8
:101C40007B681A687B695B00032101FA03F3DB43BD
:101C50001A407B681A607B681A683B681B791946D2
:101C60007B695B0001FA03F31A437B681A603B68E7
:101C70001B79012B03D03B681B79022B2ED17B688B
:101C80009A687B695B00032101FA03F3DB431A4086
:101C90007B689A607B689A683B685B7919467B69C8
:101CA0005B0001FA03F31A437B689A607B685A6809
:101CB0007B699BB2194601238B40DB431A407B684A
:101CC0005A607B685B683A68927911467A6992B289
:101CD00001FA02F292B21A437B685A607B68DA68B2
:101CE0007B699BB25B00032101FA03F3DB431A40DB
:101CF0007B68DA607B68DA683B68DB7919467B6968
:101D00005B0001FA03F31A437B68DA607B690133F5
:101D10007B617B690F2B85D900BF1C37BD4680BC1A
:101D2000704700BF80B485B000AF78600B467B8001
:101D300013467B700023FB600023BB607A787B88AE
:101D400003F007039B0002FA03F3FB607B88DB08C8
:101D50009BB218467B88DB089BB21A467B68083228
:101D600053F822207B8803F007039B000F2101FA20
:101D700003F3DB4302EA03017B6800F1080243F846
:101D800022107B88DB089BB21A467B68083253F826
:101D90002220FB681343BB607B88DB089BB21A469A
:101DA0007B680832B96843F8221000BF1437BD467B
:101DB00080BC704780B500AF124A124B1B6843F0DD
:101DC000010313600F4B00229A600E4A0D4B1B68F3
:101DD00023F0847323F4803313600A4B0A4A5A6059
:101DE000084A084B1B6823F480231360054B00222C
:101DF000DA6000F00DF8054B4FF000629A6000BF0A
:101E000080BD00BF003802401030002400ED00E02B
:101E100080B483B000AF00237B6000233B60354A71
:101E2000344B1B6843F480331360324B1B6803F45C
:101E300000333B607B6801337B603B68002B03D140
:101E40007B68B3F5A06FF0D12A4B1B6803F4003315
:101E5000002B02D001233B6001E000233B603B6884
:101E6000012B42D1234A234B1B6C43F08053136454
:101E7000214A214B1B6843F4804313601D4A1D4BCC
:101E80009B6893601B4A1B4B9B6843F40043936021
:101E9000184A184B9B6843F4A0539360154B174A9C
:101EA0005A60144A134B1B6843F08073136000BFE1
:101EB000104B1B6803F00073002BF9D0104B40F25D
:101EC00005621A600B4A0B4B9B6823F00303936077
:101ED000084A084B9B6843F00203936000BF054B20
:101EE0009B6803F00C03082BF9D100BF0C37BD46EB
:101EF00080BC704700380240007000400854400722
:101F0000003C024080B483B000AF78607B681B68FF
:101F100023F001027B681A607B6800221A607B68EC
:101F200000225A607B6800229A607B680022DA6097
:101F30007B6800221A617B6821225A617B68454ACE
:101F4000934203D1444B3D229A607EE07B68434A32
:101F5000934204D1404B4FF474629A6075E07B6801
:101F60003F4A934204D13C4B4FF474129A606CE0A8
:101F70007B683C4A934204D1374B4FF074629A60BD
:101F800063E07B68384A934203D1334B374ADA60C7
:101F90005BE07B68364A934203D12F4B354ADA60C7
:101FA00053E07B68344A934203D12B4B334ADA60C7
:101FB0004BE07B68324A934204D1274B4FF03D52AD
:101FC000DA6042E07B682F4A934203D12E4B3D22D8
:101FD0009A603AE07B682D4A934204D12A4B4FF431
:101FE00074629A6031E07B68294A934204D1264B9F
:101FF0004FF474129A6028E07B68264A934204D119
:10200000214B4FF074629A601FE07B68224A934232
:1020100003D11D4B154ADA6017E07B681F4A9342D3
:1020200003D1194B134ADA600FE07B681C4A9342D4
:1020300003D1154B114ADA6007E07B68194A9342D5
:1020400003D1114B4FF03D52DA6000BF0C37BD4653
:1020500080BC70471060024000600240286002406F
:102060004060024058600240706002403D00002025
:1020700088600240400F0020A060024000003D2028
:10208000B8600240106402400064024028640240CC
:102090004064024058640240706402408864024018
:1020A000A0640240B864024080B485B000AF78609C
:1020B00039600023FB607B681B68FB60FA68244B77
:1020C0001340FB603B681A683B68DB681A433B6857
:1020D0005B691A433B689B691A433B68DB691A4397
:1020E0003B681B6A1A433B685B6A1A433B689B6AFE
:1020F0001A433B685B6B1A433B689B6B1343FA685C
:102100001343FB607B68FA681A607B685B69FB605D
:10211000FB6823F00703FB603B68DA6A3B681B6BD4
:102120001343FA681343FB607B68FA685A613B68A3
:102130001A697B685A603B685A687B689A603B689A
:102140009A687B68DA6000BF1437BD4680BC704770
:102150003F801CF080B483B000AF78600B46FB700A
:10216000FB78002B06D07B681B6843F001027B687C
:102170001A6005E07B681B6823F001027B681A6027
:1021800000BF0C37BD4680BC704700BF80B485B02F
:1021900000AFF860B9601346FB71BB6803F08003C1
:1021A000002B0FD0FB79002B06D0FB685B6943F056
:1021B0008002FB685A6105E0FB685B6923F08002DE
:1021C000FB685A61BB68802B14D0FB79002B08D0C8
:1021D000FB681A68BB6803F01E031A43FB681A60A9
:1021E00008E0FB681A68BB6803F01E03DB431A4073
:1021F000FB681A6000BF1437BD4680BC704700BF43
:1022000080B487B000AF786039600023FB7500238D
:10221000FB600023BB607B68214A934202D8214BBC
:102220003B6101E0204B3B613B6823F0F02323F04E
:10223000C313002B0AD03B68DB0A03F01E03FB60CC
:102240007B681A68FB681340BB6004E07B685B69CD
:1022500003F08003BB603B6803F00053002B03D006
:102260003B695B68FB6002E03B691B68FB60FB68E5
:1022700023F0F02323F08213FB60FA683B681340DD
:10228000002B05D0BB68002B02D00123FB7501E0B9
:102290000023FB75FB7D18461C37BD4680BC70478C
:1022A0000F640240006002400064024080B485B0C8
:1022B00000AF786039607B68104A934202D8104BB7
:1022C000FB6001E00F4BFB603B6803F00053002B09
:1022D00007D03B6823F0F02323F08213FA68D36021
:1022E00006E03B6823F0F02323F08213FA68936042
:1022F00000BF1437BD4680BC704700BF0F6402406A
:10230000006002400064024080B582B000AF1B4B09
:1023100000221A80194B00225A60184B00229A6042
:102320000023BB8017E00023FB800DE0BA88134632
:102330009B0013449B011A44FB881344104A00215C
:10234000D154FB880133FB80FB88B3F5A07FEDD926
:10235000BB880133BB80BB88EF2BE4D900F05CF86D
:1023600000F0AEF800F03EF900F010F9054B1B68E4
:10237000024A936000BF0837BD4680BDAC0500200F
:10238000B80500208864024080B584B000AF0346E1
:10239000FB710023BB8112E00023FB8108E0FA7986
:1023A000B989FB89184600F011F8FB890133FB81DC
:1023B000FB89B3F5A07FF2D3BB890133BB81BB8915
:1023C000EF2BE9D900BF1037BD4680BD80B483B084
:1023D00000AF0346FB800B46BB801346FB70FB88B7
:1023E000B3F5A07F01D30023FB80BB88EF2B01D97D
:1023F0000023BB80BA8813469B0013449B011A44F8
:10240000FB8813440349FA78CA5400BF0C37BD4611
:1024100080BC7047B805002080B582B000AF0121B4
:102420001020FFF797FB4FF47F433B6001233B7184
:102430000023BB710123FB7103237B713B461946CB
:102440001D48FFF7E1FB1C4B4FF47F425A830121EB
:102450000220FFF77FFB4FF400633B6002233B71D8
:1024600003237B710023BB710123FB713B4619469B
:102470001248FFF7C9FB01220B211048FFF752FC5D
:1024800001210220FFF766FB4FF480533B600123DC
:102490003B710023BB710123FB7103237B713B461E
:1024A00019460648FFF7B0FB044B4FF480521A83DD
:1024B00000BF0837BD4680BD001002400004024046
:1024C00080B588B000AF01210120FFF77FFB0B230F
:1024D000BB610023BB820023BB830023FB8207F187
:1024E00014031946284800F0A9F901210120FFF73B
:1024F0004FFB40F66B23BB610023BB820023BB83F1
:102500000023FB8207F1140319464FF0804000F0CE
:1025100095F960233B8001237B804FF4D273BB602D
:102520000223BB813B4619464FF0804000F030FA51
:1025300008214FF0804000F017FB60233B8001230F
:102540007B804FF4A073BB600223BB813B461946DE
:102550004FF0804000F0A2FA08214FF0804000F0D8
:102560001FFB0121084800F0D3F901214FF0804002
:1025700000F0CEF901214FF0804000F0E9F900BFF2
:102580002037BD4680BD00BF0000014080B582B04D
:1025900000AF012210211248FFF7F8FD44233B71E0
:1025A00000237B710023BB710123FB713B1D184687
:1025B00000F0E4F8012208214FF0804000F00EFB0B
:1025C0001C233B7100237B710023BB710123FB7132
:1025D0003B1D184600F0D2F800BF0837BD4680BD4D
:1025E0008864024080B590B000AF01214FF48000B4
:1025F000FFF7B0FA00211B48FFF7ACFD1948FFF7C1
:1026000081FC4FF040637B60174BBB60174BFB6056
:1026100040233B6140F241137B610023BB614FF4D7
:102620008063FB6100233B6200237B620023BB626B
:102630004FF44033FB6200233B6301237B630023A1
:10264000BB630023FB633B1D19460648FFF72CFDC7
:1026500001224FF48071064800F0F4FA00BF4037C1
:10266000BD4680BD8864024015100240B8050020B8
:102670000000014080B500AF08214FF0804000F01D
:10268000D1FA264B1B8801339AB2244B1A80234B74
:102690001B88B3F5037F05D9204B00221A80204AFE
:1026A0001E4B5A601D4B1B88012B04D81D4B4FF449
:1026B00080525A8303E01B4B4FF480521A83174B0E
:1026C0001B88232B27D9154B1B8840F202229342EB
:1026D00021D8154A114B9B681360134A0F4B5B6856
:1026E000D360124A114B1B889BB243F001039BB28B
:1026F00013800D4A0C4B1B6843F001031360074B1A
:102700001B8803F00103002B05D0044B5B6803F228
:102710004113024A536000BF80BD00BFAC050020DA
:10272000B805002000040240886402400000014017
:1027300080B500AF0D490E48FFF762FD0346002B40
:1027400012D00A490A48FFF7B1FD0A4A094B1B8813
:102750009BB223F001039BB21380054B00221A6049
:10276000054B4FF47F425A8300BF80BD0088002094
:1027700088640240000001400010024080B485B02F
:1027800000AF78600023FB730023BB730F237B73C0
:102790007B68DB78002B38D0264BDB68DB4303F407
:1027A000E0631B0AFB73FB7BC3F10403BB737A7BFF
:1027B000FB7B42FA03F37B737B685B781A46BB7B37
:1027C00002FA03F3FB737B689A787B7B1340DAB2DF
:1027D000FB7B1343FB73FB7B1B01FB73164A7B687C
:1027E0001B781344FA7B83F80023134A7B681B7819
:1027F0005B09DBB218467B681B7803F01F030121DD
:1028000001FA03F342F820300FE00B497B681B7894
:102810005B09DBB218467B681B7803F01F030122BB
:102820009A4000F1200341F8232000BF1437BD4631
:1028300080BC704700ED00E000E100E080B485B0AE
:1028400000AF786039600023FB817B681B88FB81C7
:102850007B68284A934213D07B68274A93420FD063
:102860007B68B3F1804F0BD07B68244A934207D03A
:102870007B68234A934203D07B68224A934208D163
:10288000FB8923F07003FB813B685A88FB89134363
:10289000FB817B681C4A93420CD07B681B4A9342A5
:1028A00008D0FB8923F44073FB813B681A89FB89BC
:1028B0001343FB817B68FA891A803B685A687B68FE
:1028C000DA623B681A887B681A857B68094A9342FA
:1028D00003D07B68084A934204D13B689B7A9AB242
:1028E0007B681A867B6801229A8200BF1437BD4636
:1028F00080BC70470000014000040140000400401B
:1029000000080040000C004000100040001400408F
:1029100080B483B000AF78600B46FB70FB78002B6F
:1029200008D07B681B889BB243F080039AB27B6817
:102930001A8007E07B681B889BB223F080039AB261
:102940007B681A8000BF0C37BD4680BC704700BF53
:1029500080B483B000AF78600B46FB70FB78002B2F
:1029600008D07B681B889BB243F001039AB27B6856
:102970001A8007E07B681B889BB223F001039AB2A0
:102980007B681A8000BF0C37BD4680BC704700BF13
:1029900080B485B000AF7860396000237B8100236C
:1029A000FB810023BB817B681B8C9BB223F480736B
:1029B0009AB27B681A847B681B8CFB817B689B883E
:1029C000BB817B689B8B7B817B8923F070037B8140
:1029D0007B8923F003037B813B681A887B8913433F
:1029E0007B81FB8923F40073FB813B689B891B027D
:1029F0009AB2FB891343FB813B685B881B029AB246
:102A0000FB891343FB817B68224A934203D07B6896
:102A1000214A93422BD1FB8923F40063FB813B685D
:102A2000DB891B029AB2FB891343FB81FB8923F4E8
:102A30008063FB813B689B881B029AB2FB8913432E
:102A4000FB81BB8923F48053BB81BB8923F40053F2
:102A5000BB813B681B8A1B019AB2BB891343BB81B4
:102A60003B685B8A1B019AB2BB891343BB817B68BD
:102A7000BA899A807B687A899A833B689A687B686E
:102A8000DA637B68FA891A8400BF1437BD4680BCBC
:102A9000704700BF000001400004014080B485B0D1
:102AA00000AF786039600023BB8100237B81002365
:102AB000FB817B681B8C9BB223F480539AB27B68AA
:102AC0001A847B681B8C7B817B689B88FB817B687D
:102AD0009B8BBB81BB8923F4E043BB81BB8923F47F
:102AE0004073BB813B681B881B029AB2BB891343AE
:102AF000BB817B8923F400537B813B689B891B034B
:102B00009AB27B8913437B813B685B881B039AB233
:102B10007B8913437B817B68114A934203D07B6896
:102B2000104A93420AD1FB8923F48043FB813B681E
:102B30001B8A9B019AB2FB891343FB817B68FA894C
:102B40009A807B68BA899A833B689A687B681A6422
:102B50007B687A891A8400BF1437BD4680BC7047F1
:102B6000000001400004014080B485B000AF7860EF
:102B70000B467B800023FB817B689B8BFB81FB8961
:102B800023F00803FB81FA897B881343FB817B6870
:102B9000FA899A8300BF1437BD4680BC704700BFD6
:102BA00080B485B000AF78600B467B800023FB814A
:102BB0007B689B8BFB81FB8923F40063FB817B8813
:102BC0001B029AB2FB891343FB817B68FA899A83C3
:102BD00000BF1437BD4680BC704700BF80B483B0CF
:102BE00000AF78600B467B8013467B707B78002BB0
:102BF00008D07B689B899AB27B8813439AB27B6822
:102C00009A8109E07B689B899AB27B88DB439BB2FF
:102C100013409AB27B689A8100BF0C37BD4680BCD6
:102C2000704700BF80B483B000AF78600B467B80F4
:102C30007B88DB439AB27B681A8200BF0C37BD46A3
:102C400080BC704780B483B000AF78600B467B8057
:102C500013467B707B78002B08D07B689B899AB2E7
:102C60007B8813439AB27B689A8109E07B689B89D1
:102C70009AB27B88DB439BB213409AB27B689A81FD
:102C800000BF0C37BD4680BC704700BF80F00040DD
:102C900002E000BF81F0004142001FBF5FEA410334
:102CA00092EA030F7FEA226C7FEA236C6AD04FEA34
:102CB0001262D2EB1363C1BFD21841404840414079
:102CC000B8BF5B42192B88BF704710F0004F40F42B
:102CD000000020F07F4018BF404211F0004F41F447
:102CE000000121F07F4118BF494292EA030F3FD013
:102CF000A2F1010241FA03FC10EB0C00C3F1200326
:102D000001FA03F100F0004302D5494260EB4000B4
:102D1000B0F5000F13D3B0F1807F06D340084FEA1F
:102D2000310102F10102FE2A51D2B1F1004F40EB14
:102D3000C25008BF20F0010040EA0300704749007C
:102D400040EB000010F4000FA2F10102EDD1B0FA47
:102D500080FCACF1080CB2EB0C0200FA0CF0AABF3C
:102D600000EBC25052421843BCBFD04018437047DA
:102D700092F0000F81F4000106BF80F400000132E0
:102D8000013BB5E74FEA41037FEA226C18BF7FEAB7
:102D9000236C21D092EA030F04D092F0000F08BFF9
:102DA0000846704790EA010F1CBF0020704712F0E0
:102DB0007F4F04D1400028BF40F00040704712F11F
:102DC00000723CBF00F50000704700F0004343F084
:102DD000FE4040F4000070477FEA226216BF0846BA
:102DE0007FEA23630146420206BF5FEA412390EA7D
:102DF000010F40F4800070474FF0000304E000BF73
:102E000010F0004348BF40425FEA000C08BF704723
:102E100043F0964301464FF000001CE050EA0102E7
:102E200008BF70474FF000030AE000BF50EA0102FC
:102E300008BF704711F0004302D5404261EB4101E9
:102E40005FEA010C02BF84460146002043F0B6430E
:102E500008BFA3F18053A3F50003BCFA8CF2083A33
:102E6000A3EBC25310DB01FA02FC634400FA02FC3C
:102E7000C2F12002BCF1004F20FA02F243EB020043
:102E800008BF20F00100704702F1200201FA02FCA5
:102E9000C2F1200250EA4C0021FA02F243EB020098
:102EA00008BF20EADC7070474FF0FF0C1CEAD052DC
:102EB0001EBF1CEAD15392EA0C0F93EA0C0F6FD09D
:102EC0001A4480EA010C400218BF5FEA41211ED07B
:102ED0004FF0006343EA501043EA5111A0FB013167
:102EE0000CF00040B1F5000F3EBF490041EAD3713C
:102EF0005B0040EA010062F17F02FD2A1DD8B3F1B8
:102F0000004F40EBC25008BF20F00100704790F026
:102F1000000F0CF0004C08BF49024CEA502040EA78
:102F200051207F3AC2BFD2F1FF0340EAC25070473E
:102F300040F400004FF00003013A5DDC12F1190F7C
:102F4000DCBF00F000407047C2F10002410021FAEE
:102F500002F1C2F1200200FA02FC5FEA310040F106
:102F6000000053EA4C0308BF20EADC70704792F07F
:102F7000000F00F0004C02BF400010F4000F013AB7
:102F8000F9D040EA0C0093F0000F01F0004C02BFB2
:102F9000490011F4000F013BF9D041EA0C018FE721
:102FA0000CEAD15392EA0C0F18BF93EA0C0F0AD027
:102FB00030F0004C18BF31F0004CD8D180EA01004D
:102FC00000F00040704790F0000F17BF90F0004FE6
:102FD000084691F0000F91F0004F14D092EA0C0FC8
:102FE00001D142020FD193EA0C0F03D14B0218BF5B
:102FF000084608D180EA010000F0004040F0FE40A1
:1030000040F40000704740F0FE4040F4400070473C
:103010004FF0FF0C1CEAD0521EBF1CEAD15392EABB
:103020000C0F93EA0C0F69D0A2EB030280EA010CAB
:1030300049024FEA402037D04FF0805343EA111144
:1030400043EA10130CF000408B4238BF5B0042F1A2
:103050007D024FF4000C8B4224BF5B1A40EA0C0047
:10306000B3EB510F24BFA3EB510340EA5C00B3EB79
:10307000910F24BFA3EB910340EA9C00B3EBD10F67
:1030800024BFA3EBD10340EADC001B0118BF5FEAB9
:103090001C1CE0D1FD2A3FF650AF8B4240EBC250E2
:1030A00008BF20F0010070470CF0004C4CEA5020A3
:1030B0007F32C2BFD2F1FF0340EAC250704740F4F2
:1030C00000004FF00003013A37E792F0000F00F0E4
:1030D000004C02BF400010F4000F013AF9D040EA62
:1030E0000C0093F0000F01F0004C02BF490011F4F6
:1030F000000F013BF9D041EA0C0195E70CEAD153EE
:1031000092EA0C0F08D142027FF47DAF93EA0C0FD4
:103110007FF470AF084676E793EA0C0F04D14B02B8
:103120003FF44CAF08466EE730F0004C18BF31F06A
:10313000004CCAD130F000427FF45CAF31F0004364
:103140007FF43CAF5FE700BF4FF0FF3C06E000BFFD
:103150004FF0010C02E000BF4FF0010C4DF804CD20
:103160004FEA40024FEA41037FEA226C18BF7FEA30
:10317000236C11D001B052EA530C18BF90EA010F32
:1031800058BFB2EB030088BFC81738BF6FEAE170C1
:1031900018BF40F0010070477FEA226C02D15FEA5D
:1031A000402C05D17FEA236CE4D15FEA412CE1D0C9
:1031B0005DF8040B704700BF844608466146FFE790
:1031C0000FB5FFF7C9FF002848BF10F1000F0FBD72
:1031D0004DF808EDFFF7F4FF0CBF012000205DF86B
:1031E00008FB00BF4DF808EDFFF7EAFF34BF0120F0
:1031F00000205DF808FB00BF4DF808EDFFF7E0FF89
:1032000094BF012000205DF808FB00BF4DF808EDD9
:10321000FFF7D2FF94BF012000205DF808FB00BF3C
:103220004DF808EDFFF7C8FF34BF012000205DF81E
:1032300008FB00BF4FEA4002B2F1FE4F0FD34FF040
:103240009E03B3EB12620DD94FEA002343F0004313
:1032500010F0004F23FA02F018BF404270474FF0C1
:103260000000704712F1610F01D1420205D110F048
:10327000004008BF6FF0004070474FF000007047FB
:1032800042000ED2B2F1FE4F0BD34FF09E03B3EBD0
:10329000126209D44FEA002343F0004323FA02F0FC
:1032A00070474FF00000704712F1610F01D14202E8
:1032B00002D14FF0FF3070474FF00000704700BF61
:1032C0000A22002100F0F8BA70B4840746D0541ED8
:1032D000002A41D0CDB2034602E0621EE4B3144698
:1032E00003F8015B9A07F8D1032C2ED9CDB245EA39
:1032F00005250F2C45EA054519D903F1100226468C
:10330000103E0F2E42F8105C42F80C5C42F8085C4C
:1033100042F8045C02F11002F2D8A4F1100222F08B
:103320000F0204F00F041032032C13440DD91E4673
:103330002246043A032A46F8045BFAD8221F22F0F8
:1033400003020432134404F003042CB1C9B21C4438
:1033500003F8011BA342FBD170BC7047144603461F
:10336000C2E700BF000000000000000000000000F5
:10337000000000000000000000000000000000004D
:10338000A2EB0300704700BF02780B78012A28BF28
:103390009A42F5D16DE9044540EA0104CDE902679E
:1033A0006FF0000C4FEA447212B380EA010414F08B
:1033B000070F6AD100F0070420F0070004F00305AE
:1033C00021F007014FEAC505F0E8042314F0040FCB
:1033D000F1E804670CFA05F462EA040266EA0406FE
:1033E0000AD063EA0403624667EA0407664603E01C
:1033F000F0E80423F1E8046782FA4CF582EA060457
:10340000A4FA8CF46CBB83FA4CF583EA0705A5FAA1
:103410008CF595B950E9022351E9026782FA4CF51F
:1034200082EA0604A4FA8CF483FA4CF583EA0705D1
:10343000A5FA8CF52543DBD09CB92DBAB5FA85F4F5
:1034400024F0070427FA04F1DDE9026723FA04F304
:1034500003F0FF0001F0FF01FDE80445A0EB0100CF
:10346000704724BAB4FA84F424F0070426FA04F16D
:10347000DDE9026722FA04F202F0FF0001F0FF0129
:10348000FDE80445A0EB0100704714F0030F3CD1A8
:1034900010F0030428D150F8082B51F8083B82FAA9
:1034A0004CF582EA0305A5FA8CF55DB950F8042CB9
:1034B00051F8043C82FA4CF582EA0305A5FA8CF532
:1034C000002DE8D02DBAB5FA85F424F0070423FACC
:1034D00004F122FA04F202F0FF0001F0FF01FDE81E
:1034E0000445A0EB010070474FEAC40420F003003C
:1034F00050F8082B21F0030151F8083B0CFA04F4B2
:1035000062EA040263EA0403C9E710F003041AD074
:10351000A1EB040120F00300E40750F8042B06D0CF
:103520000FD28B785FFAA2F4E41A06D12BB1CB78D4
:103530005FFAB2F4E41A00D11BB920465DF8104BD3
:10354000704701F1040150F8042BCC0721F003016E
:1035500051F8043B48D824D222F07F4482FA4CF53B
:1035600094EA1325A5FA8CF50AD165B951F8043B04
:1035700084EA0204B4EB036F0ED150F8042BEBE79E
:103580004FEA132355E035F07F454DD10878FDE82B
:103590000445C0F1000070474FEA126203F0FF03D8
:1035A00047E002EA1C4482FA4CF594EA1345A5FA76
:1035B0008CF50AD165B951F8043B84EA0204B4EBF6
:1035C000034F0CD150F8042BEBE74FEA134330E0E4
:1035D00015EA1C4528D10B884FEA124229E04FEA30
:1035E000124203EA1C4324E002F0FF0482FA4CF585
:1035F00094EA1365A5FA8CF50AD165B951F8043B34
:1036000084EA0204B4EB032F09D150F8042BEBE752
:103610004FEA13630DE015F0FF0F05D10B684FEA79
:10362000122223F07F4304E04FF00000FDE8044540
:10363000704712BA1BBA82FA4CF482EA0304A4FA65
:103640008CF5B5FA85F402FA04F203FA04F34FEAB2
:103650001260FDE80445A0EB1360704780EA0102A8
:10366000844612F0030F4FD111F0030F32D14DF801
:10367000044D11F0040F51F8043B0BD0A3F10132BB
:103680009A4312F0803F04BF4CF8043B51F8043BCE
:1036900016D100BF51F8044BA3F101329A4312F046
:1036A000803FA4F101320BD14CF8043BA24312F04D
:1036B000803F04BF51F8043B4CF8044BEAD023464A
:1036C0000CF8013B13F0FF0F4FEA3323F8D15DF8FC
:1036D000044B704711F0010F06D011F8012B0CF8C4
:1036E000012B002A08BF704711F0020FBFD031F83C
:1036F000022B12F0FF0F16BF2CF8022B8CF80020C3
:1037000012F47F4FB3D1704711F8012B0CF8012B45
:10371000002AF9D1704700BF40EA01039B0770B44B
:103720002BD1032A29D90C460346214654F8046BB1
:10373000A6F1013525EA060515F0803F06D1043AC9
:10374000032A43F8046B2146EFD8A2B10C781C7011
:10375000013A013301313CB16AB111F8014B03F870
:10376000014B013A002CF7D12AB11A44002103F889
:10377000011B9A42FBD170BC70470346E5E700BFCE
:103780002DE9F84FDDF828900F46804616461D4675
:103790008B4600E0A3465C46484614F801AB00F0B7
:1037A000A1F85044417801F0080101F0FF0C002914
:1037B000F0D152462D2A61D02B2A04BF9BF801205C
:1037C0000BF10204002D43D0102D65D0A946BCF1A9
:1037D000000F0CBF6FF0004A4FF0004A0021BAFB07
:1037E000F9FE084609FB1EAA05E029D009FB0030B6
:1037F000012114F8012BA2F13003092B05D9A2F104
:103800004103192B0AD8A2F137039D420EDD4A1C51
:10381000EFD08645E9D24FF0FF31EAE7A2F161032C
:10382000192B03D8A2F157039D42F0DC4B1C15D095
:10383000BCF1000F10D14EB1E1B93760BDE8F88F8F
:103840009A45D3DA70464FF0FF31D2E7BDE8F88FE2
:10385000302A1AD00A25B9E74042ECE7BCF1000F44
:103860004FF022030CBF6FF000404FF00040C8F84B
:103870000030F6B1671E3760BDE8F88F0BF1020427
:103880009BF801204FF0010C9CE7237803F0DF0345
:10389000582B08D0082599E7302A97D1237803F0D0
:1038A000DF03582B92D14FF0100962784D46023455
:1038B0008DE7BDE8F88F00BF30B5084C084B256890
:1038C0006C6B83B0002C08BF1C46009413460A465C
:1038D00001462846FFF754FF03B030BD38040020EE
:1038E0003C040020D0F8EC00704700BF82B049B122
:1038F0005AB16BB113780B601278101C18BF0120FD
:1039000002B0704701A9002AF3D1104602B07047F7
:103910006FF00100F4E700BF21B1FF2A04D80A705C
:1039200001207047084670478A2303604FF0FF303C
:10393000704700BF626C617577000000726F6F6442
:10394000000000006765656C0000000067726F652D
:103950006E0000006C69636874726F6F6400000031
:103960006D6167656E7461006C696368746D616731
:10397000656E7461000000006C6963687467726F43
:10398000656E00006C69636874626C617577000035
:10399000637961616E0000006C69636874637961CA
:1039A000616E0000627275696E0000006772696A7C
:1039B00073000000776974007A7761727400000008
:1039C0006C696A6E00000000656C6C6970730000C1
:1039D00064726965686F656B0000000072656368FA
:1039E00074686F656B000000636C65617273636877
:1039F00065726D00776163687400000057726F6EC6
:103A00006720436F6D6D616E6420526563656976F2
:103A1000656400000D0A00004F7574204F66204257
:103A20006F756E647300000043000000504F5349EF
:103A300058000000000000002E00000000202020A0
:103A4000202020202020282828282820202020204E
:103A5000202020202020202020202020208810101E
:103A6000101010101010101010101010100404047A
:103A70000404040404040410101010101010414138
:103A80004141414101010101010101010101010126
:103A9000010101010101010110101010101042423A
:103AA00042424242020202020202020202020202F6
:103AB0000202020202020202101010102000000096
:103AC00000000000000000000000000000000000F6
:103AD00000000000000000000000000000000000E6
:103AE00000000000000000000000000000000000D6
:103AF00000000000000000000000000000000000C6
:103B000000000000000000000000000000000000B5
:103B100000000000000000000000000000000000A5
:103B20000000000000000000000000000000000095
:0D3B30000000000000000000000000000088
:103B3D000000000001020304010203040607080946
:103B4D0000000000FC02002064030020CC030020D4
:103B5D000000000000000000000000000000000058
:103B6D000000000000000000000000000000000048
:103B7D000000000000000000000000000000000038
:103B8D000000000000000000000000000000000028
:103B9D000000000000000000000000000000000018
:103BAD000000000000000000000000000000000008
:103BBD0000000000000000000000000000000000F8
:103BCD0000000000000000000000000000000000E8
:103BDD0000000000000000000000000000000000D8
:103BED0000000000000000000100000000000000C7
:103BFD000E33CDAB34126DE6ECDE05000B0000008C
:103C0D0000000000000000000000000000000000A7
:103C1D000000000000000000000000000000000097
:103C2D000000000000000000000000000000000087
:103C3D000000000000000000000000000000000077
:103F6D0000000000000000001000002043000000D1
:103F7D000000000000000000000000000000000034
:103F8D0000000000000000000000000043000000E1
:103F9D000000000000000000000000000000000014
:103FAD0000000000000000000000000043000000C1
:103FBD0000000000000000000000000000000000F4
:103FCD0000000000000000000000000043000000A1
:103FDD0000000000000000000000000000000000D4
:103FED000000000000000000000000004300000081
:103FFD0000000000000000000000000000000000B4
:10400D000000000000000000000000004300000060
:10401D000000000000000000000000000000000093
:10402D000000000000000000000000004300000040
:10403D000000000000000000000000000000000073
:10404D000000000000000000000000001939000809
:10405D00ED380008000000003C3A0008383A00082E
:10406D00343A0008343A0008343A0008343A00086B
:10407D00343A0008343A0008343A0008343A00085B
:10408D00343A0008FFFFFFFFFFFFFFFFFFFFFFFFB9
:10409D00FFFF0000010041534349490000000000AB
:1040AD000000000000000000000000000000000003
:1040BD00000000000000415343494900000000008A
:1040CD0000000000000000000000000000000000E3
:0840DD000000000000000000DB
:0400000508000000EF
:00000001FF
