:020000040800F2
:10000000B457012079120008D5120008D512000853
:10001000D5120008D5120008D51200080000000013
:10002000000000000000000000000000D5120008E1
:10003000D512000800000000D5120008D5120008F3
:10004000D5120008D5120008D5120008D5120008F4
:10005000D5120008D5120008D5120008D5120008E4
:10006000D5120008D5120008D5120008D5120008D4
:10007000D5120008D5120008D5120008D5120008C4
:10008000D5120008D5120008D5120008D5120008B4
:10009000D5120008D5120008D5120008D5120008A4
:1000A000D5120008D5120008D5120008D512000894
:1000B000292B0008D5120008D5120008D512000817
:1000C000D5120008D5120008D5120008D512000874
:1000D000D5120008D5120008312D0008D5120008ED
:1000E000D5120008D5120008D5120008D512000854
:1000F000D5120008D5120008D5120008D512000844
:10010000D5120008D5120008D5120008D512000833
:10011000D5120008D5120008D5120008D512000823
:10012000D5120008D5120008D5120008D512000813
:10013000D5120008D5120008D5120008D512000803
:10014000D5120008D5120008D5120008D5120008F3
:10015000E52B0008D5120008D5120008D5120008BA
:10016000D5120008D5120008D5120008D5120008D3
:10017000D5120008D5120008D5120008D5120008C3
:10018000D5120008D512000880B58AB000AF78609B
:10019000396000237B6200233B620023FB61002364
:1001A000BB617B681B8A9BB27B627B6A23F44053F2
:1001B0007B623B68DB881A467B6A13437B627B6AFF
:1001C0009AB27B681A827B689B899BB27B627B6A4E
:1001D00023F4B05323F00C037B623B689A883B689E
:1001E0001B8913439AB23B685B8913439BB21A463F
:1001F0007B6A13437B627B6A9AB27B689A817B68D5
:100200009B8A9BB27B627B6A23F440737B623B6870
:100210009B891A467B6A13437B627B6A9AB27B682E
:100220009A8207F10803184601F012FE7B68304AF3
:10023000934203D07B682F4A934202D17B693B6291
:1002400001E03B693B627B689B899BB21BB2002B40
:100250000CDA3A6A13469B0013449A001A443B682E
:100260001B685B00B2FBF3F3FB610BE03A6A1346D9
:100270009B0013449A001A443B681B689B00B2FB26
:10028000F3F3FB61FB691C4AA2FB03235B091B011F
:100290007B627B6A1B09642202FB03F3FA69D31AAF
:1002A000BB617B689B899BB21BB2002B0CDABB69DC
:1002B000DB003233104AA2FB03235B0903F0070380
:1002C0007A6A13437B620BE0BB691B0132330A4A33
:1002D000A2FB03235B0903F00F037A6A13437B62DB
:1002E0007B6A9AB27B681A8100BF2837BD4680BD01
:1002F00000100140001401401F85EB5180B483B011
:1003000000AF78600B46FB70FB78002B08D07B6851
:100310009B899BB243F400539AB27B689A8107E0B1
:100320007B689B899BB223F400539AB27B689A81C5
:1003300000BF0C37BD4680BC704700BF80B483B09F
:1003400000AF78600B467B807B88C3F308039AB2CA
:100350007B689A8000BF0C37BD4680BC704700BFE9
:1003600080B487B000AF78600B467B8013467B700B
:1003700000233B610023FB600023BB6000237B6103
:100380007B687B617B88DBB25B09DBB23B617B888E
:1003900003F01F03FB600122FB6802FA03F3BB605A
:1003A0003B69012B03D17B690C337B6109E03B691D
:1003B000022B03D17B6910337B6102E07B6914332C
:1003C0007B617B78002B06D07B697A691168BA68FB
:1003D0000A431A6006E07B697A691168BA68D243F9
:1003E0000A401A6000BF1C37BD4680BC704700BF82
:1003F00080B485B000AF78600B467B800023FB7330
:100400007B681B889AB27B8813409BB2002B02D07A
:100410000123FB7301E00023FB73FB7B18461437B9
:10042000BD4680BC704700BF80B487B000AF786025
:100430000B467B800023FB6000237B610023BB60B5
:100440000023FB747B88DBB25B09DBB2BB607B887B
:1004500003F01F037B6101227B6902FA03F37B61D6
:10046000BB68012B07D17B689B899BB21A467B69CD
:1004700013407B6111E0BB68022B07D17B681B8AAC
:100480009BB21A467B6913407B6106E07B689B8ABE
:100490009BB21A467B6913407B617B881B0A9BB227
:1004A000FB600122FB6802FA03F3FB607B681B8898
:1004B0009BB21A46FB681340FB607B69002B05D09A
:1004C000FB68002B02D00123FB7401E00023FB74C6
:1004D000FB7C18461C37BD4680BC704780B485B095
:1004E00000AF78600B467B800023FB810023BB813B
:1004F0007B881B0AFB81FB89012202FA03F3BB8183
:10050000BB89DB439AB27B681A8000BF1437BD46B3
:1005100080BC704780B584B000AF78604C49786883
:1005200004F0F2FF0346002B02D10323FB738AE0A1
:100530004849786804F0E8FF0346002B02D1E02325
:10054000FB7380E04449786804F0DEFF0346002B2B
:1005500002D1FC23FB7376E04049786804F0D4FFB5
:100560000346002B02D11C23FB736CE03C497868E6
:1005700004F0CAFF0346002B02D1F223FB7362E0B2
:100580003849786804F0C0FF0346002B02D1E3230A
:10059000FB7358E03449786804F0B6FF0346002B3B
:1005A00002D1F323FB734EE03049786804F0ACFFCE
:1005B0000346002B02D17E23FB7344E02C4978686C
:1005C00004F0A2FF0346002B02D16F23FB733AE035
:1005D0002849786804F098FF0346002B02D11F23B6
:1005E000FB7330E02449786804F08EFF0346002B4B
:1005F00002D19F23FB7326E02049786804F084FF32
:100600000346002B02D18823FB731CE01C49786849
:1006100004F07AFF0346002B02D19223FB7312E011
:100620001849786804F070FF0346002B02D1FF23BD
:10063000FB7308E01449786804F066FF0346002B5A
:1006400001D10023FB73FB7B18461037BD4680BDEC
:10065000B85B0008C05B0008C85B0008D05B0008FE
:10066000D85B0008E45B0008EC5B0008FC5B00085A
:10067000085C0008145C00081C5C0008285C00088A
:10068000305C0008385C00083C5C0008B0B58CB0F9
:1006900000AF0446084611461A462346FB8003462F
:1006A000BB800B467B8013463B807A88FB88D31A3D
:1006B000002BB8BF5B42184604F062FC03467B6126
:1006C0003A88BB88D31A002BB8BF5B42184604F0A7
:1006D00057FC03463B613969786904F059FD0346CC
:1006E000FB627969386904F053FD0346BB6200235D
:1006F000FB60FB88B3F5A07F09D87B88B3F5A07FAA
:1007000005D8BB88F02B02D83B88F02B03D90223F5
:10071000FB60FB68A0E07969386904F041FE03469C
:10072000002B08D0386904F045FE0346BB614FF04A
:100730007E53BB6207E0786904F03CFE0346BB6170
:100740004FF07E53FB627A88FB889A4203D2FB6AA1
:1007500083F00043FB623A88BB889A4203D2BB6AAB
:1007600083F00043BB6200233B6270E0B7F8403087
:100770005B427B6263E0B7F840305B42FB6156E06E
:10078000FB88184604F0FCFB0446F86904F0F8FB0B
:100790000346F96A184604F047FC0346194620460A
:1007A00004F03AFB03461C46386A04F0E9FB0346B2
:1007B000F96A184604F038FC03461946204604F04E
:1007C0002BFB0346184604F01BFE03469CB2BB8875
:1007D000184604F0D5FB0546786A04F0D1FB0346C1
:1007E000B96A184604F020FC03461946284604F06E
:1007F00013FB03461D46386A04F0C2FB0346B96A80
:10080000184604F011FC03461946284604F004FB80
:100810000346184604F0F4FD03469BB297F84420C3
:100820001946204601F0FAFFFB690133FB61B7F876
:100830004020FB699A42A3DC7B6A01337B62B7F8F4
:1008400040207B6A9A4296DC3B6A01333B623A6AFB
:10085000BB699A428ADBFB6818463037BD46B0BD9B
:1008600090B589B000AF0446084611461A462346A3
:10087000FB800346BB800B467B8013463B800023F6
:100880007B61FA887B881344B3F5A07F04DCBA88C7
:100890003B881344F02B03DD02237B617B6980E0FE
:1008A0003B885B42FB6177E07B885B42BB616CE02D
:1008B000BB69BA6902FB03F33A8802FB03F33A8887
:1008C00002FB03F2FB69F96901FB03F3798801FB81
:1008D00003F3798801FB03F313443B613B887A8877
:1008E00002FB03F37A88023A398801FB02F17A8825
:1008F00052008A1A02FB03F3FB603B883A8802FB32
:1009000003F37A8802FB03F37A8802FB03F23B6964
:100910009A4217DB3A69FB689A4213DB97F830304A
:10092000002B0FD0BB699AB2FB88134498B2FB69C5
:100930009AB2BB8813449BB297F83420194601F051
:100940006DFF1FE03B883A8802FB03F37A8802FBC5
:1009500003F37A8802FB03F23B699A4212DB97F8B1
:100960003030002B0ED1BB699AB2FB88134498B289
:10097000FB699AB2BB8813449BB297F8342019469E
:1009800001F04CFFBB690133BB617A88BB699A42B5
:100990008EDAFB690133FB613A88FB699A4283DA9C
:1009A0007B6918462437BD4690BD00BF90B58DB019
:1009B00002AF0446084611461A462346FB8003460A
:1009C000BB800B467B8013463B800123FB610123E8
:1009D000BB6100237B61FB88B3F5A07F09D87B88CE
:1009E000B3F5A07F05D8BB88F02B02D83B88F02B4D
:1009F00003D902237B617B697EE07A88FB88D31A66
:100A0000002BB8BF5B423B613A88BB88D31A002BEE
:100A1000B8BF5B42FB607A88FB889A4202D24FF0F3
:100A2000FF33FB613A88BB889A4202D24FF0FF3312
:100A3000BB61BC887A88B988F88897F84030019300
:100A4000BB8F00932346FFF721FE3C88FA88B988C4
:100A5000F88897F840300193BB8F00932346FFF747
:100A600015FE3C887A88B988788897F840300193D9
:100A7000BB8F00932346FFF709FE7B8801339AB2B0
:100A80003C883988F88897F840300193BB8F0093F1
:100A90002346FFF7FBFD3B8F012B2CD100237B620C
:100AA00025E000233B621BE07B6A9AB2FB699BB2A4
:100AB00012FB03F39AB2FB88134498B23B6A9AB2D2
:100AC000BB699BB212FB03F39AB2BB8813449BB27F
:100AD00097F84020194601F0A1FE3B6A01333B62C2
:100AE0003A6AFB689A42DFDB7B6A01337B627A6A8F
:100AF0003B699A42D5DB7B6918462C37BD4690BDD1
:100B00002DE9F04192B002AF0446084611461A465C
:100B10002346FB800346BB800B467B8013463B800D
:100B200000233B62FB88B3F5A07F12D87B88B3F526
:100B3000A07F0ED8B7F85830B3F5A07F09D8BB888E
:100B4000F02B06D83B88F02B03D8B7F85C30F02B9D
:100B500003D902233B623B6A42E13C887A88B98828
:100B6000F88897F864300193012300932346FFF738
:100B70008DFDB7F85C40B7F858203988788897F829
:100B800064300193012300932346FFF77FFDBC8867
:100B9000FA88B7F85C10B7F8580097F864300193FA
:100BA000012300932346FFF771FD97F86030012B76
:100BB00040F01581B7F85820FB88D31A002BB8BF36
:100BC0005B42184604F0DCF90346FB61B7F85C2091
:100BD000BB88D31A002BB8BF5B42184604F0D0F98B
:100BE0000346BB61B7F858207B88D31A002BB8BFE7
:100BF0005B42184604F0C4F903467B61B7F85C20F9
:100C00003B88D31A002BB8BF5B42184604F0B8F9F2
:100C100003463B61B969F86904F0BAFA0346FB631D
:100C20003969786904F0B4FA0346BB63F969B869B5
:100C300004F0AEFA03467B637969386904F0A8FAD8
:100C400003463B63F969B86904F0AAFB0346002B2D
:100C500008D0B86904F0AEFB0346BB624FF07E5388
:100C60007B6307E0F86904F0A5FB0346BB624FF025
:100C70007E53FB637969386904F092FB0346002BCD
:100C800008D0386904F096FB03467B624FF07E5330
:100C90003B6307E0786904F08DFB03467B624FF00D
:100CA0007E53BB63B7F85820FB889A4203D2FB6B94
:100CB00083F00043FB63B7F85C20BB889A4203D201
:100CC0007B6B83F000437B63B7F858207B889A42A4
:100CD00003D2BB6B83F00043BB63B7F85C203B8857
:100CE0009A4203D23B6B83F000433B637B6AFB6019
:100CF0007A6ABB6A9A4272DDBB6AFB604FF00003FE
:100D0000FB6261E0FB88184604F03AF90446F96B8F
:100D1000F86A04F089F903461946204604F07CF885
:100D20000346184604F06CFB03469CB2BB88184689
:100D300004F026F90546796BF86A04F075F9034664
:100D40001946284604F068F80346184604F058FB94
:100D500003469DB27B88184604F012F90646B96B2B
:100D6000F86A04F061F903461946304604F054F875
:100D70000346184604F044FB03469EB23B881846DF
:100D800004F0FEF88046396BF86A04F04DF903462A
:100D90001946404604F040F80346184604F030FB7C
:100DA00003469AB297F864300193012300931346E7
:100DB000324629462046FFF769FC4FF07E51F86A1B
:100DC00004F02AF80346FB62F86804F0D9F80346F9
:100DD000F96A184604F0E4FA0346002B92D13B6A04
:100DE00018464037BD46BDE8F08100BF80B586B0EB
:100DF00000AF0346FB800B46BB8013467B8000237D
:100E0000FB60FB88B3F5907F02D8BB88D02B03D959
:100E10000223FB60FB684EE100237B6146E1002377
:100E20003B613CE17B88052B00F2028101A252F874
:100E300023F000BF4D0E00089F0E0008F10E0008C1
:100E4000430F0008950F0008E30F00089C4A7B69D8
:100E50005B011A443B6913441B78492B00F00F8156
:100E6000974A7B695B011A443B6913441B78002B4A
:100E700000F005813B699AB2BB88134498B27B6944
:100E80009AB2FB88134499B28D4A7B695B011A447C
:100E90003B6913441B781A4601F0C0FCEFE0894A15
:100EA0007B695B011A443B6913441B78492B00F0B2
:100EB000E880844A7B695B011A443B6913441B78D0
:100EC000002B00F0DE803B699AB2BB88134498B2D5
:100ED0007B699AB2FB88134499B27A4A7B695B01B9
:100EE0001A443B6913441B781A4601F097FCC8E08A
:100EF000754A7B695B011A443B6913441B78492B93
:100F000000F0C180704A7B695B011A443B6913445D
:100F10001B78002B00F0B7803B699AB2BB88134462
:100F200098B27B699AB2FB88134499B2664A7B698E
:100F30005B011A443B6913441B781A4601F06EFCAE
:100F4000A1E0624A7B695B011A443B6913441B7848
:100F5000492B00F09A805D4A7B695B011A443B692A
:100F600013441B78002B00F090803B699AB2BB8839
:100F7000134498B27B699AB2FB88134499B2534ADE
:100F80007B695B011A443B6913441B781A4601F0E4
:100F900045FC7AE04E4A7B695B011A443B69134485
:100FA0001B78492B73D04A4A7B695B011A443B6921
:100FB00013441B78002B6AD03B699AB2BB88134458
:100FC00098B27B699AB2FB88134499B2404A7B6914
:100FD0005B011A443B6913441B781A4601F01EFC5E
:100FE00055E03C4A7B695B011A443B6913441B781A
:100FF000492B4ED0374A7B695B011A443B69134445
:101000001B78002B45D03B699AB2BB88134498B239
:101010007B699AB2FB88134499B22E4A7B695B01C3
:101020001A443B6913441B781A4601F0F7FB30E081
:10103000234A7B695B011A443B6913441B78492BA3
:1010400029D01F4A7B695B011A443B6913441B7812
:10105000002B20D03B699AB2BB88134498B27B69BD
:101060009AB2FB88134499B2154A7B695B011A4412
:101070003B6913441B781A4601F0D0FB0BE000BF1C
:101080000AE000BF08E000BF06E000BF04E000BFC8
:1010900002E000BF00E000BF3B6901333B613B69F8
:1010A0001F2B7FF7BFAE7B6901337B617B691F2BF1
:1010B0007FF7B5AEFB6818461837BD4680BD00BF48
:1010C000A4040020A4080020A40C0020A4100020E8
:1010D000A4140020A418002090B595B000AFBA6009
:1010E0007B600346FB810B46BB81B86804F0E8FBDC
:1010F0000346BB630023FB640023BB6400237B64C3
:1011000093E07B6CBA6813441B78203B7B6300231D
:101110003B6480E00023FB6377E0FA89FB6B1A44B1
:10112000FB6CDB001344B3F5A07F04DD0023FB64FC
:10113000BB6C0133BB6441497A6B13465B001344BB
:101140009B00CA183B6C13441B781C46FB6BC3F115
:101150000703184603F01CFB02460B464FF0000045
:101160004FF0804102F00AF902460B46104619463C
:1011700003F024FE034604EA0302FB6B9B0007F125
:1011800050010B4443F83C2CFB6B9B0007F15002D1
:10119000134453F83C2CFB6B9B0007F150010B44AC
:1011A00053F83C3C92FBF3F2FB6B9B0007F15001C0
:1011B0000B4443F83C2CFB6B9B0007F1500213449B
:1011C00053F83C3C002B1DDDFB6B9AB2FB891344AA
:1011D0009AB2FB6C9BB2DB009BB2134498B23B6C9F
:1011E0009AB2BB8913449AB2BB6C9BB219464900B0
:1011F0000B449B009BB213449BB297F860201946A6
:1012000001F00CFBFB6B0133FB63FB6B072B84DDF5
:101210003B6C01333B643B6C0B2B7FF77BAFFB6C70
:101220000133FB647B6C01337B647A6CBB6B9A4249
:10123000FFF667AF00BF5437BD4690BD00000020E9
:1012400080B582B000AF0346FB71FB79184601F010
:10125000C3FAFB7918460837BD4680BD80B582B019
:1012600000AF78607B68184601F042FC7B68184646
:101270000837BD4680BD00BF80B582B000AF104BBF
:101280007B60104B3B6007E03B681A1D3A607A6850
:10129000111D796012681A603B680B4A9342F3D3C0
:1012A0000A480B494FF000028842B8BF40F8042BAF
:1012B000FADB00F013F800BF0837BD4680BD00BF61
:1012C000E95D00080000002050220020502200208C
:1012D000B84F012080B400AFFEE700BFB0B5ADF558
:1012E000816D04AF00F08EFF01F036FA1C2001F092
:1012F00073FA01F0E7FB01F09BFC0023C7F8F4331D
:101300003B460121184601F085FD0023C7F8F03364
:101310000023C7F8F0331BE03A46D7F8F033134404
:101320001B782C2B0FD1D7F8F023394607F54873DB
:10133000184604F033FB07F54872D7F8F03313442E
:1013400000221A7008E0D7F8F0330133C7F8F03301
:10135000D7F8F033632BDFDD07F54873E249184611
:1013600004F0D2F80346002B40F0BB800023C7F8FE
:10137000E8330023C7F8E4330023C7F8EC33A9E0CF
:101380003A46D7F8EC3313441B782C2B4FD1D7F8BF
:10139000E4330133C7F8E433D7F8E433023B042BDA
:1013A00039D801A252F823F0BD130008CF1300086A
:1013B000E1130008F31300080514000807F5437350
:1013C000184604F03DF80346A7F8E23324E007F599
:1013D0004373184604F034F80346A7F8E0331BE0E3
:1013E00007F54373184604F02BF80346A7F8DE33DD
:1013F00012E007F54373184604F022F80346A7F8F5
:10140000DC3309E007F54373184604F019F8034686
:1014100087F8DB3300E000BF0023C7F8E83307F5A7
:10142000437314220021184604F014F84DE03A46A4
:10143000D7F8EC3313441B78002B31D1D7F8E433C1
:10144000062B2DD107F5437207F53E73114618465A
:1014500004F0C4F907F53E731846FFF75BF8C7F8C8
:10146000340397F8DB339BB2D7F83423D2B2B7F802
:10147000DC53B7F8DE43B7F8E013B7F8E2030192A4
:1014800000932B462246FFF701F9C7F8F40307F54E
:10149000437314220021184603F0DCFF00F0B7BCB0
:1014A000D7F8E433002B10DD3A46D7F8EC33134479
:1014B000197807F54372D7F8E83313440A461A70CF
:1014C000D7F8E8330133C7F8E833D7F8EC33013302
:1014D000C7F8EC33D7F8EC33632B7FF751AF00F04C
:1014E00096BC07F548738149184604F00DF8034689
:1014F000002B40F0B8800023C7F8D0330023C7F892
:10150000CC330023C7F8D433A7E03A46D7F8D43316
:1015100013441B782C2B50D1D7F8CC330133C7F8A8
:10152000CC33D7F8CC33023B042B3AD801A252F883
:1015300023F000BF491500085B1500086D15000871
:101540007F1500089115000807F53973184603F058
:1015500077FF0346A7F8CA3324E007F53973184626
:1015600003F06EFF0346A7F8C8331BE007F5397395
:10157000184603F065FF0346A7F8C63312E007F5E7
:101580003973184603F05CFF0346A7F8C43309E03B
:1015900007F53973184603F053FF034687F8C33342
:1015A00000E000BF0023C7F8D03307F539731422D9
:1015B0000021184603F04EFF4AE03A46D7F8D433EC
:1015C00013441B78002B2ED1D7F8CC33062B2AD10D
:1015D00007F5397207F534731146184604F0FEF822
:1015E00007F534731846FEF795FFC7F84C03D7F894
:1015F0004C33DBB2B7F8C443B7F8C623B7F8C81307
:10160000B7F8CA03019397F8C33300932346FFF753
:1016100027F9C7F8F40307F5397314220021184697
:1016200003F018FFF3E3D7F8CC33002B10DD3A4674
:10163000D7F8D4331344197807F53972D7F8D03373
:1016400013440A461A70D7F8D0330133C7F8D033A1
:10165000D7F8D4330133C7F8D433D7F8D433632B56
:101660007FF753AFD3E307F548732149184603F0DA
:101670004BFF0346002B40F0DC800023C7F8B83353
:101680000023C7F8B4330023C7F8BC33CBE03A4695
:10169000D7F8BC3313441B782C2B6CD1D7F8B43358
:1016A0000133C7F8B433D7F8B433023B062B56D80E
:1016B00001A252F823F000BFD5160008F516000865
:1016C00007170008191700082B1700083D17000816
:1016D0004F17000807F52F73184603F0B1FE0346B5
:1016E000A7F8B2333CE000BF445C00084C5C000843
:1016F000545C000807F52F73184603F0A1FE03465B
:10170000A7F8B0332CE007F52F73184603F098FEC6
:101710000346A7F8AE3323E007F52F73184603F00E
:101720008FFE0346A7F8AC331AE007F52F7318466F
:1017300003F086FE0346A7F8AA3311E007F52F73DE
:10174000184603F07DFE0346A7F8A83308E007F526
:101750002F73184603F074FEC7F8A40300E000BF1F
:101760000023C7F8B83307F52F7314220021184659
:1017700003F070FE52E03A46D7F8BC3313441B78AE
:10178000002B36D1D7F8B433082B32D107F52F729E
:1017900007F52A731146184604F020F807F52A7356
:1017A0001846FEF7B7FEC7F84803D7F8A433DBB2F4
:1017B000D7F84823D2B2B7F8AC53B7F8AE43B7F86E
:1017C000B013B7F8B20303920293B7F8A8330193AA
:1017D000B7F8AA3300932B462246FFF791F9C7F8D2
:1017E000F40307F52F7314220021184603F032FE8C
:1017F0000DE3D7F8B433002B10DD3A46D7F8BC33ED
:101800001344197807F52F72D7F8B83313440A46F2
:101810001A70D7F8B8330133C7F8B833D7F8BC33E8
:101820000133C7F8BC33D7F8BC33632B7FF72FAF36
:10183000EDE207F54873DE49184603F065FE0346FE
:10184000002B40F0BA800023C7F89C330023C7F870
:1018500098330023C7F8A033A9E03A46D7F8A0335D
:1018600013441B782C2B50D1D7F898330133C7F889
:101870009833D7F89833023B042B3AD801A252F898
:1018800023F000BF99180008AB180008BD18000825
:10189000CF180008E118000807F52573184603F073
:1018A000CFFD0346A7F8963324E007F525731846C5
:1018B00003F0C6FD0346A7F894331BE007F5257334
:1018C000184603F0BDFD0346A7F8923312E007F572
:1018D0002573184603F0B4FD0346A7F8903309E0DA
:1018E00007F52573184603F0ABFD0346A7F88E33C2
:1018F00000E000BF0023C7F89C3307F525731422CE
:101900000021184603F0A6FD4CE03A46D7F8A03374
:1019100013441B78002B30D1D7F89833062B2CD1E9
:1019200007F5257207F520731146184603F056FF98
:1019300007F520731846FEF7EDFDC7F84403D7F806
:101940004433DBB2B7F89043B7F89223B7F8941357
:10195000B7F89603029301230193B7F88E330093EF
:101960002346FFF723F8C7F8F40307F5257314227D
:101970000021184603F06EFD49E2D7F89833002B9A
:1019800010DD3A46D7F8A0331344197807F52572CD
:10199000D7F89C3313440A461A70D7F89C330133A6
:1019A000C7F89C33D7F8A0330133C7F8A033D7F872
:1019B000A033632B7FF751AF29E207F548737D49C8
:1019C000184603F0A1FD0346002B7ED10023C7F883
:1019D00084330023C7F880330023C7F888336FE0CF
:1019E0003A46D7F8883313441B782C2B28D1D7F8E4
:1019F00080330133C7F88033D7F88033022B02D00D
:101A0000032B09D011E007F51B73184603F018FDEE
:101A10000346A7F87C3308E007F51B73184603F06C
:101A20000FFD0346A7F87E3300BF0023C7F88433B9
:101A300007F51B7314220021184603F00BFD3AE052
:101A40003A46D7F8883313441B78002B1ED1D7F8B9
:101A50008033032B1AD107F51B73184603F0F0FCF3
:101A60000346A7F84233B7F87C23B7F84213B7F818
:101A70007E331846FFF7BAF9C7F8F40307F51B736E
:101A800014220021184603F0E5FCC0E1D7F88033AA
:101A9000002B10DD3A46D7F888331344197807F540
:101AA0001B72D7F8843313440A461A70D7F884336C
:101AB0000133C7F88433D7F888330133C7F8883344
:101AC000D7F88833632B8BDDA1E107F548733A49DA
:101AD000184603F019FD0346002B40F0BD8000239B
:101AE000C7F874330023C7F870330023C7F878337E
:101AF000ACE03A46D7F8783313441B782C2B5DD1F1
:101B0000D7F870330133C7F87033D7F87033023B1E
:101B1000042B40D801A252F823F000BF311B00086B
:101B2000431B0008551B0008671B0008871B0008A3
:101B300007F16403184603F083FC0346A7F86E33ED
:101B40002AE007F16403184603F07AFC0346A7F87D
:101B50006C3321E007F1640207F5967311461846CD
:101B600003F03CFE18E007F1640207F50C73114620
:101B7000184603F033FE07F50C731846FEF7CAFC4F
:101B8000C7F8680308E007F1640207F51673114609
:101B9000184603F023FE00BF0023C7F8743307F193
:101BA0006403C8220021184603F054FC49E000BF3A
:101BB000605C00086C5C0008745C00083A46D7F86A
:101BC000783313441B78002B26D1D7F87033062BBB
:101BD00022D107F1640207F511731146184603F08C
:101BE000FDFDD7F86833DBB207F5167507F5967477
:101BF000B7F86C13B7F86E0307F5117201920093F2
:101C00002B462246FFF768FA07F16403C822002139
:101C1000184603F01FFCFAE0D7F87033002B10DDF4
:101C20003A46D7F878331344197807F16402D7F8A5
:101C3000743313440A461A70D7F874330133C7F863
:101C40007433D7F878330133C7F87833D7F878335B
:101C5000632B7FF74EAFDAE007F5487377491846F4
:101C600003F052FC0346002B67D10023C7F8603312
:101C70000023C7F85C330023C7F8643358E03A46C2
:101C8000D7F8643313441B782C2B0FD1D7F85C336F
:101C90000133C7F85C330023C7F8603307F50773D7
:101CA00014220021184603F0D5FB3CE03A46D7F851
:101CB000643313441B78002B20D1D7F85C33012BFD
:101CC0001CD107F5077207F502731146184603F099
:101CD00085FD07F502731846FEF71CFCC7F83C03A8
:101CE000D7F83C33DBB21846FFF7AAFA07F50773BB
:101CF00014220021184603F0ADFB88E0D7F85C33CE
:101D0000002B10DD3A46D7F864331344197807F5F1
:101D10000772D7F8603313440A461A70D7F8603355
:101D20000133C7F86033D7F864330133C7F864333D
:101D3000D7F86433632BA2DD69E007F548734049A7
:101D4000184603F0E1FB0346002B5DD10023C7F8E2
:101D500054330023C7F850330023C7F858334EE0FC
:101D60003A46D7F8583313441B782C2B0FD1D7F8A9
:101D700050330133C7F850330023C7F8543307F505
:101D8000FA7314220021184603F064FB32E03A464D
:101D9000D7F8583313441B78002B16D1D7F850339B
:101DA000012B12D107F5FA73184603F049FBC7F867
:101DB0003803D7F83803FFF751FA07F5FA731422FE
:101DC0000021184603F046FB21E0D7F85033002BE2
:101DD00010DD3A46D7F858331344197807F5FA72EC
:101DE000D7F8543313440A461A70D7F854330133E2
:101DF000C7F85433D7F858330133C7F85833D7F8F6
:101E00005833632BACDD02E00123C7F8F433D7F875
:101E1000F433012B02D0022B07D00DE0094800F06B
:101E20006BFF094800F068FF06E0084800F064FF17
:101E3000054800F061FF00BFFFF75FBA7C5C000857
:101E4000885C0008905C0008A85C0008AC5C000896
:101E500080B489B000AF78600023BB6100237B6150
:101E60000023FB6102233B610023FB600223BB6074
:101E7000484B9B6803F00C03BB61BB69042B07D084
:101E8000082B09D0002B3FD17B68434A1A603FE002
:101E90007B68424A1A603BE03E4B5B6803F4800378
:101EA0009B0DFB603B4B5B6803F03F03BB60FB6833
:101EB000002B0DD0394ABB68B2FBF3F2354B5968A1
:101EC00047F6C0730B409B0903FB02F3FB610CE078
:101ED000314ABB68B2FBF3F22E4B596847F6C07328
:101EE0000B409B0903FB02F3FB612A4B5B6803F485
:101EF00040331B0C01335B003B61FA693B69B2FB69
:101F0000F3F27B681A6003E07B68234A1A6000BF23
:101F1000204B9B6803F0F003BB61BB691B09BB61ED
:101F20001F4ABB6913441B78DBB27B617B681A686C
:101F30007B69DA407B685A60164B9B6803F4E05378
:101F4000BB61BB699B0ABB61154ABB6913441B7823
:101F5000DBB27B617B685A687B69DA407B689A6098
:101F60000C4B9B6803F46043BB61BB695B0BBB61BB
:101F70000B4ABB6913441B78DBB27B617B685A68F0
:101F80007B69DA407B68DA6000BF2437BD4680BCDD
:101F9000704700BF003802400024F40000127A00AD
:101FA000A41C002080B483B000AF78600B46FB70A7
:101FB000FB78002B06D00949084B1A6B7B6813434A
:101FC0000B6306E00549054B1A6B7B68DB43134046
:101FD0000B6300BF0C37BD4680BC70470038024021
:101FE00080B483B000AF78600B46FB70FB78002BA9
:101FF00006D00949084B1A6C7B6813430B6406E052
:102000000549054B1A6C7B68DB4313400B6400BF2A
:102010000C37BD4680BC70470038024080B483B0A6
:1020200000AF78600B46FB70FB78002B06D00949A7
:10203000084B5A6C7B6813434B6406E00549054B1B
:102040005A6C7B68DB4313404B6400BF0C37BD46C2
:1020500080BC70470038024080B487B000AF786021
:10206000396000237B6100233B610023FB60002378
:102070007B6176E001227B6902FA03F33B613B68F6
:102080001A683B691340FB60FA683B699A4265D164
:102090007B681A687B695B00032101FA03F3DB4369
:1020A0001A407B681A607B681A683B681B7919467E
:1020B0007B695B0001FA03F31A437B681A603B6893
:1020C0001B79012B03D03B681B79022B2ED17B6837
:1020D0009A687B695B00032101FA03F3DB431A4032
:1020E0007B689A607B689A683B685B7919467B6974
:1020F0005B0001FA03F31A437B689A607B685A68B5
:102100007B699BB2194601238B40DB431A407B68F5
:102110005A607B685B683A68927911467A6992B234
:1021200001FA02F292B21A437B685A607B68DA685D
:102130007B699BB25B00032101FA03F3DB431A4086
:102140007B68DA607B68DA683B68DB7919467B6913
:102150005B0001FA03F31A437B68DA607B690133A1
:102160007B617B690F2B85D900BF1C37BD4680BCC6
:10217000704700BF80B485B000AF78600B467B80AD
:1021800013467B700023FB600023BB607A787B885A
:1021900003F007039B0002FA03F3FB607B88DB0874
:1021A0009BB218467B88DB089BB21A467B680832D4
:1021B00053F822207B8803F007039B000F2101FACC
:1021C00003F3DB4302EA03017B6800F1080243F8F2
:1021D00022107B88DB089BB21A467B68083253F8D2
:1021E0002220FB681343BB607B88DB089BB21A4646
:1021F0007B680832B96843F8221000BF1437BD4627
:1022000080BC704780B500AF124A124B1B6843F088
:10221000010313600F4B00229A600E4A0D4B1B689E
:1022200023F0847323F4803313600A4B0A4A5A6004
:10223000084A084B1B6823F480231360054B0022D7
:10224000DA6000F00DF8054B4FF000629A6000BFB5
:1022500080BD00BF003802401030002400ED00E0D7
:1022600080B483B000AF00237B6000233B60354A1D
:10227000344B1B6843F480331360324B1B6803F408
:1022800000333B607B6801337B603B68002B03D1EC
:102290007B68B3F5A06FF0D12A4B1B6803F40033C1
:1022A000002B02D001233B6001E000233B603B6830
:1022B000012B42D1234A234B1B6C43F08053136400
:1022C000214A214B1B6843F4804313601D4A1D4B78
:1022D0009B6893601B4A1B4B9B6843F400439360CD
:1022E000184A184B9B6843F4A0539360154B174A48
:1022F0005A60144A134B1B6843F08073136000BF8D
:10230000104B1B6803F00073002BF9D0104B40F208
:1023100005621A600B4A0B4B9B6823F00303936022
:10232000084A084B9B6843F00203936000BF054BCB
:102330009B6803F00C03082BF9D100BF0C37BD4696
:1023400080BC7047003802400070004008544007CD
:10235000003C024080B483B000AF78607B681B68AB
:1023600023F001027B681A607B6800221A607B6898
:1023700000225A607B6800229A607B680022DA6043
:102380007B6800221A617B6821225A617B68454A7A
:10239000934203D1444B3D229A607EE07B68434ADE
:1023A000934204D1404B4FF474629A6075E07B68AD
:1023B0003F4A934204D13C4B4FF474129A606CE054
:1023C0007B683C4A934204D1374B4FF074629A6069
:1023D00063E07B68384A934203D1334B374ADA6073
:1023E0005BE07B68364A934203D12F4B354ADA6073
:1023F00053E07B68344A934203D12B4B334ADA6073
:102400004BE07B68324A934204D1274B4FF03D5258
:10241000DA6042E07B682F4A934203D12E4B3D2283
:102420009A603AE07B682D4A934204D12A4B4FF4DC
:1024300074629A6031E07B68294A934204D1264B4A
:102440004FF474129A6028E07B68264A934204D1C4
:10245000214B4FF074629A601FE07B68224A9342DE
:1024600003D11D4B154ADA6017E07B681F4A93427F
:1024700003D1194B134ADA600FE07B681C4A934280
:1024800003D1154B114ADA6007E07B68194A934281
:1024900003D1114B4FF03D52DA6000BF0C37BD46FF
:1024A00080BC70471060024000600240286002401B
:1024B0004060024058600240706002403D000020D1
:1024C00088600240400F0020A060024000003D20D4
:1024D000B860024010640240006402402864024078
:1024E00040640240586402407064024088640240C4
:1024F000A0640240B864024080B485B000AF786048
:1025000039600023FB607B681B68FB60FA68244B22
:102510001340FB603B681A683B68DB681A433B6802
:102520005B691A433B689B691A433B68DB691A4342
:102530003B681B6A1A433B685B6A1A433B689B6AA9
:102540001A433B685B6B1A433B689B6B1343FA6807
:102550001343FB607B68FA681A607B685B69FB6009
:10256000FB6823F00703FB603B68DA6A3B681B6B80
:102570001343FA681343FB607B68FA685A613B684F
:102580001A697B685A603B685A687B689A603B6846
:102590009A687B68DA6000BF1437BD4680BC70471C
:1025A0003F801CF080B483B000AF78600B46FB70B6
:1025B000FB78002B06D07B681B6843F001027B6828
:1025C0001A6005E07B681B6823F001027B681A60D3
:1025D00000BF0C37BD4680BC704700BF80B485B0DB
:1025E00000AFF860B9601346FB71BB6803F080036D
:1025F000002B0FD0FB79002B06D0FB685B6943F002
:102600008002FB685A6105E0FB685B6923F0800289
:10261000FB685A61BB68802B14D0FB79002B08D073
:10262000FB681A68BB6803F01E031A43FB681A6054
:1026300008E0FB681A68BB6803F01E03DB431A401E
:10264000FB681A6000BF1437BD4680BC704700BFEE
:1026500080B487B000AF786039600023FB75002339
:10266000FB600023BB607B68214A934202D8214B68
:102670003B6101E0204B3B613B6823F0F02323F0FA
:10268000C313002B0AD03B68DB0A03F01E03FB6078
:102690007B681A68FB681340BB6004E07B685B6979
:1026A00003F08003BB603B6803F00053002B03D0B2
:1026B0003B695B68FB6002E03B691B68FB60FB6891
:1026C00023F0F02323F08213FB60FA683B68134089
:1026D000002B05D0BB68002B02D00123FB7501E065
:1026E0000023FB75FB7D18461C37BD4680BC704738
:1026F0000F640240006002400064024080B485B074
:1027000000AF786039607B68104A934202D8104B62
:10271000FB6001E00F4BFB603B6803F00053002BB4
:1027200007D03B6823F0F02323F08213FA68D360CC
:1027300006E03B6823F0F02323F08213FA689360ED
:1027400000BF1437BD4680BC704700BF0F64024015
:10275000006002400064024080B582B000AF1B4BB5
:1027600000221A80194B00225A60184B00229A60EE
:102770000023BB8017E00023FB800DE0BA881346DE
:102780009B0013449B011A44FB881344104A002108
:10279000D154FB880133FB80FB88B3F5A07FEDD9D2
:1027A000BB880133BB80BB88EF2BE4D900F05CF819
:1027B00000F0AEF800F03EF900F010F9054B1B6890
:1027C000024A936000BF0837BD4680BD54220020F6
:1027D000602200208864024080B584B000AF0346C8
:1027E000FB710023BB8112E00023FB8108E0FA7932
:1027F000B989FB89184600F011F8FB890133FB8188
:10280000FB89B3F5A07FF2D3BB890133BB81BB89C0
:10281000EF2BE9D900BF1037BD4680BD80B483B02F
:1028200000AF0346FB800B46BB801346FB70FB8862
:10283000B3F5A07F01D30023FB80BB88EF2B01D928
:102840000023BB80BA8813469B0013449B011A44A3
:10285000FB8813440349FA78CA5400BF0C37BD46BD
:1028600080BC70476022002080B582B000AF01219B
:102870001020FFF797FB4FF47F433B6001233B7130
:102880000023BB710123FB7103237B713B46194677
:102890001D48FFF7E1FB1C4B4FF47F425A83012197
:1028A0000220FFF77FFB4FF400633B6002233B7184
:1028B00003237B710023BB710123FB713B46194647
:1028C0001248FFF7C9FB01220B211048FFF752FC09
:1028D00001210220FFF766FB4FF480533B60012388
:1028E0003B710023BB710123FB7103237B713B46CA
:1028F00019460648FFF7B0FB044B4FF480521A8389
:1029000000BF0837BD4680BD0010024000040240F1
:1029100080B588B000AF01210120FFF77FFB0B23BA
:10292000BB610023BB820023BB830023FB8207F132
:1029300014031946284800F0F9FA01210120FFF795
:102940004FFB40F66B23BB610023BB820023BB839C
:102950000023FB8207F1140319464FF0804000F07A
:10296000E5FA60233B8001237B804FF4D273BB6088
:102970000223BB813B4619464FF0804000F080FBAC
:1029800008214FF0804000F067FC60233B8001236A
:102990007B804FF4A073BB600223BB813B4619468A
:1029A0004FF0804000F0F2FB08214FF0804000F033
:1029B0006FFC0121084800F023FB01214FF080400B
:1029C00000F01EFB01214FF0804000F039FB00BFFA
:1029D0002037BD4680BD00BF0000014080B582B0F9
:1029E00000AF012210211248FFF7F8FD44233B718C
:1029F00000237B710023BB710123FB713B1D184633
:102A000000F034FA012208214FF0804000F05EFC13
:102A10001C233B7100237B710023BB710123FB71DD
:102A20003B1D184600F022FA00BF0837BD4680BDA6
:102A30008864024080B590B000AF01214FF480005F
:102A4000FFF7B0FA00211B48FFF7ACFD1948FFF76C
:102A500081FC4FF040637B60174BBB60174BFB6002
:102A600040233B6140F241137B610023BB614FF483
:102A70008063FB6100233B6200237B620023BB6217
:102A80004FF44033FB6200233B6301237B6300234D
:102A9000BB630023FB633B1D19460648FFF72CFD73
:102AA00001224FF48071064800F044FC00BF40371B
:102AB000BD4680BD8864024015100240602200209F
:102AC0000000014080B584B000AF3B461846FFF7D8
:102AD000BFF97B68044AA2FB03231B0D034A136062
:102AE00000BF1037BD4680BD83DE1B43B44F0120BD
:102AF00080B483B000AF78600A4B1B687A6802FB31
:102B000003F34FF47A7202FB03F30A3B7B6000BFCE
:102B10007B685A1E7A60002BFAD100BF0C37BD4685
:102B200080BC7047B44F012080B500AF08214FF042
:102B3000804000F0EFFB264B1B8801339AB2244BF8
:102B40001A80234B1B88B3F5037F05D9204B002245
:102B50001A80204A1E4B5A601D4B1B88012B04D83B
:102B60001D4B4FF480525A8303E01B4B4FF48052AD
:102B70001A83174B1B88232B27D9154B1B8840F230
:102B80000222934221D8154A114B9B681360134AC5
:102B90000F4B5B68D360124A114B1B889BB243F00A
:102BA00001039BB213800D4A0C4B1B6843F00103D9
:102BB0001360074B1B8803F00103002B05D0044B67
:102BC0005B6803F24113024A536000BF80BD00BF3F
:102BD0005422002060220020000402408864024049
:102BE0000000014080B500AF0D490E48FFF730FDF1
:102BF0000346002B12D00A490A48FFF77FFD0A4A14
:102C0000094B1B889BB223F001039BB21380054B39
:102C100000221A60054B4FF47F425A8300BF80BDEB
:102C2000008800208864024000000140001002403B
:102C300080B586B000AF01214FF40030FFF7D0F926
:102C400001210120FFF7AEF90C233B6102233B7504
:102C50000023BB750123FB7502237B7507F110036D
:102C600019461648FFF7F8F9072202211348FFF723
:102C700081FA072203211148FFF77CFA4FF4E13370
:102C80003B600023BB800023FB8000233B810023AB
:102C9000BB810C237B813B4619460948FDF774FA3A
:102CA000012240F225510648FDF75AFB0121044854
:102CB000FDF724FB00BF1837BD4680BD0000024071
:102CC0000044004080B582B000AF0346FB7100BFF6
:102CD00080210848FDF78CFB0346002BF8D0FB79D8
:102CE0009BB219460348FDF729FB00BF0837BD46D4
:102CF00080BD00BF0044004080B584B000AF786064
:102D00000023FB6009E0FB687A6813441B781846CF
:102D1000FFF7D8FFFB680133FB60FB687A68134458
:102D20001B78002BEFD100BF1037BD4680BD00BF20
:102D300080B582B000AF40F225512748FDF774FB03
:102D40000346002B44D040F225512348FDF7C6FB33
:102D5000214B9B889BB2FB70FB78402B05D9FB78FD
:102D60005A2B02D8FB782033FB70FB780D2B1DD833
:102D700000237B600BE0194A7B6813441B789BB2ED
:102D800019461548FDF7DAFA7B6801337B60144B6E
:102D90001B687A689A42EEDB114B00221A60FB78BE
:102DA0009BB219460C48FDF7C9FA09E00C4B1B68A9
:102DB0000A49FA78CA540A4B1B680133084A13605F
:102DC00000BF40210448FDF713FB0346002BF8D059
:102DD00000BF0837BD4680BD00440040504F012071
:102DE0005022002080B582B000AFFF23FB7120216C
:102DF0000748FDF7FDFA0346012B03D1044B9B88DE
:102E00009BB2FB71FB7918460837BD4680BD00BFF9
:102E10000044004080B582B000AF78603960FFF7B1
:102E2000E1FF03461A467B681A707B681B78FF2B0C
:102E300017D07B681B780A2B13D03B68002B04D07B
:102E40007B681B781846FFF73DFF7B681B780D2BCE
:102E500003D17B6800221A7005E07B6801337B6038
:102E6000DDE700BFDBE70837BD4680BD80B485B035
:102E700000AF78600023FB730023BB730F237B73C9
:102E80007B68DB78002B38D0264BDB68DB4303F410
:102E9000E0631B0AFB73FB7BC3F10403BB737A7B08
:102EA000FB7B42FA03F37B737B685B781A46BB7B40
:102EB00002FA03F3FB737B689A787B7B1340DAB2E8
:102EC000FB7B1343FB73FB7B1B01FB73164A7B6885
:102ED0001B781344FA7B83F80023134A7B681B7822
:102EE0005B09DBB218467B681B7803F01F030121E6
:102EF00001FA03F342F820300FE00B497B681B789E
:102F00005B09DBB218467B681B7803F01F030122C4
:102F10009A4000F1200341F8232000BF1437BD463A
:102F200080BC704700ED00E000E100E080B485B0B7
:102F300000AF786039600023FB817B681B88FB81D0
:102F40007B68284A934213D07B68274A93420FD06C
:102F50007B68B3F1804F0BD07B68244A934207D043
:102F60007B68234A934203D07B68224A934208D16C
:102F7000FB8923F07003FB813B685A88FB8913436C
:102F8000FB817B681C4A93420CD07B681B4A9342AE
:102F900008D0FB8923F44073FB813B681A89FB89C5
:102FA0001343FB817B68FA891A803B685A687B6807
:102FB000DA623B681A887B681A857B68094A934203
:102FC00003D07B68084A934204D13B689B7A9AB24B
:102FD0007B681A867B6801229A8200BF1437BD463F
:102FE00080BC704700000140000401400004004024
:102FF00000080040000C0040001000400014004099
:1030000080B483B000AF78600B46FB70FB78002B78
:1030100008D07B681B889BB243F080039AB27B6820
:103020001A8007E07B681B889BB223F080039AB26A
:103030007B681A8000BF0C37BD4680BC704700BF5C
:1030400080B483B000AF78600B46FB70FB78002B38
:1030500008D07B681B889BB243F001039AB27B685F
:103060001A8007E07B681B889BB223F001039AB2A9
:103070007B681A8000BF0C37BD4680BC704700BF1C
:1030800080B485B000AF7860396000237B81002375
:10309000FB810023BB817B681B8C9BB223F4807374
:1030A0009AB27B681A847B681B8CFB817B689B8847
:1030B000BB817B689B8B7B817B8923F070037B8149
:1030C0007B8923F003037B813B681A887B89134348
:1030D0007B81FB8923F40073FB813B689B891B0286
:1030E0009AB2FB891343FB813B685B881B029AB24F
:1030F000FB891343FB817B68224A934203D07B68A0
:10310000214A93422BD1FB8923F40063FB813B6866
:10311000DB891B029AB2FB891343FB81FB8923F4F1
:103120008063FB813B689B881B029AB2FB89134337
:10313000FB81BB8923F48053BB81BB8923F40053FB
:10314000BB813B681B8A1B019AB2BB891343BB81BD
:103150003B685B8A1B019AB2BB891343BB817B68C6
:10316000BA899A807B687A899A833B689A687B6877
:10317000DA637B68FA891A8400BF1437BD4680BCC5
:10318000704700BF000001400004014080B485B0DA
:1031900000AF786039600023BB8100237B8100236E
:1031A000FB817B681B8C9BB223F480539AB27B68B3
:1031B0001A847B681B8C7B817B689B88FB817B6886
:1031C0009B8BBB81BB8923F4E043BB81BB8923F488
:1031D0004073BB813B681B881B029AB2BB891343B7
:1031E000BB817B8923F400537B813B689B891B0354
:1031F0009AB27B8913437B813B685B881B039AB23D
:103200007B8913437B817B68114A934203D07B689F
:10321000104A93420AD1FB8923F48043FB813B6827
:103220001B8A9B019AB2FB891343FB817B68FA8955
:103230009A807B68BA899A833B689A687B681A642B
:103240007B687A891A8400BF1437BD4680BC7047FA
:10325000000001400004014080B485B000AF7860F8
:103260000B467B800023FB817B689B8BFB81FB896A
:1032700023F00803FB81FA897B881343FB817B6879
:10328000FA899A8300BF1437BD4680BC704700BFDF
:1032900080B485B000AF78600B467B800023FB8153
:1032A0007B689B8BFB81FB8923F40063FB817B881C
:1032B0001B029AB2FB891343FB817B68FA899A83CC
:1032C00000BF1437BD4680BC704700BF80B483B0D8
:1032D00000AF78600B467B8013467B707B78002BB9
:1032E00008D07B689B899AB27B8813439AB27B682B
:1032F0009A8109E07B689B899AB27B88DB439BB209
:1033000013409AB27B689A8100BF0C37BD4680BCDF
:10331000704700BF80B483B000AF78600B467B80FD
:103320007B88DB439AB27B681A8200BF0C37BD46AC
:1033300080BC704780B483B000AF78600B467B8060
:1033400013467B707B78002B08D07B689B899AB2F0
:103350007B8813439AB27B689A8109E07B689B89DA
:103360009AB27B88DB439BB213409AB27B689A8106
:1033700000BF0C37BD4680BC704700BF2DE9F04F41
:10338000DFF8E4928DB006460F4614461D4600F065
:103390006FF999F90080B8F1FF3FCDE9000146D0FF
:1033A00022462B462046294601F0F2FC834600289F
:1033B0003DD132463B463046394601F0E9FC002219
:1033C00082460023002840F084803046394601F0D0
:1033D000ADFC002830D0002200232046294601F011
:1033E000A5FC8346A8B10122984B0292002100223D
:1033F000CDF828A0CDE90467CDE90645CDE908124E
:103400000393B8F1000F53D0914900200DB0BDE8EF
:10341000F08F2046294600F049FF40B100220023EA
:103420002046294601F08CFC002840F0B780DDE9F9
:1034300000010DB0BDE8F08FDDE9000100F036FFBE
:10344000804600285DD04FF0000A4FF0000B524636
:103450005B46DDE9000101F069FC0028E7D0304659
:10346000394600F023FF0028E1D02046294600F02D
:103470001DFF0028DBD099F90030744A0392042123
:103480000022022BCDE90467CDE90645CDE908AB62
:1034900002910A9203D002A800F00EFF70B901F069
:1034A000D3FF2223036009E000230024CDE9083480
:1034B00002A800F001FF002800F086800A9B1BB1E3
:1034C00001F0C2FF0A9B0360DDE908010DB0BDE811
:1034D000F08F2046294601F029FC0028A7D05C493E
:1034E0005A4BCDF828B001220020B8F1020FCDE9E7
:1034F0000467CDE9064502920393CDE90801D7D1CF
:1035000097E73046394600F0D1FE00289BD0204690
:10351000294600F0CBFE002895D0DDE900231046B7
:10352000194601F035FC002873D1032399F9008076
:103530000293464B0A900393CDE90467CDE9064513
:103540000022002330463946B8F1000F41D1414FE7
:103550004FF06046CDE9086701F0F2FB00289AD0F1
:1035600000223D4B2046294601F078F904460D46DD
:1035700000F0AAFE02460B462046294601F0D6FB83
:10358000002843D1354B99F900804FF06042CDE9D6
:103590000823B8F1020F7FF47EAF80E799F900307D
:1035A0002A4ACDF828B00121CDE90467CDE90645C6
:1035B00002910392002B3FF477AF29490020022BA0
:1035C000CDE908017FF474AF01F03EFF21230360D1
:1035D00074E7244F0026CDE9086701F0B1FB00280D
:1035E000D7D000221C4B2046294601F037F904466B
:1035F0000D4600F069FE02460B462046294601F0C2
:1036000095FB18B9164B0022CDE9082399F90080E3
:10361000BFE799F900900D4BCDF828800122CDE944
:103620000467CDE9064502920393B9F1000F3FF418
:103630003BAF002200231046194601F039FAB9F1D8
:10364000020FCDE90801BFD032E700BFBC5C000823
:103650000000F03FFFFFEF470000E03FFFFFEFC734
:103660000000F0FF0000F07FB41C0020000000000C
:103670002DE9F04F23F0004858EA020993B03CD0FE
:10368000714C21F00046A64283460D460CDD06F142
:10369000404606F5801656EA0B0038D16B49834642
:1036A000584613B0BDE8F08F9A4696462BD0A045F9
:1036B000EDDC654CA04578D0002D0F468146CDE964
:1036C000002376DB0024BEF1000F27D15E4B984526
:1036D00000F08B805D4B984552D0BAF1804F00F0DE
:1036E000C2835B4B9A4519D1002D17DB48463946FA
:1036F00013B0BDE8F04F00F015BDCB465349584616
:1037000013B0BDE8F08F0028C1D1B045D1DD5148DC
:1037100013B0BDE8F04F00F0D1BD00244846394653
:1037200000F0C0FDBBF1000F1CD0ED0F013D54EACD
:10373000050370D0484B984540F3948003F104731F
:10374000984540F30584454B9E4270DDBAF1000F69
:1037500070DD3BA3D3E900231046194601F07EF843
:1037600083469DE726B1394B25F040429A42DCD191
:10377000BAF1000FC0F2B083002D08DB83468FE75B
:10378000BAF1000FC0F25684CB46394688E706F1FD
:10379000404606F5801656EA040300F07B84012CAF
:1037A000ECD1834601F100417AE7BEF1000F83D0EE
:1037B0006DE72B4B98452CDCA3F15473984581DDC4
:1037C0004FEA2853A3F2FF33142B40F34B84C3F189
:1037D00034032EFA03F202FA03F39E457FF472AF2C
:1037E00002F00102C2F102046DE706F1404303F565
:1037F000801353EA0B0300F03383184B9E4240F3CF
:103800006083BAF1000F15DBDDE900349B462146E9
:1038100046E7022457E74A4648463B46394600F009
:1038200069FE02460B4601F043F9834638E7BAF1D8
:10383000000F8EDB4FF0000B594631E7AFF30080ED
:103840009C7500883CE4377E0000F07F0000F03F6C
:103850000000E03FC05C00080000E041FFFFEF3FD8
:10386000FFFF3F43B6F5801F4FF0000205DAD44B4F
:1038700000F0F4FF6FF034020E463315D14FC6F35B
:103880001306A3F2FF33134446F07F5ABE421A4692
:103890000D934AF4401A40F3C183CB4B9E4240F350
:1038A000FD83134601330D93C84B0022CDE9062357
:1038B00000270026CDE90867CDE90E67AAF5801A32
:1038C0000027024653465146CDE90A23DDE9062387
:1038D00000F010FEDDE9062380468946DDE90A0195
:1038E00000F00AFE02460B460020B84901F0E0F85D
:1038F0000A460146CDE910121346494602464046A3
:1039000000F0ACFF4FEA6A0343F000538C46834655
:1039100003F50023CDE904BCDA468B46D919002310
:10392000CDE902AB0293DDE902AB002006460F466B
:1039300002460B465046594600F090FF02460B46A1
:103940004046494600F0D6FDDDE90623804689461B
:103950003046394600F0CEFD02460B46DDE90A014D
:1039600000F0C8FD52465B4600F078FF02460B4669
:103970004046494600F0BEFDDDE9102300F06EFF31
:10398000DDE90467CDE9060132463B46304639465B
:1039900000F064FF78A3D3E9002306460F4600F049
:1039A0005DFF77A3D3E9002300F0A6FD32463B4636
:1039B00000F054FF74A3D3E9002300F09DFD3246CC
:1039C0003B4600F04BFF72A3D3E9002300F094FDC7
:1039D00032463B4600F042FF6FA3D3E9002300F0DC
:1039E0008BFD32463B4600F039FF6DA3D3E900233F
:1039F00000F082FD3246804689463B4630463946D5
:103A000000F02CFF02460B464046494600F026FFD8
:103A1000524606460F465B46DDE9040100F06CFDA8
:103A2000DDE9062300F01AFF32463B4600F064FD54
:103A30005246804689465B465046594600F00EFF86
:103A40000022634BCDE90A0100F056FD42464B4689
:103A500000F052FD02980F46064632463B4650465D
:103A6000594600F0FBFE002282468B46584B3046FA
:103A7000394600F03FFDDDE90A2300F03BFD024638
:103A80000B464046494600F035FDDDE9042300F0D1
:103A9000E5FE3246804689463B46DDE9060100F0F8
:103AA000DDFE02460B464046494600F025FD8046B5
:103AB000894602460B4650465946CDE904AB00F014
:103AC0001BFDDDE902AB38A3D3E9002350460F46C6
:103AD00000F0C4FEDDE90423CDE902013946504679
:103AE00000F008FD02460B464046494600F002FD44
:103AF0002FA3D3E9002300F0B1FE2FA3D3E90023C5
:103B0000804689465046394600F0A8FE02460B46DC
:103B10004046494600F0F0FCDDE90E2300F0ECFCE5
:103B200080460D98894600F033FE424606460F4611
:103B30004B46DDE9020100F0DFFCDDE9082300F07F
:103B4000DBFC32463B4600F0D7FC32463B46504653
:103B50008B4600F0CFFCDDE9082300F0CBFCDDE96B
:103B6000022300F0C7FC02460B464046494600F0DF
:103B7000C1FC80462EE000BFEF4E454A287ECA3F7A
:103B800065DBC9934A86CD3F01411DA96074D13FD1
:103B90004D268F515555D53FFFAB6FDBB66DDB3FE3
:103BA000033333333333E33F000000E009C7EE3F14
:103BB000FD033ADC09C7EE3FF5015B14E02F3EBE82
:103BC000000040438E98030079B60B000000F03FE0
:103BD000000008408946013C54EA0503DDE9000184
:103BE00014BFD54CD54C0023CDE9043403460C4614
:103BF000CDE9023400230293DDE9024522462B463B
:103C000000F078FC52465B4600F028FEDDE9002318
:103C100006460F464046494600F020FE02460B4647
:103C20003046394600F068FC224606460F462B46D1
:103C300050465946CDE9006700F010FE0B4602469B
:103C4000804689463046394600F056FCBC4B9942C6
:103C500006460D460C4640F30E8101F13F4303F545
:103C6000E003034340F0EF819FA3D3E90023DDE9A4
:103C7000000100F041FC424682468B464B463046EE
:103C8000294600F037FC02460B465046594601F0E3
:103C900075F8002840F0D7812F463B154FF480126D
:103CA000A3F2FE3342FA03F32344C3F30A52A54EB0
:103CB000A2F2FF321641C3F3130B0020C2F1140528
:103CC00023EA06014BF4801B02460B46002C4BFAFC
:103CD00005FB40464946B8BFCBF1000B00F00AFC9B
:103CE00002460B4680468946DDE9000100F004FCEF
:103CF0004FEA0B5A00247EA3D3E9002320460D4649
:103D000000F0ACFD424606460F464B46204629468B
:103D100000F0F0FB02460B46DDE9000100F0EAFB93
:103D200075A3D3E9002300F099FD75A3D3E900231F
:103D3000804689462046294600F090FD02460B4603
:103D40004046494600F0D8FB8046894602460B466D
:103D50003046394600F0D0FB32463B4604460D461D
:103D600000F0C8FB02460B464046494600F0C2FB45
:103D70002246804689462B462046294600F06EFDA5
:103D800061A3D3E9002306460F4600F067FD60A358
:103D9000D3E9002300F0AEFB32463B4600F05EFD67
:103DA0005DA3D3E9002300F0A7FB32463B4600F0B9
:103DB00055FD5BA3D3E9002300F09CFB32463B4654
:103DC00000F04CFD58A3D3E9002300F095FB3246E8
:103DD0003B4600F043FD02460B462046294600F0D4
:103DE00089FB06460F4602460B462046294600F050
:103DF00035FD0022CDE900014FF0804330463946C1
:103E000000F078FB02460B46DDE9000100F050FEB1
:103E1000424606460F464B462046294600F01EFD08
:103E200042464B4600F068FB02460B463046394698
:103E300000F060FB22462B4600F05CFB02460B467E
:103E400000203D4900F056FB8A44BAF5801FC0F2BD
:103E500036815146DDE9042300F000FD83461FE46E
:103E6000F34635491CE44A4648463B46394600F08D
:103E7000F5FC834614E4344B21F000479F4240F3A5
:103E80000081324B0B4403430CD142464B4600F0B9
:103E900031FB02460B46DDE9000100F05BFF002824
:103EA0003FF4FBAE22A3D3E90023DDE9040100F0D7
:103EB000D5FC1FA3D3E9002300F0D0FC8346FFF715
:103EC000EFBBBAF1000FBFF6B5ACDDE900349B469D
:103ED00004F10041FFF7E4BB02460B4600201649FF
:103EE00000F0E6FD48E400BFFE822B654715973CD5
:103EF00000000000432EE63FEF39FAFE422EE63F77
:103F0000396CA80C615C20BED0A4BE726937663ED5
:103F1000F16BD2C541BDBB3E2CDE25AF6A56113FC9
:103F200093BDBE166CC1663F3E5555555555C53FB0
:103F300059F3F8C21F6EA5010000F03F0000F0BF6A
:103F4000FFFF8F40FFFF0F00FFCB904000346F3F1B
:103F50006F4B9E427FF76BAC6E4B9E423FF7F6ABCA
:103F600000226C4B00F0C6FA5BA3D3E9002306469F
:103F70000F4600F073FC5AA3D3E90023804689461C
:103F80003046394600F06AFC002282468B46624B7E
:103F90003046394600F062FC02460B4652A1D1E998
:103FA000000100F0A7FA32463B4600F057FC0246FB
:103FB0000B460020594900F09DFA3246CDE9020136
:103FC0003B463046394600F049FC02460B46DDE9E7
:103FD000020100F043FC46A3D3E9002300F03EFCBD
:103FE00002460B465046594600F084FA02460B46FC
:103FF00006460F464046494600F07EFA42464B468A
:10400000002082468B4600F075FA02460B46304689
:10401000394600F06FFA80468946DCE5002200232D
:10402000CDE90823CDE90E233A4B00220027CDE944
:10403000062346E44A463B460020364900F038FD58
:104040008346FFF72DBB2CA3D3E90023DDE9040150
:1040500000F004FC28A3D3E9002300F0FFFB834613
:10406000FFF71EBBBEF1000F7FF457ABC3F1140383
:1040700048FA03F202FA03F3984524D07446FFF796
:1040800029BB264B9F423FF708AEDDE902349A4632
:104090009B462FE602460B46FFF7C1BB18A3D3E9A8
:1040A0000023CDE9082318A3D3E90023CDE90E238B
:1040B0001B4B00224FF48027CDE9062301E45A462A
:1040C00000F08EF9C6E602F00102C2F10204FFF729
:1040D00001BB00BFAFF30080000000604715F73F51
:1040E00044DF5DF80BAE543E555555555555D53FFB
:1040F000FE822B654715F73F9C7500883CE4377EB0
:104100000000004003B8E23F06D0CF43EBFD4C3E39
:10411000FEFFEF3F0000F03F0000D03F0000E03F17
:104120000000F83F2DE9F8435D4EB6460E40764557
:104130000C46054600F0958000290B46024673DDCB
:104140000F157ED0A7F2FF37C3F31303F80743F42C
:10415000801364D403EBD27100260B447F1052000D
:10416000B64616204FF400110EEB01049C424FEAB4
:10417000D2754FEA420203DC1B1B04EB010E0E4416
:10418000013805EB43034FEA5101EDD18446202469
:104190004FF0004109E020D003EBD275013C4FEA1B
:1041A00051012B444FEA420220D09E4501EB0C0501
:1041B000F1DA002D05EB010C09DBF0469542CEEB60
:1041C000030300D9013B521B0844C646E4E7BCF197
:1041D000000FF2DB0EF10108F0E7954217D8002D31
:1041E00005EB010C47DB98460023ECE7134310D1A5
:1041F0004008731003F17F5303F50013F20703EB3C
:10420000075948BF40F000404946BDE8F88373466F
:10421000C2E7411C33D000F001031844E8E75B001B
:1042200003EBD273520095E721F000460643ECD031
:1042300069BB0F46D30A153F5205002BFAD0DD02A9
:1042400020D4002100E001465B00DC0201F1010006
:10425000F9D5C0F1200422FA04F423437F1A8240E6
:1042600070E702460B4600F0F9FA2A46234600F0B2
:1042700043F9BDE8F883BCF1000FABDAB3E70136D0
:104280002046B6E720244FF0FF310020E3E7024646
:104290000B4600F02FF902460B4600F009FCB4E78C
:1042A0000000F07F21F00041704700BF41F0004165
:1042B00001F58010C00F70470020704700200149B1
:1042C000704700BF0000F87FF0B5C1F30A5EAEF2A0
:1042D000FF36132E83B002460B460C464FEAD175CB
:1042E00007462EDC002E49DB3B49314103EA010041
:1042F00010432BD049080B4053EA02070CD04FF46F
:104300008023132E24EA010143FA06F444EA01044F
:104310000CBF4FF000470027304B03EBC50521468B
:10432000D5E90045384622462B4600F0E5F8CDE9B0
:10433000000122462B46DDE9000100F0DBF803B066
:10434000F0BD332E06DDB6F5806F42D0104619461B
:1043500003B0F0BDAEF2134E4FF0FF3121FA0EF173
:104360000842F3D049080842D6D04FF0804320EAF3
:10437000010143FA0EFE4EEA0107CDE721F00041AC
:104380000143E3D0C3F31301144E41EA000CCCF116
:10439000000106EBC506D6E9006741EA0C0C5C0C8F
:1043A0004FEA1C3C0CF4002C64044CEA0401324635
:1043B0003B4600F0A1F8CDE900013B463246DDE97D
:1043C000000100F097F821F0004444EAC573194653
:1043D000BEE700F091F8BBE7FFFF0F00C85C0008E4
:1043E000F8B5C1F30A5604460D460B46174606BB00
:1043F00021F00043034325D00022354B00F02EFA74
:10440000344A974204460D460B462ADBC1F30A564E
:10441000363E3E4440F2FE72964228DC002E12DD0B
:1044200023F0FF4323F4E00343EA065520462946E0
:10443000F8BD40F2FF729642EBD102460B4600F007
:104440005BF8F8BDF8BD16F1350F1DDA4CF25033AC
:104450009F4222462B4625DC19A1D1E9000100F03C
:104460003DF817A3D3E9002300F0F8F9F8BD224680
:104470002B4615A1D1E9000100F030F812A3D3E9D1
:10448000002300F0EBF9F8BD23F0FF4323F4E00331
:10449000363643EA06552046294600220E4B00F0E8
:1044A000DDF9F8BD08A1D1E9000100F017F806A375
:1044B000D3E9002300F0D2F9F8BD00BFAFF30080CC
:1044C00059F3F8C21F6EA5019C7500883CE4377E45
:1044D00000005043B03CFFFF0000903C03F000435D
:1044E00021F0004242EA0301704700BF81F0004121
:1044F00002E000BF83F0004330B54FEA41044FEAC9
:10450000430594EA050F08BF90EA020F1FBF54EA63
:10451000000C55EA020C7FEA645C7FEA655C00F0FF
:10452000E2804FEA5454D4EB5555B8BF6D420CDDD0
:104530002C4480EA020281EA030382EA000083EA53
:10454000010180EA020281EA0303362D88BF30BDF3
:1045500011F0004F4FEA01314FF4801C4CEA113149
:1045600002D0404261EB410113F0004F4FEA0333A8
:104570004CEA133302D0524263EB430394EA050F33
:1045800000F0A780A4F10104D5F1200E0DDB02FAA2
:104590000EFC22FA05F2801841F1000103FA0EF236
:1045A000801843FA05F359410EE0A5F120050EF1FC
:1045B000200E012A03FA0EFC28BF4CF0020C43FA2D
:1045C00005F3C01851EBE37101F0004507D54FF03A
:1045D000000EDCF1000C7EEB00006EEB0101B1F58A
:1045E000801F1BD3B1F5001F0CD349085FEA3000D0
:1045F0004FEA3C0C04F101044FEA445212F5800FDB
:1046000080F09A80BCF1004F08BF5FEA500C50F177
:10461000000041EB045141EA050130BD5FEA4C0C5A
:10462000404141EB010111F4801FA4F10104E9D1E3
:1046300091F0000F04BF01460020B1FA81F308BFDA
:104640002033A3F10B03B3F120020CDA0C3208DDA6
:1046500002F1140CC2F10C0201FA0CF021FA02F181
:104660000CE002F11402D8BFC2F1200C01FA02F1F1
:1046700020FA0CFCDCBF41EA0C019040E41AA2BF16
:1046800001EB0451294330BD6FEA04041F3C1CDADE
:104690000C340EDC04F11404C4F1200220FA04F0FE
:1046A00001FA02F340EA030021FA04F345EA0301A8
:1046B00030BDC4F10C04C4F1200220FA02F001FA6A
:1046C00004F340EA0300294630BD21FA04F02946EC
:1046D00030BD94F0000F83F4801306BF81F4801185
:1046E0000134013D4EE77FEA645C18BF7FEA655CF8
:1046F00029D094EA050F08BF90EA020F05D054EACA
:10470000000C04BF1946104630BD91EA030F1EBFCE
:104710000021002030BD5FEA545C05D140004941D2
:1047200028BF41F0004130BD14F580043CBF01F5C5
:10473000801130BD01F0004545F0FE4141F47001AB
:104740004FF0000030BD7FEA645C1ABF1946104686
:104750007FEA655C1CBF0B46024650EA013406BF87
:1047600052EA033591EA030F41F4002130BD00BF46
:1047700090F0000F04BF0021704730B54FF4806403
:1047800004F132044FF000054FF0000150E700BF84
:1047900090F0000F04BF0021704730B54FF48064E3
:1047A00004F1320410F0004548BF40424FF00001D0
:1047B0003EE700BF42004FEAE2014FEA31014FEA13
:1047C00002701FBF12F07F4393F07F4F81F0605162
:1047D000704792F0000F14BF93F07F4F704730B5D1
:1047E0004FF4607401F0004521F0004120E700BF64
:1047F00050EA010208BF704730B54FF000050AE0EB
:1048000050EA010208BF704730B511F0004502D5EB
:10481000404261EB41014FF4806404F132045FEAED
:10482000915C3FF4DCAE4FF003025FEADC0C18BF92
:1048300003325FEADC0C18BF033202EBDC02C2F188
:10484000200300FA03FC20FA02F001FA03FE40EA1A
:104850000E0021FA02F11444C1E600BF70B54FF01A
:10486000FF0C4CF4E06C1CEA11541DBF1CEA1355FC
:1048700094EA0C0F95EA0C0F00F0DEF82C4481EA64
:10488000030621EA4C5123EA4C5350EA013518BF84
:1048900052EA033541F4801143F4801338D0A0FB71
:1048A00002CE4FF00005E1FB02E506F00042E0FB1E
:1048B00003E54FF00006E1FB03569CF0000F18BF24
:1048C0004EF0010EA4F1FF04B6F5007F64F54074CC
:1048D00004D25FEA4E0E6D4146EB060642EAC6215F
:1048E00041EA55514FEAC52040EA5E504FEACE2ECC
:1048F000B4F1FD0C88BFBCF5E06F1ED8BEF1004FCF
:1049000008BF5FEA500E50F1000041EB045170BD4A
:1049100006F0004646EA010140EA020081EA03018E
:10492000B4EB5C04C2BFD4EB0C0541EA045170BD8A
:1049300041F480114FF0000E013C00F3AB8014F104
:10494000360FDEBF002001F0004170BDC4F100044D
:10495000203C35DA0C341BDC04F11404C4F12005CE
:1049600000FA05F320FA04F001FA05F240EA020029
:1049700001F0004221F0004110EBD37021FA04F65F
:1049800042EB06015EEA430E08BF20EAD37070BD19
:10499000C4F10C04C4F1200500FA04F320FA05F078
:1049A00001FA04F240EA020001F0004110EBD3707A
:1049B00041F100015EEA430E08BF20EAD37070BDEA
:1049C000C4F1200500FA05F24EEA020E20FA04F3C3
:1049D00001FA05F243EA020321FA04F001F0004172
:1049E00021FA04F220EA020000EBD3705EEA430EE3
:1049F00008BF20EAD37070BD94F0000F0FD101F012
:104A00000046400041EB010111F4801F08BF013C4A
:104A1000F7D041EA060195F0000F18BF704703F088
:104A20000046520043EB030313F4801F08BF013D0F
:104A3000F7D043EA0603704794EA0C0F0CEA1355CB
:104A400018BF95EA0C0F0CD050EA410618BF52EA85
:104A50004306D1D181EA030101F000414FF000008B
:104A600070BD50EA410606BF1046194652EA430699
:104A700019D094EA0C0F02D150EA013613D195EA0D
:104A80000C0F05D152EA03361CBF104619460AD155
:104A900081EA030101F0004141F0FE4141F470015F
:104AA0004FF0000070BD41F0FE4141F4780170BD4F
:104AB00070B54FF0FF0C4CF4E06C1CEA11541DBFB4
:104AC0001CEA135594EA0C0F95EA0C0F00F0A7F8B6
:104AD000A4EB050481EA030E52EA03354FEA0131E3
:104AE00000F088804FEA03334FF0805545EA1313F6
:104AF00043EA12634FEA022245EA111545EA1065BE
:104B00004FEA00260EF000419D4208BF964244F154
:104B1000FD0404F5407402D25B084FEA3202B61A73
:104B200065EB03055B084FEA32024FF480104FF447
:104B3000002CB6EB020E75EB030E22BFB61A7546BB
:104B400040EA0C005B084FEA3202B6EB020E75EB4E
:104B5000030E22BFB61A754640EA5C005B084FEAB6
:104B60003202B6EB020E75EB030E22BFB61A754683
:104B700040EA9C005B084FEA3202B6EB020E75EB8E
:104B8000030E22BFB61A754640EADC0055EA060E4F
:104B900018D04FEA051545EA16754FEA06164FEA92
:104BA000C30343EA52734FEAC2025FEA1C1CC0D13E
:104BB00011F4801F0BD141EA00014FF000004FF0CB
:104BC000004CB6E711F4801F04BF01430020B4F18C
:104BD000FD0C88BFBCF5E06F3FF6AFAEB5EB030C44
:104BE00004BFB6EB020C5FEA500C50F1000041EB41
:104BF000045170BD0EF0004E4EEA113114EB5C040E
:104C0000C2BFD4EB0C0541EA045170BD41F48011E0
:104C10004FF0000E013C90E645EA060E8DE60CEAE8
:104C2000135594EA0C0F08BF95EA0C0F3FF43BAF05
:104C300094EA0C0F0AD150EA01347FF434AF95EABC
:104C40000C0F7FF425AF104619462CE795EA0C0FA0
:104C500006D152EA03353FF4FDAE1046194622E76D
:104C600050EA410618BF52EA43067FF4C5AE50EA47
:104C700041047FF40DAF52EA43057FF4EBAE12E737
:104C80004FF0FF3C06E000BF4FF0010C02E000BF18
:104C90004FF0010C4DF804CD4FEA410C7FEA6C5CFB
:104CA0004FEA430C18BF7FEA6C5C1BD001B050EA9E
:104CB000410C0CBF52EA430C91EA030F02BF90EA89
:104CC000020F0020704710F1000F91EA030F58BF48
:104CD000994208BF90422CBFD8176FEAE37040F0AA
:104CE000010070474FEA410C7FEA6C5C02D150EA48
:104CF000013C07D14FEA430C7FEA6C5CD6D152EA03
:104D0000033CD3D05DF8040B704700BF84461046C7
:104D100062468C461946634600E000BF01B5FFF7C6
:104D2000B7FF002848BF10F1000F01BD4DF808ED96
:104D3000FFF7F4FF0CBF012000205DF808FB00BF67
:104D40004DF808EDFFF7EAFF34BF012000205DF8C1
:104D500008FB00BF4DF808EDFFF7E0FF94BF01200E
:104D600000205DF808FB00BF4DF808EDFFF7CEFF0F
:104D700094BF012000205DF808FB00BF4DF808ED4E
:104D8000FFF7C4FF34BF012000205DF808FB00BF1F
:104D90004FEA410C7FEA6C5C02D150EA013C0AD137
:104DA0004FEA430C7FEA6C5C02D152EA033C02D129
:104DB0004FF0000070474FF0010070474FEA41028A
:104DC00012F5001215D211D56FF47873B3EB62525D
:104DD00012D94FEAC12343F0004343EA505311F084
:104DE000004F23FA02F018BF404270474FF0000016
:104DF000704750EA013005D111F0004008BF6FF054
:104E0000004070474FF00000704700BF80F0004046
:104E100002E000BF81F0004142001FBF5FEA410392
:104E200092EA030F7FEA226C7FEA236C6AD04FEA92
:104E30001262D2EB1363C1BFD218414048404140D7
:104E4000B8BF5B42192B88BF704710F0004F40F489
:104E5000000020F07F4018BF404211F0004F41F4A5
:104E6000000121F07F4118BF494292EA030F3FD071
:104E7000A2F1010241FA03FC10EB0C00C3F1200384
:104E800001FA03F100F0004302D5494260EB400013
:104E9000B0F5000F13D3B0F1807F06D340084FEA7E
:104EA000310102F10102FE2A51D2B1F1004F40EB73
:104EB000C25008BF20F0010040EA030070474900DB
:104EC00040EB000010F4000FA2F10102EDD1B0FAA6
:104ED00080FCACF1080CB2EB0C0200FA0CF0AABF9B
:104EE00000EBC25052421843BCBFD0401843704739
:104EF00092F0000F81F4000106BF80F4000001323F
:104F0000013BB5E74FEA41037FEA226C18BF7FEA15
:104F1000236C21D092EA030F04D092F0000F08BF57
:104F20000846704790EA010F1CBF0020704712F03E
:104F30007F4F04D1400028BF40F00040704712F17D
:104F400000723CBF00F50000704700F0004343F0E2
:104F5000FE4040F4000070477FEA226216BF084618
:104F60007FEA23630146420206BF5FEA412390EADB
:104F7000010F40F4800070474FF0000304E000BFD1
:104F800010F0004348BF40425FEA000C08BF704782
:104F900043F0964301464FF000001CE050EA010246
:104FA00008BF70474FF000030AE000BF50EA01025B
:104FB00008BF704711F0004302D5404261EB410148
:104FC0005FEA010C02BF84460146002043F0B6436D
:104FD00008BFA3F18053A3F50003BCFA8CF2083A92
:104FE000A3EBC25310DB01FA02FC634400FA02FC9B
:104FF000C2F12002BCF1004F20FA02F243EB0200A2
:1050000008BF20F00100704702F1200201FA02FC03
:10501000C2F1200250EA4C0021FA02F243EB0200F6
:1050200008BF20EADC7070474FF0FF0C1CEAD0523A
:105030001EBF1CEAD15392EA0C0F93EA0C0F6FD0FB
:105040001A4480EA010C400218BF5FEA41211ED0D9
:105050004FF0006343EA501043EA5111A0FB0131C5
:105060000CF00040B1F5000F3EBF490041EAD3719A
:105070005B0040EA010062F17F02FD2A1DD8B3F116
:10508000004F40EBC25008BF20F00100704790F085
:10509000000F0CF0004C08BF49024CEA502040EAD7
:1050A00051207F3AC2BFD2F1FF0340EAC25070479D
:1050B00040F400004FF00003013A5DDC12F1190FDB
:1050C000DCBF00F000407047C2F10002410021FA4D
:1050D00002F1C2F1200200FA02FC5FEA310040F165
:1050E000000053EA4C0308BF20EADC70704792F0DE
:1050F000000F00F0004C02BF400010F4000F013A16
:10510000F9D040EA0C0093F0000F01F0004C02BF10
:10511000490011F4000F013BF9D041EA0C018FE77F
:105120000CEAD15392EA0C0F18BF93EA0C0F0AD085
:1051300030F0004C18BF31F0004CD8D180EA0100AB
:1051400000F00040704790F0000F17BF90F0004F44
:10515000084691F0000F91F0004F14D092EA0C0F26
:1051600001D142020FD193EA0C0F03D14B0218BFB9
:10517000084608D180EA010000F0004040F0FE40FF
:1051800040F40000704740F0FE4040F4400070479B
:105190004FF0FF0C1CEAD0521EBF1CEAD15392EA1A
:1051A0000C0F93EA0C0F69D0A2EB030280EA010C0A
:1051B00049024FEA402037D04FF0805343EA1111A3
:1051C00043EA10130CF000408B4238BF5B0042F101
:1051D0007D024FF4000C8B4224BF5B1A40EA0C00A6
:1051E000B3EB510F24BFA3EB510340EA5C00B3EBD8
:1051F000910F24BFA3EB910340EA9C00B3EBD10FC6
:1052000024BFA3EBD10340EADC001B0118BF5FEA17
:105210001C1CE0D1FD2A3FF650AF8B4240EBC25040
:1052200008BF20F0010070470CF0004C4CEA502001
:105230007F32C2BFD2F1FF0340EAC250704740F450
:1052400000004FF00003013A37E792F0000F00F042
:10525000004C02BF400010F4000F013AF9D040EAC0
:105260000C0093F0000F01F0004C02BF490011F454
:10527000000F013BF9D041EA0C0195E70CEAD1534C
:1052800092EA0C0F08D142027FF47DAF93EA0C0F33
:105290007FF470AF084676E793EA0C0F04D14B0217
:1052A0003FF44CAF08466EE730F0004C18BF31F0C9
:1052B000004CCAD130F000427FF45CAF31F00043C3
:1052C0007FF43CAF5FE700BF4FF0FF3C06E000BF5C
:1052D0004FF0010C02E000BF4FF0010C4DF804CD7F
:1052E0004FEA40024FEA41037FEA226C18BF7FEA8F
:1052F000236C11D001B052EA530C18BF90EA010F91
:1053000058BFB2EB030088BFC81738BF6FEAE1701F
:1053100018BF40F0010070477FEA226C02D15FEABB
:10532000402C05D17FEA236CE4D15FEA412CE1D027
:105330005DF8040B704700BF844608466146FFE7EE
:105340000FB5FFF7C9FF002848BF10F1000F0FBDD0
:105350004DF808EDFFF7F4FF0CBF012000205DF8C9
:1053600008FB00BF4DF808EDFFF7EAFF34BF01204E
:1053700000205DF808FB00BF4DF808EDFFF7E0FFE7
:1053800094BF012000205DF808FB00BF4DF808ED38
:10539000FFF7D2FF94BF012000205DF808FB00BF9B
:1053A0004DF808EDFFF7C8FF34BF012000205DF87D
:1053B00008FB00BF4FEA4002B2F1FE4F0FD34FF09F
:1053C0009E03B3EB12620DD94FEA002343F0004372
:1053D00010F0004F23FA02F018BF404270474FF020
:1053E0000000704712F1610F01D1420205D110F0A7
:1053F000004008BF6FF0004070474FF0000070475A
:1054000042000ED2B2F1FE4F0BD34FF09E03B3EB2E
:10541000126209D44FEA002343F0004323FA02F05A
:1054200070474FF00000704712F1610F01D1420246
:1054300002D14FF0FF3070474FF00000704700BFBF
:105440000A22002100F07ABB014B1868704700BFA8
:10545000E020002070B4840746D0541E002A41D0BA
:10546000CDB2034602E0621EE4B3144603F8015BCA
:105470009A07F8D1032C2ED9CDB245EA05250F2C79
:1054800045EA054519D903F110022646103E0F2EB4
:1054900042F8105C42F80C5C42F8085C42F8045C8C
:1054A00002F11002F2D8A4F1100222F00F0204F06F
:1054B0000F041032032C13440DD91E462246043A21
:1054C000032A46F8045BFAD8221F22F003020432B2
:1054D000134404F003042CB1C9B21C4403F8011BAB
:1054E000A342FBD170BC704714460346C2E700BF1D
:1054F00000000000000000000000000000000000AC
:10550000A2EB0300704700BF02780B78012A28BF86
:105510009A42F5D16DE9044540EA0104CDE90267FC
:105520006FF0000C4FEA447212B380EA010414F0E9
:10553000070F6AD100F0070420F0070004F003050C
:1055400021F007014FEAC505F0E8042314F0040F29
:10555000F1E804670CFA05F462EA040266EA04065C
:105560000AD063EA0403624667EA0407664603E07A
:10557000F0E80423F1E8046782FA4CF582EA0604B5
:10558000A4FA8CF46CBB83FA4CF583EA0705A5FA00
:105590008CF595B950E9022351E9026782FA4CF57E
:1055A00082EA0604A4FA8CF483FA4CF583EA070530
:1055B000A5FA8CF52543DBD09CB92DBAB5FA85F454
:1055C00024F0070427FA04F1DDE9026723FA04F363
:1055D00003F0FF0001F0FF01FDE80445A0EB01002E
:1055E000704724BAB4FA84F424F0070426FA04F1CC
:1055F000DDE9026722FA04F202F0FF0001F0FF0188
:10560000FDE80445A0EB0100704714F0030F3CD106
:1056100010F0030428D150F8082B51F8083B82FA07
:105620004CF582EA0305A5FA8CF55DB950F8042C17
:1056300051F8043C82FA4CF582EA0305A5FA8CF590
:10564000002DE8D02DBAB5FA85F424F0070423FA2A
:1056500004F122FA04F202F0FF0001F0FF01FDE87C
:105660000445A0EB010070474FEAC40420F003009A
:1056700050F8082B21F0030151F8083B0CFA04F410
:1056800062EA040263EA0403C9E710F003041AD0D3
:10569000A1EB040120F00300E40750F8042B06D02E
:1056A0000FD28B785FFAA2F4E41A06D12BB1CB7833
:1056B0005FFAB2F4E41A00D11BB920465DF8104B32
:1056C000704701F1040150F8042BCC0721F00301CD
:1056D00051F8043B48D824D222F07F4482FA4CF59A
:1056E00094EA1325A5FA8CF50AD165B951F8043B63
:1056F00084EA0204B4EB036F0ED150F8042BEBE7FD
:105700004FEA132355E035F07F454DD10878FDE889
:105710000445C0F1000070474FEA126203F0FF0336
:1057200047E002EA1C4482FA4CF594EA1345A5FAD4
:105730008CF50AD165B951F8043B84EA0204B4EB54
:10574000034F0CD150F8042BEBE74FEA134330E042
:1057500015EA1C4528D10B884FEA124229E04FEA8E
:10576000124203EA1C4324E002F0FF0482FA4CF5E3
:1057700094EA1365A5FA8CF50AD165B951F8043B92
:1057800084EA0204B4EB032F09D150F8042BEBE7B1
:105790004FEA13630DE015F0FF0F05D10B684FEAD8
:1057A000122223F07F4304E04FF00000FDE804459F
:1057B000704712BA1BBA82FA4CF482EA0304A4FAC4
:1057C0008CF5B5FA85F402FA04F203FA04F34FEA11
:1057D0001260FDE80445A0EB1360704780EA010207
:1057E000844612F0030F4FD111F0030F32D14DF860
:1057F000044D11F0040F51F8043B0BD0A3F101321A
:105800009A4312F0803F04BF4CF8043B51F8043B2C
:1058100016D100BF51F8044BA3F101329A4312F0A4
:10582000803FA4F101320BD14CF8043BA24312F0AB
:10583000803F04BF51F8043B4CF8044BEAD02346A8
:105840000CF8013B13F0FF0F4FEA3323F8D15DF85A
:10585000044B704711F0010F06D011F8012B0CF822
:10586000012B002A08BF704711F0020FBFD031F89A
:10587000022B12F0FF0F16BF2CF8022B8CF8002021
:1058800012F47F4FB3D1704711F8012B0CF8012BA4
:10589000002AF9D1704700BF00000000000000009E
:1058A00000000000000000000000000000000000F8
:1058B00000000000000000000000000000000000E8
:1058C00090F800F06DE9024520F007016FF0000C40
:1058D00010F0070491F820F040F049804FF00004E8
:1058E0006FF00700D1E9002391F840F000F10800C3
:1058F00082FA4CF2A4FA8CF283FA4CF3A2FA8CF3FB
:105900004BBBD1E9022382FA4CF200F10800A4FA61
:105910008CF283FA4CF3A2FA8CF3E3B9D1E90423B5
:1059200082FA4CF200F10800A4FA8CF283FA4CF3EC
:10593000A2FA8CF37BB9D1E9062301F1200182FAA6
:105940004CF200F10800A4FA8CF283FA4CF3A2FAAC
:105950008CF3002BC6D0002A04BF04301A4612BABA
:10596000B2FA82F2FDE8024500EBD2007047D1E9BD
:10597000002304F00305C4F100004FEAC50514F04C
:10598000040F91F840F00CFA05F562EA05021CBF1D
:1059900063EA050362464FF00004A9E740EA010309
:1059A0009B0770B42BD1032A29D90C460346214604
:1059B00054F8046BA6F1013525EA060515F0803F81
:1059C00006D1043A032A43F8046B2146EFD8A2B16A
:1059D0000C781C70013A013301313CB16AB111F805
:1059E000014B03F8014B013A002CF7D12AB11A44BC
:1059F000002103F8011B9A42FBD170BC704703469B
:105A0000E5E700BF2DE9F84FDDF828900F46804606
:105A100016461D468B4600E0A3465C46484614F8F1
:105A200001AB00F0A1F85044417801F0080101F009
:105A3000FF0C0029F0D152462D2A61D02B2A04BF39
:105A40009BF801200BF10204002D43D0102D65D0EE
:105A5000A946BCF1000F0CBF6FF0004A4FF0004A9E
:105A60000021BAFBF9FE084609FB1EAA05E029D071
:105A700009FB0030012114F8012BA2F13003092B9E
:105A800005D9A2F14103192B0AD8A2F137039D428F
:105A90000EDD4A1CEFD08645E9D24FF0FF31EAE730
:105AA000A2F16103192B03D8A2F157039D42F0DC48
:105AB0004B1C15D0BCF1000F10D14EB1E1B93760CD
:105AC000BDE8F88F9A45D3DA70464FF0FF31D2E740
:105AD000BDE8F88F302A1AD00A25B9E74042ECE732
