:020000040800F2
:1000000074350120B5070008110800081108000820
:10001000110800081108000811080008000000007D
:1000200000000000000000000000000011080008AF
:10003000110800080000000011080008110800085D
:10004000110800081108000811080008110800082C
:10005000110800081108000811080008110800081C
:10006000110800081108000811080008110800080C
:1000700011080008110800081108000811080008FC
:1000800011080008110800081108000811080008EC
:1000900011080008110800081108000811080008DC
:1000A00011080008110800081108000811080008CC
:1000B000590E00081108000811080008110800086E
:1000C00011080008110800081108000811080008AC
:1000D0001108000811080008790600081108000836
:1000E000110800081108000811080008110800088C
:1000F000110800081108000811080008110800087C
:10010000110800081108000811080008110800086B
:10011000110800081108000811080008110800085B
:10012000110800081108000811080008110800084B
:10013000110800081108000811080008110800083B
:10014000110800081108000811080008110800082B
:10015000150F000811080008110800081108000810
:10016000110800081108000811080008110800080B
:1001700011080008110800081108000811080008FB
:10018000110800081108000880B58AB000AF786037
:10019000396000237B6200233B620023FB61002364
:1001A000BB617B681B8A9BB27B627B6A23F44053F2
:1001B0007B623B68DB881A467B6A13437B627B6AFF
:1001C0009AB27B681A827B689B899BB27B627B6A4E
:1001D00023F4B05323F00C037B623B689A883B689E
:1001E0001B8913439AB23B685B8913439BB21A463F
:1001F0007B6A13437B627B6A9AB27B689A817B68D5
:100200009B8A9BB27B627B6A23F440737B623B6870
:100210009B891A467B6A13437B627B6A9AB27B682E
:100220009A8207F10803184600F02EFB7B68304ADB
:10023000934203D07B682F4A934202D17B693B6291
:1002400001E03B693B627B689B899BB21BB2002B40
:100250000CDA3A6A13469B0013449A001A443B682E
:100260001B685B00B2FBF3F3FB610BE03A6A1346D9
:100270009B0013449A001A443B681B689B00B2FB26
:10028000F3F3FB61FB691C4AA2FB03235B091B011F
:100290007B627B6A1B09642202FB03F3FA69D31AAF
:1002A000BB617B689B899BB21BB2002B0CDABB69DC
:1002B000DB003233104AA2FB03235B0903F0070380
:1002C0007A6A13437B620BE0BB691B0132330A4A33
:1002D000A2FB03235B0903F00F037A6A13437B62DB
:1002E0007B6A9AB27B681A8100BF2837BD4680BD01
:1002F00000100140001401401F85EB5180B483B011
:1003000000AF78600B46FB70FB78002B08D07B6851
:100310009B899BB243F400539AB27B689A8107E0B1
:100320007B689B899BB223F400539AB27B689A81C5
:1003300000BF0C37BD4680BC704700BF80B483B09F
:1003400000AF78600B467B807B88C3F308039AB2CA
:100350007B689A8000BF0C37BD4680BC704700BFE9
:1003600080B487B000AF78600B467B8013467B700B
:1003700000233B610023FB600023BB6000237B6103
:100380007B687B617B88DBB25B09DBB23B617B888E
:1003900003F01F03FB600122FB6802FA03F3BB605A
:1003A0003B69012B03D17B690C337B6109E03B691D
:1003B000022B03D17B6910337B6102E07B6914332C
:1003C0007B617B78002B06D07B697A691168BA68FB
:1003D0000A431A6006E07B697A691168BA68D243F9
:1003E0000A401A6000BF1C37BD4680BC704700BF82
:1003F00080B485B000AF78600B467B800023FB7330
:100400007B681B889AB27B8813409BB2002B02D07A
:100410000123FB7301E00023FB73FB7B18461437B9
:10042000BD4680BC704700BF80B487B000AF786025
:100430000B467B800023FB6000237B610023BB60B5
:100440000023FB747B88DBB25B09DBB2BB607B887B
:1004500003F01F037B6101227B6902FA03F37B61D6
:10046000BB68012B07D17B689B899BB21A467B69CD
:1004700013407B6111E0BB68022B07D17B681B8AAC
:100480009BB21A467B6913407B6106E07B689B8ABE
:100490009BB21A467B6913407B617B881B0A9BB227
:1004A000FB600122FB6802FA03F3FB607B681B8898
:1004B0009BB21A46FB681340FB607B69002B05D09A
:1004C000FB68002B02D00123FB7401E00023FB74C6
:1004D000FB7C18461C37BD4680BC704780B485B095
:1004E00000AF78600B467B800023FB810023BB813B
:1004F0007B881B0AFB81FB89012202FA03F3BB8183
:10050000BB89DB439AB27B681A8000BF1437BD46B3
:1005100080BC704780B584B000AF3B46184600F001
:10052000B3F97B68044AA2FB03231B0D034A136043
:1005300000BF1037BD4680BD83DE1B43742D0120F4
:1005400080B483B000AF78600A4B1B687A6802FB06
:1005500003F34FF47A7202FB03F30A3B7B6000BFA4
:100560007B685A1E7A60002BFAD100BF0C37BD465B
:1005700080BC7047742D012080B586B000AF01218A
:100580004FF4003000F048FA0121012000F026FA73
:100590000C233B6102233B750023BB750123FB75D4
:1005A00002237B7507F110031946164800F052FA32
:1005B00007220221134800F0DBFA07220321114829
:1005C00000F0D6FA4FF4E1333B600023BB800023F8
:1005D000FB8000233B810023BB810C237B813B46B6
:1005E00019460948FFF7D0FD012240F2255106487F
:1005F000FFF7B6FE01210448FFF780FE00BF183761
:10060000BD4680BD000002400044004080B582B07D
:1006100000AF0346FB7100BF80210848FFF7E8FEEA
:100620000346002BF8D0FB799BB219460348FFF72D
:1006300085FE00BF0837BD4680BD00BF00440040B6
:1006400080B584B000AF78600023FB6009E0FB68F0
:100650007A6813441B781846FFF7D8FFFB6801330C
:10066000FB60FB687A6813441B78002BEFD100BF56
:100670001037BD4680BD00BF80B582B000AF40F2EC
:1006800025512748FFF7D0FE0346002B44D040F207
:1006900025512348FFF722FF214B9B889BB2FB701B
:1006A000FB78402B05D9FB785A2B02D8FB782033F6
:1006B000FB70FB780D2B1DD800237B600BE0194AE3
:1006C0007B6813441B789BB219461548FFF736FE2A
:1006D0007B6801337B60144B1B687A689A42EEDBBF
:1006E000114B00221A60FB789BB219460C48FFF7A9
:1006F00025FE09E00C4B1B680A49FA78CA540A4BDC
:100700001B680133084A136000BF40210448FFF70B
:100710006FFE0346002BF8D000BF0837BD4680BDF2
:1007200000440040140000201000002080B582B07A
:1007300000AFFF23FB7120210748FFF759FE034656
:10074000012B03D1044B9B889BB2FB71FB791846AC
:100750000837BD4680BD00BF0044004080B582B070
:1007600000AF78603960FFF7E1FF03461A467B6807
:100770001A707B681B78FF2B17D07B681B780A2BBD
:1007800013D03B68002B04D07B681B781846FFF71A
:100790003DFF7B681B780D2B03D17B6800221A700C
:1007A00005E07B6801337B60DDE700BFDBE70837EE
:1007B000BD4680BD80B582B000AF104B7B60104B52
:1007C0003B6007E03B681A1D3A607A68111D79604A
:1007D00012681A603B680B4A9342F3D30A480B49EC
:1007E0004FF000028842B8BF40F8042BFADB00F05B
:1007F00013F800BF0837BD4680BD00BF800F00085A
:10080000000000201000002010000020782D0120A2
:1008100080B400AFFEE700BF80B5A0B000AF00F02D
:10082000EFF9FFF7A9FEFFF775FE07F118030121A5
:100830001846FFF793FF6420FFF782FE00BF4021B8
:100840001048FFF7D5FD0346002BF8D00023FB67C7
:100850000CE007F11802FB6F134419783A1DFB6F87
:1008600013440A461A70FB6F0133FB6707F1180245
:10087000FB6F13441B782E2BEBD13B1D1846FFF763
:10088000DFFED2E70044004080B489B000AF78605A
:100890000023BB6100237B610023FB6102233B61DA
:1008A0000023FB600223BB60484B9B6803F00C03F2
:1008B000BB61BB69042B07D0082B09D0002B3FD1AB
:1008C0007B68434A1A603FE07B68424A1A603BE01B
:1008D0003E4B5B6803F480039B0DFB603B4B5B6806
:1008E00003F03F03BB60FB68002B0DD0394ABB68A7
:1008F000B2FBF3F2354B596847F6C0730B409B09C6
:1009000003FB02F3FB610CE0314ABB68B2FBF3F27C
:100910002E4B596847F6C0730B409B0903FB02F34B
:10092000FB612A4B5B6803F440331B0C01335B0013
:100930003B61FA693B69B2FBF3F27B681A6003E042
:100940007B68234A1A6000BF204B9B6803F0F003CA
:10095000BB61BB691B09BB611F4ABB6913441B78A0
:10096000DBB27B617B681A687B69DA407B685A601E
:10097000164B9B6803F4E053BB61BB699B0ABB61E8
:10098000154ABB6913441B78DBB27B617B685A68EC
:100990007B69DA407B689A600C4B9B6803F4604388
:1009A000BB61BB695B0BBB610B4ABB6913441B7822
:1009B000DBB27B617B685A687B69DA407B68DA600E
:1009C00000BF2437BD4680BC704700BF00380240DE
:1009D0000024F40000127A000000002080B483B0EC
:1009E00000AF78600B46FB70FB78002B06D00949FE
:1009F000084B1A6B7B6813430B6306E00549054BF4
:100A00001A6B7B68DB4313400B6300BF0C37BD469A
:100A100080BC70470038024080B483B000AF78607B
:100A20000B46FB70FB78002B06D00949084B1A6C6B
:100A30007B6813430B6406E00549054B1A6C7B6821
:100A4000DB4313400B6400BF0C37BD4680BC7047CE
:100A50000038024080B487B000AF7860396000236E
:100A60007B6100233B610023FB6000237B6176E018
:100A700001227B6902FA03F33B613B681A683B6918
:100A80001340FB60FA683B699A4265D17B681A683B
:100A90007B695B00032101FA03F3DB431A407B68A7
:100AA0001A607B681A683B681B7919467B695B0092
:100AB00001FA03F31A437B681A603B681B79012B28
:100AC00003D03B681B79022B2ED17B689A687B6927
:100AD0005B00032101FA03F3DB431A407B689A6051
:100AE0007B689A683B685B7919467B695B0001FA11
:100AF00003F31A437B689A607B685A687B699BB2F0
:100B0000194601238B40DB431A407B685A607B689F
:100B10005B683A68927911467A6992B201FA02F2F8
:100B200092B21A437B685A607B68DA687B699BB231
:100B30005B00032101FA03F3DB431A407B68DA60B0
:100B40007B68DA683B68DB7919467B695B0001FAF0
:100B500003F31A437B68DA607B6901337B617B694D
:100B60000F2B85D900BF1C37BD4680BC704700BF26
:100B700080B485B000AF78600B467B8013467B70F5
:100B80000023FB600023BB607A787B8803F00703B7
:100B90009B0002FA03F3FB607B88DB089BB21846DC
:100BA0007B88DB089BB21A467B68083253F8222008
:100BB0007B8803F007039B000F2101FA03F3DB435B
:100BC00002EA03017B6800F1080243F822107B88E7
:100BD000DB089BB21A467B68083253F82220FB6878
:100BE0001343BB607B88DB089BB21A467B680832E4
:100BF000B96843F8221000BF1437BD4680BC704767
:100C000080B500AF124A124B1B6843F0010313601A
:100C10000F4B00229A600E4A0D4B1B6823F0847321
:100C200023F4803313600A4B0A4A5A60084A084B7F
:100C30001B6823F480231360054B0022DA6000F068
:100C40000DF8054B4FF000629A6000BF80BD00BFF9
:100C5000003802401030002400ED00E080B483B082
:100C600000AF00237B6000233B60354A344B1B6898
:100C700043F480331360324B1B6803F400333B6052
:100C80007B6801337B603B68002B03D17B68B3F545
:100C9000A06FF0D12A4B1B6803F40033002B02D065
:100CA00001233B6001E000233B603B68012B42D104
:100CB000234A234B1B6C43F080531364214A214B7E
:100CC0001B6843F4804313601D4A1D4B9B6893606F
:100CD0001B4A1B4B9B6843F400439360184A184B14
:100CE0009B6843F4A0539360154B174A5A60144A0B
:100CF000134B1B6843F08073136000BF104B1B68DD
:100D000003F00073002BF9D0104B40F205621A601B
:100D10000B4A0B4B9B6823F003039360084A084B74
:100D20009B6843F00203936000BF054B9B6803F090
:100D30000C03082BF9D100BF0C37BD4680BC7047AF
:100D4000003802400070004008544007003C024058
:100D500080B487B000AF786039600023FB75002352
:100D6000FB600023BB607B68214A934202D8214B81
:100D70003B6101E0204B3B613B6823F0F02323F013
:100D8000C313002B0AD03B68DB0A03F01E03FB6091
:100D90007B681A68FB681340BB6004E07B685B6992
:100DA00003F08003BB603B6803F00053002B03D0CB
:100DB0003B695B68FB6002E03B691B68FB60FB68AA
:100DC00023F0F02323F08213FB60FA683B681340A2
:100DD000002B05D0BB68002B02D00123FB7501E07E
:100DE0000023FB75FB7D18461C37BD4680BC704751
:100DF0000F640240006002400064024080B485B08D
:100E000000AF786039607B68104A934202D8104B7B
:100E1000FB6001E00F4BFB603B6803F00053002BCD
:100E200007D03B6823F0F02323F08213FA68D360E5
:100E300006E03B6823F0F02323F08213FA68936006
:100E400000BF1437BD4680BC704700BF0F6402402E
:100E5000006002400064024080B500AF08214FF0FE
:100E6000804000F07DF8264B1B8801339AB2244B5A
:100E70001A80234B1B88B3F5037F05D9204B002232
:100E80001A80204A1E4B5A601D4B1B88012B04D828
:100E90001D4B4FF480525A8303E01B4B4FF480529A
:100EA0001A83174B1B88232B27D9154B1B8840F21D
:100EB0000222934221D8154A114B9B681360134AB2
:100EC0000F4B5B68D360124A114B1B889BB243F0F7
:100ED00001039BB213800D4A0C4B1B6843F00103C6
:100EE0001360074B1B8803F00103002B05D0044B54
:100EF0005B6803F24113024A536000BF80BD00BF2C
:100F00007800002084000020000402408864024031
:100F10000000014080B500AF0D490E48FFF718FFF3
:100F20000346002B12D00A490A48FFF767FF0A4A16
:100F3000094B1B889BB223F001039BB21380054B26
:100F400000221A60054B4FF47F425A8300BF80BDD8
:100F50000088002088640240000001400010024028
:100F600080B483B000AF78600B467B807B88DB4326
:100F70009AB27B681A8200BF0C37BD4680BC7047AE
:100F8000000000000102030401020304060708092F
:0400000508000000EF
:00000001FF
