:020000040800F2
:100000001C3B0120E90A0008450B0008450B0008CD
:10001000450B0008450B0008450B000800000000D8
:10002000000000000000000000000000450B000878
:10003000450B000800000000450B0008450B0008B8
:10004000450B0008450B0008450B0008450B000850
:10005000450B0008450B0008450B0008450B000840
:10006000450B0008450B0008450B0008450B000830
:10007000450B0008450B0008450B0008450B000820
:10008000450B0008450B0008450B0008450B000810
:10009000450B0008450B0008450B0008450B000800
:1000A000450B0008450B0008450B0008450B0008F0
:1000B000911B0008450B0008450B0008450B000884
:1000C000450B0008450B0008450B0008450B0008D0
:1000D000450B0008450B000815060008450B0008F5
:1000E000450B0008450B0008450B0008450B0008B0
:1000F000450B0008450B0008450B0008450B0008A0
:10010000450B0008450B0008450B0008450B00088F
:10011000450B0008450B0008450B0008450B00087F
:10012000450B0008450B0008450B0008450B00086F
:10013000450B0008450B0008450B0008450B00085F
:10014000450B0008450B0008450B0008450B00084F
:100150004D1C0008450B0008450B0008450B000826
:10016000450B0008450B0008450B0008450B00082F
:10017000450B0008450B0008450B0008450B00081F
:10018000450B0008450B000880B58AB000AF7860C9
:10019000396000237B6200233B620023FB61002364
:1001A000BB617B681B8A9BB27B627B6A23F44053F2
:1001B0007B623B68DB881A467B6A13437B627B6AFF
:1001C0009AB27B681A827B689B899BB27B627B6A4E
:1001D00023F4B05323F00C037B623B689A883B689E
:1001E0001B8913439AB23B685B8913439BB21A463F
:1001F0007B6A13437B627B6A9AB27B689A817B68D5
:100200009B8A9BB27B627B6A23F440737B623B6870
:100210009B891A467B6A13437B627B6A9AB27B682E
:100220009A8207F10803184600F078FE7B68304A8E
:10023000934203D07B682F4A934202D17B693B6291
:1002400001E03B693B627B689B899BB21BB2002B40
:100250000CDA3A6A13469B0013449A001A443B682E
:100260001B685B00B2FBF3F3FB610BE03A6A1346D9
:100270009B0013449A001A443B681B689B00B2FB26
:10028000F3F3FB61FB691C4AA2FB03235B091B011F
:100290007B627B6A1B09642202FB03F3FA69D31AAF
:1002A000BB617B689B899BB21BB2002B0CDABB69DC
:1002B000DB003233104AA2FB03235B0903F0070380
:1002C0007A6A13437B620BE0BB691B0132330A4A33
:1002D000A2FB03235B0903F00F037A6A13437B62DB
:1002E0007B6A9AB27B681A8100BF2837BD4680BD01
:1002F00000100140001401401F85EB5180B483B011
:1003000000AF78600B46FB70FB78002B08D07B6851
:100310009B899BB243F400539AB27B689A8107E0B1
:100320007B689B899BB223F400539AB27B689A81C5
:1003300000BF0C37BD4680BC704700BF80B483B09F
:1003400000AF78600B467B807B88C3F308039AB2CA
:100350007B689A8000BF0C37BD4680BC704700BFE9
:1003600080B487B000AF78600B467B8013467B700B
:1003700000233B610023FB600023BB6000237B6103
:100380007B687B617B88DBB25B09DBB23B617B888E
:1003900003F01F03FB600122FB6802FA03F3BB605A
:1003A0003B69012B03D17B690C337B6109E03B691D
:1003B000022B03D17B6910337B6102E07B6914332C
:1003C0007B617B78002B06D07B697A691168BA68FB
:1003D0000A431A6006E07B697A691168BA68D243F9
:1003E0000A401A6000BF1C37BD4680BC704700BF82
:1003F00080B485B000AF78600B467B800023FB7330
:100400007B681B889AB27B8813409BB2002B02D07A
:100410000123FB7301E00023FB73FB7B18461437B9
:10042000BD4680BC704700BF80B487B000AF786025
:100430000B467B800023FB6000237B610023BB60B5
:100440000023FB747B88DBB25B09DBB2BB607B887B
:1004500003F01F037B6101227B6902FA03F37B61D6
:10046000BB68012B07D17B689B899BB21A467B69CD
:1004700013407B6111E0BB68022B07D17B681B8AAC
:100480009BB21A467B6913407B6106E07B689B8ABE
:100490009BB21A467B6913407B617B881B0A9BB227
:1004A000FB600122FB6802FA03F3FB607B681B8898
:1004B0009BB21A46FB681340FB607B69002B05D09A
:1004C000FB68002B02D00123FB7401E00023FB74C6
:1004D000FB7C18461C37BD4680BC704780B485B095
:1004E00000AF78600B467B800023FB810023BB813B
:1004F0007B881B0AFB81FB89012202FA03F3BB8183
:10050000BB89DB439AB27B681A8000BF1437BD46B3
:1005100080BC704780B586B000AF01214FF4003039
:1005200000F0C4FD0121012000F0A2FD0C233B617D
:1005300002233B750023BB750123FB7502237B75EA
:1005400007F110031946164800F0ECFD07220221BE
:10055000134800F075FE07220321114800F070FED9
:100560004FF4E1333B600023BB800023FB8000237A
:100570003B810023BB810C237B813B461946094804
:10058000FFF702FE012240F225510648FFF7E8FE80
:1005900001210448FFF7B2FE00BF1837BD4680BDF9
:1005A000000002400044004080B582B000AF034626
:1005B000FB7100BF80210848FFF71AFF0346002B9C
:1005C000F8D0FB799BB219460348FFF7B7FE00BF8E
:1005D0000837BD4680BD00BF0044004080B584B0F0
:1005E00000AF78600023FB6009E0FB687A68134481
:1005F0001B781846FFF7D8FFFB680133FB60FB68E8
:100600007A6813441B78002BEFD100BF1037BD462A
:1006100080BD00BF80B582B000AF40F225512748B1
:10062000FFF702FF0346002B44D040F22551234838
:10063000FFF754FF214B9B889BB2FB70FB78402B4C
:1006400005D9FB785A2B02D8FB782033FB70FB7856
:100650000D2B1DD800237B600BE0194A7B681344E7
:100660001B789BB219461548FFF768FE7B6801337B
:100670007B60144B1B687A689A42EEDB114B0022B8
:100680001A60FB789BB219460C48FFF757FE09E049
:100690000C4B1B680A49FA78CA540A4B1B68013391
:1006A000084A136000BF40210448FFF7A1FE03463B
:1006B000002BF8D000BF0837BD4680BD0044004085
:1006C000B8320120B805002080B582B000AF786054
:1006D0000A21786800F004F800BF0837BD4680BDE5
:1006E00080B588B000AF78600B46FB700F23FB61CC
:1006F0007B68002B29D107F10802FB6913443022E3
:100700001A70FB69013BFB6139E0FA787B68B3FB47
:10071000F2F102FB01F29B1ABB61FB787A68B2FB33
:10072000F3F37B60194ABB6913441B7859B207F194
:100730000802FB6913440A461A70FB69013BFB611E
:10074000FB69002B01D100237B607B68002BDCD18F
:1007500015E0FB690133FB6100BF80210C48FFF706
:1007600047FE0346002BF8D007F10802FB6913444B
:1007700093F900309BB219460548FFF7DFFDFB698E
:100780000E2BE6DD00BF2037BD4680BD00000020F7
:100790000044004080B582B000AFFF23FB712021F0
:1007A0000748FFF725FE0346012B03D1044B9B8826
:1007B0009BB2FB71FB7918460837BD4680BD00BF70
:1007C0000044004080B582B000AF78603960FFF728
:1007D000E1FF03461A467B681A707B681B78FF2B83
:1007E00017D07B681B780A2B13D03B68002B04D0F2
:1007F0007B681B781846FFF7D7FE7B681B780D2BAC
:1008000003D17B6800221A7005E07B6801337B60AE
:10081000DDE700BFDBE70837BD4680BDB0B58AB075
:1008200000AF0446084611461A462346FB8003469D
:10083000BB800B467B8013463B807A88FB88D31AAB
:10084000002BB8BF5B42184601F068FD0346FB6011
:100850003A88BB88D31A002BB8BF5B42184601F018
:100860005DFD0346BB60B968F86801F05FFE0346B2
:100870007B62F968B86801F059FE03463B62F9688B
:10088000B86801F05BFF0346002B08D0B86801F0A0
:100890005FFF03463B614FF07E533B6207E0F86821
:1008A00001F056FF03463B614FF07E537B627A882E
:1008B000FB889A4203D27B6A83F000437B623A88CA
:1008C000BB889A4203D23B6A83F000433B62002319
:1008D000BB616CE03B8F5B42FB6161E03B8F5B4245
:1008E0007B6156E0FB88184601F018FD04467869E4
:1008F00001F014FD0346796A184601F063FD0346D2
:100900001946204601F056FC03461C46B86901F022
:1009100005FD0346796A184601F054FD0346194661
:10092000204601F047FC0346184601F037FF034616
:100930009CB2BB88184601F0F1FC0546F86901F04D
:10094000EDFC0346396A184601F03CFD03461946A2
:10095000284601F02FFC03461D46B86901F0DEFC75
:100960000346396A184601F02DFD0346194628460C
:1009700001F020FC0346184601F010FF03469BB22D
:1009800097F83C201946204600F0AEFF7B69013302
:100990007B613A8F7B699A42A4DCFB690133FB617E
:1009A0003A8FFB699A4299DCBB690133BB61BA6932
:1009B0003B699A428EDB00BF2837BD46B0BD00BF01
:1009C00090B587B000AF0446084611461A46234644
:1009D000FB800346BB800B467B8013463B803B88F5
:1009E0005B427B6177E07B885B423B616CE03B690B
:1009F0003A6902FB03F33A8802FB03F33A8802FBED
:100A000003F27B69796901FB03F3798801FB03F346
:100A1000798801FB03F31344FB603B887A8802FB6F
:100A200003F37A88023A398801FB02F17A8852008E
:100A30008A1A02FB03F3BB603B883A8802FB03F38C
:100A40007A8802FB03F37A8802FB03F2FB689A427E
:100A500017DBFA68BB689A4213DB97F82830002B43
:100A60000FD03B699AB2FB88134498B27B699AB263
:100A7000BB8813449BB297F82C20194600F034FF32
:100A80001FE03B883A8802FB03F37A8802FB03F3FA
:100A90007A8802FB03F2FB689A4212DB97F828304F
:100AA000002B0ED13B699AB2FB88134498B27B6944
:100AB0009AB2BB8813449BB297F82C20194600F0D9
:100AC00013FF3B6901333B617A883B699A428EDAB6
:100AD0007B6901337B613A887B699A4283DA00BF84
:100AE0001C37BD4690BD00BF80B582B000AF104B33
:100AF0007B60104B3B6007E03B681A1D3A607A68E8
:100B0000111D796012681A603B680B4A9342F3D357
:100B10000A480B494FF000028842B8BF40F8042B46
:100B2000FADB00F013F800BF0837BD4680BD00BFF8
:100B30005D2F000800000020B8050020B805002047
:100B40002033012080B400AFFEE700BFB0B5BAB0DB
:100B500002AF00F0BDFB00F065FE1F2000F0A2FE1A
:100B6000FFF7D8FC3B1D00211846FFF72BFE0023A2
:100B7000C7F8DC300023C7F8DC301BE03A1DD7F89B
:100B8000DC3013441B782C2B0FD1D7F8DC20391D17
:100B900007F19803184602F03FF807F19802D7F8DA
:100BA000DC30134400221A7008E0D7F8DC3001333F
:100BB000C7F8DC30D7F8DC30632BDFDD07F19803B2
:100BC000D349184601F060FE0346002B40F0CC806C
:100BD0000023C7F8D0300023C7F8D830BEE03A1D54
:100BE000D7F8D83013441B782C2B4BD1D7F8D03002
:100BF0000133C7F8D030D7F8D030023B042B35D8BA
:100C000001A252F823F000BF1D0C00082D0C0008B3
:100C10003D0C00084D0C00085D0C000807F18C032A
:100C2000184601F0DBFD0346A7F8CE3007F18C0330
:100C3000184601F0D3FD0346A7F8CC3007F18C032A
:100C4000184601F0CBFD0346A7F8CA3007F18C0324
:100C5000184601F0C3FD0346A7F8C83007F18C031E
:100C6000184601F0BBFD034687F8C73000BF0023DC
:100C7000C7F8D43007F18C030A220021184601F08E
:100C8000B1FD66E03A1DD7F8D83013441B78002B2D
:100C90004ED1D7F8D030062B4AD107F18C0207F19C
:100CA00080031146184601F059FFB7F8CE301846B8
:100CB000FFF70AFD9748FFF791FCB7F8CC301846CC
:100CC000FFF702FD9348FFF789FCB7F8CA301846D2
:100CD000FFF7FAFC8F48FFF781FCB7F8C8301846D9
:100CE000FFF7F2FC8B48FFF779FC97F8C7301846FE
:100CF000FFF7EAFC8748FFF771FC07F1800318460D
:100D0000FFF76CFC8348FFF769FC97F8C7309BB28C
:100D1000B7F8C850B7F8CA40B7F8CC10B7F8CE004B
:100D2000E322019200932B462246FFF777FDEEE087
:100D30003A1DD7F8D8301344197807F18C02D7F848
:100D4000D43013440A461A70D7F8D4300133C7F8A8
:100D5000D430D7F8D8300133C7F8D830D7F8D830E6
:100D6000632B7FF73CAFFDE607F198036A4918460D
:100D700001F08AFD0346002B7FF4F4AE0023C7F890
:100D8000B8300023C7F8C030BCE03A1DD7F8C030F7
:100D900013441B782C2B4BD1D7F8B8300133C7F84C
:100DA000B830D7F8B830023B042B35D801A252F83E
:100DB00023F000BFC90D0008D90D0008E90D000897
:100DC000F90D0008090E000807F17403184601F038
:100DD00005FD0346A7F8B63007F17403184601F085
:100DE000FDFC0346A7F8B43007F17403184601F080
:100DF000F5FC0346A7F8B23007F17403184601F07A
:100E0000EDFC0346A7F8B03007F17403184601F073
:100E1000E5FC034687F8AF3000BF0023C7F8BC30BD
:100E200007F174030A220021184601F0DBFC64E09C
:100E30003A1DD7F8C03013441B78002B4CD1D7F89B
:100E4000B830062B48D107F1740207F16803114648
:100E5000184601F083FEB7F8B6301846FFF734FCA9
:100E60002C48FFF7BBFBB7F8B4301846FFF72CFC53
:100E70002848FFF7B3FBB7F8B2301846FFF724FC59
:100E80002448FFF7ABFBB7F8B0301846FFF71CFC5F
:100E90002048FFF7A3FB97F8AF301846FFF714FC84
:100EA0001C48FFF79BFB07F168031846FFF796FB0A
:100EB0001848FFF793FBB7F8B040B7F8B220B7F87F
:100EC000B410B7F8B6001C23019397F8AF30009325
:100ED0002346FFF775FD1AE03A1DD7F8C0301344DA
:100EE000197807F17402D7F8BC3013440A461A7017
:100EF000D7F8BC300133C7F8BC30D7F8C030013365
:100F0000C7F8C030D7F8C030632B7FF73EAF29E673
:100F1000342E00083C2E0008402E000880B489B012
:100F200000AF78600023BB6100237B610023FB617D
:100F300002233B610023FB600223BB60484B9B689C
:100F400003F00C03BB61BB69042B07D0082B09D04D
:100F5000002B3FD17B68434A1A603FE07B68424ADE
:100F60001A603BE03E4B5B6803F480039B0DFB6023
:100F70003B4B5B6803F03F03BB60FB68002B0DD06D
:100F8000394ABB68B2FBF3F2354B596847F6C07378
:100F90000B409B0903FB02F3FB610CE0314ABB6889
:100FA000B2FBF3F22E4B596847F6C0730B409B0916
:100FB00003FB02F3FB612A4B5B6803F440331B0C19
:100FC00001335B003B61FA693B69B2FBF3F27B687A
:100FD0001A6003E07B68234A1A6000BF204B9B68BD
:100FE00003F0F003BB61BB691B09BB611F4ABB690E
:100FF00013441B78DBB27B617B681A687B69DA403B
:101000007B685A60164B9B6803F4E053BB61BB6975
:101010009B0ABB61154ABB6913441B78DBB27B6139
:101020007B685A687B69DA407B689A600C4B9B68E6
:1010300003F46043BB61BB695B0BBB610B4ABB69DB
:1010400013441B78DBB27B617B685A687B69DA40AA
:101050007B68DA6000BF2437BD4680BC704700BFA4
:10106000003802400024F40000127A001000002032
:1010700080B483B000AF78600B46FB70FB78002B28
:1010800006D00949084B1A6B7B6813430B6306E0D3
:101090000549054B1A6B7B68DB4313400B6300BFAC
:1010A0000C37BD4680BC70470038024080B483B026
:1010B00000AF78600B46FB70FB78002B06D0094927
:1010C000084B1A6C7B6813430B6406E00549054B1B
:1010D0001A6C7B68DB4313400B6400BF0C37BD46C2
:1010E00080BC70470038024080B483B000AF7860A5
:1010F0000B46FB70FB78002B06D00949084B5A6C55
:101100007B6813434B6406E00549054B5A6C7B68CA
:10111000DB4313404B6400BF0C37BD4680BC7047B7
:101120000038024080B487B000AF78603960002397
:101130007B6100233B610023FB6000237B6176E041
:1011400001227B6902FA03F33B613B681A683B6941
:101150001340FB60FA683B699A4265D17B681A6864
:101160007B695B00032101FA03F3DB431A407B68D0
:101170001A607B681A683B681B7919467B695B00BB
:1011800001FA03F31A437B681A603B681B79012B51
:1011900003D03B681B79022B2ED17B689A687B6950
:1011A0005B00032101FA03F3DB431A407B689A607A
:1011B0007B689A683B685B7919467B695B0001FA3A
:1011C00003F31A437B689A607B685A687B699BB219
:1011D000194601238B40DB431A407B685A607B68C9
:1011E0005B683A68927911467A6992B201FA02F222
:1011F00092B21A437B685A607B68DA687B699BB25B
:101200005B00032101FA03F3DB431A407B68DA60D9
:101210007B68DA683B68DB7919467B695B0001FA19
:1012200003F31A437B68DA607B6901337B617B6976
:101230000F2B85D900BF1C37BD4680BC704700BF4F
:1012400080B485B000AF78600B467B8013467B701E
:101250000023FB600023BB607A787B8803F00703E0
:101260009B0002FA03F3FB607B88DB089BB2184605
:101270007B88DB089BB21A467B68083253F8222031
:101280007B8803F007039B000F2101FA03F3DB4384
:1012900002EA03017B6800F1080243F822107B8810
:1012A000DB089BB21A467B68083253F82220FB68A1
:1012B0001343BB607B88DB089BB21A467B6808320D
:1012C000B96843F8221000BF1437BD4680BC704790
:1012D00080B500AF124A124B1B6843F00103136044
:1012E0000F4B00229A600E4A0D4B1B6823F084734B
:1012F00023F4803313600A4B0A4A5A60084A084BA9
:101300001B6823F480231360054B0022DA6000F091
:101310000DF8054B4FF000629A6000BF80BD00BF22
:10132000003802401030002400ED00E080B483B0AB
:1013300000AF00237B6000233B60354A344B1B68C1
:1013400043F480331360324B1B6803F400333B607B
:101350007B6801337B603B68002B03D17B68B3F56E
:10136000A06FF0D12A4B1B6803F40033002B02D08E
:1013700001233B6001E000233B603B68012B42D12D
:10138000234A234B1B6C43F080531364214A214BA7
:101390001B6843F4804313601D4A1D4B9B68936098
:1013A0001B4A1B4B9B6843F400439360184A184B3D
:1013B0009B6843F4A0539360154B174A5A60144A34
:1013C000134B1B6843F08073136000BF104B1B6806
:1013D00003F00073002BF9D0104B40F205621A6045
:1013E0000B4A0B4B9B6823F003039360084A084B9E
:1013F0009B6843F00203936000BF054B9B6803F0BA
:101400000C03082BF9D100BF0C37BD4680BC7047D8
:10141000003802400070004008544007003C024081
:1014200080B483B000AF78607B681B6823F0010252
:101430007B681A607B6800221A607B6800225A6011
:101440007B6800229A607B680022DA607B68002259
:101450001A617B6821225A617B68454A934203D115
:10146000444B3D229A607EE07B68434A934204D11C
:10147000404B4FF474629A6075E07B683F4A934238
:1014800004D13C4B4FF474129A606CE07B683C4A88
:10149000934204D1374B4FF074629A6063E07B68EB
:1014A000384A934203D1334B374ADA605BE07B68BA
:1014B000364A934203D12F4B354ADA6053E07B68BA
:1014C000344A934203D12B4B334ADA604BE07B68BA
:1014D000324A934204D1274B4FF03D52DA6042E04A
:1014E0007B682F4A934203D12E4B3D229A603AE00B
:1014F0007B682D4A934204D12A4B4FF474629A6060
:1015000031E07B68294A934204D1264B4FF4741290
:101510009A6028E07B68264A934204D1214B4FF021
:1015200074629A601FE07B68224A934203D11D4B8C
:10153000154ADA6017E07B681F4A934203D1194BC2
:10154000134ADA600FE07B681C4A934203D1154BC3
:10155000114ADA6007E07B68194A934203D1114BC4
:101560004FF03D52DA6000BF0C37BD4680BC70477B
:10157000106002400060024028600240406002406B
:1015800058600240706002403D00002088600240C8
:10159000400F0020A060024000003D20B8600240E3
:1015A000106402400064024028640240406402402B
:1015B000586402407064024088640240A0640240A3
:1015C000B864024080B485B000AF78603960002311
:1015D000FB607B681B68FB60FA68244B1340FB6070
:1015E0003B681A683B68DB681A433B685B691A43CF
:1015F0003B689B691A433B68DB691A433B681B6A7B
:101600001A433B685B6A1A433B689B6A1A433B6810
:101610005B6B1A433B689B6B1343FA681343FB6095
:101620007B68FA681A607B685B69FB60FB6823F083
:101630000703FB603B68DA6A3B681B6B1343FA687D
:101640001343FB607B68FA685A613B681A697B68E0
:101650005A603B685A687B689A603B689A687B6806
:10166000DA6000BF1437BD4680BC70473F801CF075
:1016700080B483B000AF78600B46FB70FB78002B22
:1016800006D07B681B6843F001027B681A6005E0A6
:101690007B681B6823F001027B681A6000BF0C376F
:1016A000BD4680BC704700BF80B485B000AFF86015
:1016B000B9601346FB71BB6803F08003002B0FD0A9
:1016C000FB79002B06D0FB685B6943F08002FB6866
:1016D0005A6105E0FB685B6923F08002FB685A6190
:1016E000BB68802B14D0FB79002B08D0FB681A68EC
:1016F000BB6803F01E031A43FB681A6008E0FB682E
:101700001A68BB6803F01E03DB431A40FB681A60CB
:1017100000BF1437BD4680BC704700BF80B487B09F
:1017200000AF786039600023FB750023FB60002365
:10173000BB607B68214A934202D8214B3B6101E0A8
:10174000204B3B613B6823F0F02323F0C313002BB5
:101750000AD03B68DB0A03F01E03FB607B681A6853
:10176000FB681340BB6004E07B685B6903F08003A7
:10177000BB603B6803F00053002B03D03B695B6800
:10178000FB6002E03B691B68FB60FB6823F0F02311
:1017900023F08213FB60FA683B681340002B05D0EE
:1017A000BB68002B02D00123FB7501E00023FB7511
:1017B000FB7D18461C37BD4680BC70470F64024055
:1017C000006002400064024080B485B000AF7860E1
:1017D00039607B68104A934202D8104BFB6001E0ED
:1017E0000F4BFB603B6803F00053002B07D03B68B6
:1017F00023F0F02323F08213FA68D36006E03B68FD
:1018000023F0F02323F08213FA68936000BF1437AB
:10181000BD4680BC704700BF0F64024000600240BC
:101820000064024080B582B000AF1B4B00221A80DA
:10183000194B00225A60184B00229A600023BB808B
:1018400017E00023FB800DE0BA8813469B00134489
:101850009B011A44FB881344104A0021D154FB8891
:101860000133FB80FB88B3F5A07FEDD9BB88013342
:10187000BB80BB88EF2BE4D900F05CF800F0AEF839
:1018800000F03EF900F010F9054B1B68024A936026
:1018900000BF0837BD4680BDBC050020C80500203C
:1018A0008864024080B584B000AF0346FB7100231A
:1018B000BB8112E00023FB8108E0FA79B989FB893A
:1018C000184600F011F8FB890133FB81FB89B3F561
:1018D000A07FF2D3BB890133BB81BB89EF2BE9D950
:1018E00000BF1037BD4680BD80B483B000AF034653
:1018F000FB800B46BB801346FB70FB88B3F5A07FD3
:1019000001D30023FB80BB88EF2B01D90023BB80D0
:10191000BA8813469B0013449B011A44FB88134466
:101920000349FA78CA5400BF0C37BD4680BC7047E3
:10193000C805002080B582B000AF01211020FFF75C
:1019400097FB4FF47F433B6001233B710023BB7146
:101950000123FB7103237B713B4619461D48FFF7AA
:10196000E1FB1C4B4FF47F425A8301210220FFF719
:101970007FFB4FF400633B6002233B7103237B71C9
:101980000023BB710123FB713B4619461248FFF748
:10199000C9FB01220B211048FFF752FC0121022054
:1019A000FFF766FB4FF480533B6001233B7100233C
:1019B000BB710123FB7103237B713B46194606482B
:1019C000FFF7B0FB044B4FF480521A8300BF083777
:1019D000BD4680BD001002400004024080B588B0C2
:1019E00000AF01210120FFF77FFB0B23BB61002328
:1019F000BB820023BB830023FB8207F1140319463B
:101A0000284800F0A9F901210120FFF74FFB40F61B
:101A10006B23BB610023BB820023BB830023FB82BB
:101A200007F1140319464FF0804000F095F9602348
:101A30003B8001237B804FF4D273BB600223BB81C8
:101A40003B4619464FF0804000F030FA08214FF035
:101A5000804000F017FB60233B8001237B804FF424
:101A6000A073BB600223BB813B4619464FF0804008
:101A700000F0A2FA08214FF0804000F01FFB012186
:101A8000084800F0D3F901214FF0804000F0CEF972
:101A900001214FF0804000F0E9F900BF2037BD463A
:101AA00080BD00BF0000014080B582B000AF0122C0
:101AB00010211248FFF7F8FD44233B7100237B718E
:101AC0000023BB710123FB713B1D184600F0E4F8B5
:101AD000012208214FF0804000F00EFB1C233B71D7
:101AE00000237B710023BB710123FB713B1D184652
:101AF00000F0D2F800BF0837BD4680BD88640240C0
:101B000080B590B000AF01214FF48000FFF7B0FA2C
:101B100000211B48FFF7ACFD1948FFF781FC4FF08F
:101B200040637B60174BBB60174BFB6040233B61FE
:101B300040F241137B610023BB614FF48063FB6182
:101B400000233B6200237B620023BB624FF44033DF
:101B5000FB6200233B6301237B630023BB63002301
:101B6000FB633B1D19460648FFF72CFD01224FF48D
:101B70008071064800F0F4FA00BF4037BD4680BDD2
:101B80008864024015100240C80500200000014092
:101B900080B500AF08214FF0804000F0D1FA264B0D
:101BA0001B8801339AB2244B1A80234B1B88B3F550
:101BB000037F05D9204B00221A80204A1E4B5A6011
:101BC0001D4B1B88012B04D81D4B4FF480525A83A8
:101BD00003E01B4B4FF480521A83174B1B88232BB7
:101BE00027D9154B1B8840F20222934221D8154A6F
:101BF000114B9B681360134A0F4B5B68D360124A0A
:101C0000114B1B889BB243F001039BB213800D4A1A
:101C10000C4B1B6843F001031360074B1B8803F058
:101C20000103002B05D0044B5B6803F24113024A09
:101C3000536000BF80BD00BFBC050020C805002068
:101C400000040240886402400000014080B500AFFB
:101C50000D490E48FFF762FD0346002B12D00A49DA
:101C60000A48FFF7B1FD0A4A094B1B889BB223F0D3
:101C700001039BB21380054B00221A60054B4FF401
:101C80007F425A8300BF80BD0088002088640240E4
:101C9000000001400010024080B485B000AF7860C1
:101CA0000023FB730023BB730F237B737B68DB78FC
:101CB000002B38D0264BDB68DB4303F4E0631B0AC0
:101CC000FB73FB7BC3F10403BB737A7BFB7B42FAA0
:101CD00003F37B737B685B781A46BB7B02FA03F3E2
:101CE000FB737B689A787B7B1340DAB2FB7B1343F0
:101CF000FB73FB7B1B01FB73164A7B681B78134449
:101D0000FA7B83F80023134A7B681B785B09DBB2FC
:101D100018467B681B7803F01F03012101FA03F3C7
:101D200042F820300FE00B497B681B785B09DBB27F
:101D300018467B681B7803F01F0301229A4000F1CC
:101D4000200341F8232000BF1437BD4680BC7047F4
:101D500000ED00E000E100E080B485B000AF786005
:101D600039600023FB817B681B88FB817B68284AE4
:101D7000934213D07B68274A93420FD07B68B3F11C
:101D8000804F0BD07B68244A934207D07B68234A5C
:101D9000934203D07B68224A934208D1FB8923F007
:101DA0007003FB813B685A88FB891343FB817B6886
:101DB0001C4A93420CD07B681B4A934208D0FB8993
:101DC00023F44073FB813B681A89FB891343FB8131
:101DD0007B68FA891A803B685A687B68DA623B68DC
:101DE0001A887B681A857B68094A934203D07B680E
:101DF000084A934204D13B689B7A9AB27B681A8660
:101E00007B6801229A8200BF1437BD4680BC7047B0
:101E100000000140000401400004004000080040B0
:101E2000000C0040001000400014004080B483B05B
:101E300000AF78600B46FB70FB78002B08D07B6806
:101E40001B889BB243F080039AB27B681A8007E03C
:101E50007B681B889BB223F080039AB27B681A8050
:101E600000BF0C37BD4680BC704700BF80B483B054
:101E700000AF78600B46FB70FB78002B08D07B68C6
:101E80001B889BB243F001039AB27B681A8007E07B
:101E90007B681B889BB223F001039AB27B681A808F
:101EA00000BF0C37BD4680BC704700BF80B485B012
:101EB00000AF7860396000237B810023FB81002321
:101EC000BB817B681B8C9BB223F480739AB27B68C6
:101ED0001A847B681B8CFB817B689B88BB817B6839
:101EE0009B8B7B817B8923F070037B817B8923F033
:101EF00003037B813B681A887B8913437B81FB89C1
:101F000023F40073FB813B689B891B029AB2FB8917
:101F10001343FB813B685B881B029AB2FB89134326
:101F2000FB817B68224A934203D07B68214A93421B
:101F30002BD1FB8923F40063FB813B68DB891B0207
:101F40009AB2FB891343FB81FB8923F48063FB81F5
:101F50003B689B881B029AB2FB891343FB81BB89B8
:101F600023F48053BB81BB8923F40053BB813B68BE
:101F70001B8A1B019AB2BB891343BB813B685B8AF6
:101F80001B019AB2BB891343BB817B68BA899A80D3
:101F90007B687A899A833B689A687B68DA637B6896
:101FA000FA891A8400BF1437BD4680BC704700BF51
:101FB000000001400004014080B485B000AF7860AB
:101FC00039600023BB8100237B810023FB817B6878
:101FD0001B8C9BB223F480539AB27B681A847B6873
:101FE0001B8C7B817B689B88FB817B689B8BBB8187
:101FF000BB8923F4E043BB81BB8923F44073BB81DD
:102000003B681B881B029AB2BB891343BB817B8947
:1020100023F400537B813B689B891B039AB27B8925
:1020200013437B813B685B881B039AB27B89134314
:102030007B817B68114A934203D07B68104A9342AC
:102040000AD1FB8923F48043FB813B681B8A9B01F7
:102050009AB2FB891343FB817B68FA899A807B687B
:10206000BA899A833B689A687B681A647B687A8924
:102070001A8400BF1437BD4680BC70470000014081
:102080000004014080B485B000AF78600B467B80CF
:102090000023FB817B689B8BFB81FB8923F008037A
:1020A000FB81FA897B881343FB817B68FA899A83D9
:1020B00000BF1437BD4680BC704700BF80B485B0F8
:1020C00000AF78600B467B800023FB817B689B8B95
:1020D000FB81FB8923F40063FB817B881B029AB29E
:1020E000FB891343FB817B68FA899A8300BF14370D
:1020F000BD4680BC704700BF80B483B000AF78603D
:102100000B467B8013467B707B78002B08D07B6866
:102110009B899AB27B8813439AB27B689A8109E0C3
:102120007B689B899AB27B88DB439BB213409AB24F
:102130007B689A8100BF0C37BD4680BC704700BFEA
:1021400080B483B000AF78600B467B807B88DB4334
:102150009AB27B681A8200BF0C37BD4680BC7047BC
:1021600080B483B000AF78600B467B8013467B70F1
:102170007B78002B08D07B689B899AB27B881343BD
:102180009AB27B689A8109E07B689B899AB27B88C6
:10219000DB439BB213409AB27B689A8100BF0C3735
:1021A000BD4680BC704700BF80F0004002E000BF29
:1021B00081F0004142001FBF5FEA410392EA030F32
:1021C0007FEA226C7FEA236C6AD04FEA1262D2EB7C
:1021D0001363C1BFD218414048404140B8BF5B4281
:1021E000192B88BF704710F0004F40F4000020F01A
:1021F0007F4018BF404211F0004F41F4000121F030
:102200007F4118BF494292EA030F3FD0A2F1010279
:1022100041FA03FC10EB0C00C3F1200301FA03F1B7
:1022200000F0004302D5494260EB4000B0F5000FDA
:1022300013D3B0F1807F06D340084FEA310102F199
:102240000102FE2A51D2B1F1004F40EBC25008BF4B
:1022500020F0010040EA03007047490040EB000015
:1022600010F4000FA2F10102EDD1B0FA80FCACF144
:10227000080CB2EB0C0200FA0CF0AABF00EBC25043
:1022800052421843BCBFD0401843704792F0000F31
:1022900081F4000106BF80F400000132013BB5E784
:1022A0004FEA41037FEA226C18BF7FEA236C21D0FA
:1022B00092EA030F04D092F0000F08BF084670475F
:1022C00090EA010F1CBF0020704712F07F4F04D12D
:1022D000400028BF40F00040704712F100723CBF40
:1022E00000F50000704700F0004343F0FE4040F46A
:1022F000000070477FEA226216BF08467FEA236328
:102300000146420206BF5FEA412390EA010F40F412
:10231000800070474FF0000304E000BF10F000435E
:1023200048BF40425FEA000C08BF704743F0964345
:1023300001464FF000001CE050EA010208BF704760
:102340004FF000030AE000BF50EA010208BF7047E7
:1023500011F0004302D5404261EB41015FEA010CFC
:1023600002BF84460146002043F0B64308BFA3F1F4
:102370008053A3F50003BCFA8CF2083AA3EBC253D6
:1023800010DB01FA02FC634400FA02FCC2F12002F5
:10239000BCF1004F20FA02F243EB020008BF20F02C
:1023A0000100704702F1200201FA02FCC2F1200292
:1023B00050EA4C0021FA02F243EB020008BF20EA87
:1023C000DC7070474FF0FF0C1CEAD0521EBF1CEAB5
:1023D000D15392EA0C0F93EA0C0F6FD01A4480EAA3
:1023E000010C400218BF5FEA41211ED04FF000638C
:1023F00043EA501043EA5111A0FB01310CF00040B8
:10240000B1F5000F3EBF490041EAD3715B0040EADD
:10241000010062F17F02FD2A1DD8B3F1004F40EBAD
:10242000C25008BF20F00100704790F0000F0CF080
:10243000004C08BF49024CEA502040EA51207F3A44
:10244000C2BFD2F1FF0340EAC250704740F400001F
:102450004FF00003013A5DDC12F1190FDCBF00F010
:1024600000407047C2F10002410021FA02F1C2F1BE
:10247000200200FA02FC5FEA310040F1000053EA5A
:102480004C0308BF20EADC70704792F0000F00F0A8
:10249000004C02BF400010F4000F013AF9D040EAAE
:1024A0000C0093F0000F01F0004C02BF490011F442
:1024B000000F013BF9D041EA0C018FE70CEAD15340
:1024C00092EA0C0F18BF93EA0C0F0AD030F0004CC0
:1024D00018BF31F0004CD8D180EA010000F0004074
:1024E000704790F0000F17BF90F0004F084691F032
:1024F000000F91F0004F14D092EA0C0F01D142026C
:102500000FD193EA0C0F03D14B0218BF084608D134
:1025100080EA010000F0004040F0FE4040F400007E
:10252000704740F0FE4040F4400070474FF0FF0C11
:102530001CEAD0521EBF1CEAD15392EA0C0F93EA58
:102540000C0F69D0A2EB030280EA010C49024FEAAA
:10255000402037D04FF0805343EA111143EA101363
:102560000CF000408B4238BF5B0042F17D024FF41B
:10257000000C8B4224BF5B1A40EA0C00B3EB510FF6
:1025800024BFA3EB510340EA5C00B3EB910F24BFDF
:10259000A3EB910340EA9C00B3EBD10F24BFA3EB64
:1025A000D10340EADC001B0118BF5FEA1C1CE0D12C
:1025B000FD2A3FF650AF8B4240EBC25008BF20F0DF
:1025C000010070470CF0004C4CEA50207F32C2BF33
:1025D000D2F1FF0340EAC250704740F400004FF0D0
:1025E0000003013A37E792F0000F00F0004C02BF01
:1025F000400010F4000F013AF9D040EA0C0093F0CB
:10260000000F01F0004C02BF490011F4000F013B24
:10261000F9D041EA0C0195E70CEAD15392EA0C0F8C
:1026200008D142027FF47DAF93EA0C0F7FF470AFC4
:10263000084676E793EA0C0F04D14B023FF44CAF07
:1026400008466EE730F0004C18BF31F0004CCAD19C
:1026500030F000427FF45CAF31F000437FF43CAFD8
:102660005FE700BF4FF0FF3C06E000BF4FF0010CFA
:1026700002E000BF4FF0010C4DF804CD4FEA4002DC
:102680004FEA41037FEA226C18BF7FEA236C11D026
:1026900001B052EA530C18BF90EA010F58BFB2EBD9
:1026A000030088BFC81738BF6FEAE17018BF40F059
:1026B000010070477FEA226C02D15FEA402C05D10D
:1026C0007FEA236CE4D15FEA412CE1D05DF8040B92
:1026D000704700BF844608466146FFE70FB5FFF725
:1026E000C9FF002848BF10F1000F0FBD4DF808EDDD
:1026F000FFF7F4FF0CBF012000205DF808FB00BFCE
:102700004DF808EDFFF7EAFF34BF012000205DF827
:1027100008FB00BF4DF808EDFFF7E0FF94BF012074
:1027200000205DF808FB00BF4DF808EDFFF7D2FF71
:1027300094BF012000205DF808FB00BF4DF808EDB4
:10274000FFF7C8FF34BF012000205DF808FB00BF81
:102750004FEA4002B2F1FE4F0FD34FF09E03B3EBAE
:1027600012620DD94FEA002343F0004310F0004FEE
:1027700023FA02F018BF404270474FF00000704744
:1027800012F1610F01D1420205D110F0004008BFE3
:102790006FF0004070474FF00000704742000ED2CB
:1027A000B2F1FE4F0BD34FF09E03B3EB126209D48C
:1027B0004FEA002343F0004323FA02F070474FF042
:1027C0000000704712F1610F01D1420202D14FF0B7
:1027D000FF3070474FF00000704700BF0A22002111
:1027E00000F0EABA70B4840746D0541E002A41D0E3
:1027F000CDB2034602E0621EE4B3144603F8015B67
:102800009A07F8D1032C2ED9CDB245EA05250F2C15
:1028100045EA054519D903F110022646103E0F2E50
:1028200042F8105C42F80C5C42F8085C42F8045C28
:1028300002F11002F2D8A4F1100222F00F0204F00B
:102840000F041032032C13440DD91E462246043ABD
:10285000032A46F8045BFAD8221F22F0030204324E
:10286000134404F003042CB1C9B21C4403F8011B47
:10287000A342FBD170BC704714460346C2E700BFB9
:10288000A2EB0300704700BF02780B78012A28BF33
:102890009A42F5D16DE9044540EA0104CDE90267A9
:1028A0006FF0000C4FEA447212B380EA010414F096
:1028B000070F6AD100F0070420F0070004F00305B9
:1028C00021F007014FEAC505F0E8042314F0040FD6
:1028D000F1E804670CFA05F462EA040266EA040609
:1028E0000AD063EA0403624667EA0407664603E027
:1028F000F0E80423F1E8046782FA4CF582EA060462
:10290000A4FA8CF46CBB83FA4CF583EA0705A5FAAC
:102910008CF595B950E9022351E9026782FA4CF52A
:1029200082EA0604A4FA8CF483FA4CF583EA0705DC
:10293000A5FA8CF52543DBD09CB92DBAB5FA85F400
:1029400024F0070427FA04F1DDE9026723FA04F30F
:1029500003F0FF0001F0FF01FDE80445A0EB0100DA
:10296000704724BAB4FA84F424F0070426FA04F178
:10297000DDE9026722FA04F202F0FF0001F0FF0134
:10298000FDE80445A0EB0100704714F0030F3CD1B3
:1029900010F0030428D150F8082B51F8083B82FAB4
:1029A0004CF582EA0305A5FA8CF55DB950F8042CC4
:1029B00051F8043C82FA4CF582EA0305A5FA8CF53D
:1029C000002DE8D02DBAB5FA85F424F0070423FAD7
:1029D00004F122FA04F202F0FF0001F0FF01FDE829
:1029E0000445A0EB010070474FEAC40420F0030047
:1029F00050F8082B21F0030151F8083B0CFA04F4BD
:102A000062EA040263EA0403C9E710F003041AD07F
:102A1000A1EB040120F00300E40750F8042B06D0DA
:102A20000FD28B785FFAA2F4E41A06D12BB1CB78DF
:102A30005FFAB2F4E41A00D11BB920465DF8104BDE
:102A4000704701F1040150F8042BCC0721F0030179
:102A500051F8043B48D824D222F07F4482FA4CF546
:102A600094EA1325A5FA8CF50AD165B951F8043B0F
:102A700084EA0204B4EB036F0ED150F8042BEBE7A9
:102A80004FEA132355E035F07F454DD10878FDE836
:102A90000445C0F1000070474FEA126203F0FF03E3
:102AA00047E002EA1C4482FA4CF594EA1345A5FA81
:102AB0008CF50AD165B951F8043B84EA0204B4EB01
:102AC000034F0CD150F8042BEBE74FEA134330E0EF
:102AD00015EA1C4528D10B884FEA124229E04FEA3B
:102AE000124203EA1C4324E002F0FF0482FA4CF590
:102AF00094EA1365A5FA8CF50AD165B951F8043B3F
:102B000084EA0204B4EB032F09D150F8042BEBE75D
:102B10004FEA13630DE015F0FF0F05D10B684FEA84
:102B2000122223F07F4304E04FF00000FDE804454B
:102B3000704712BA1BBA82FA4CF482EA0304A4FA70
:102B40008CF5B5FA85F402FA04F203FA04F34FEABD
:102B50001260FDE80445A0EB1360704780EA0102B3
:102B6000844612F0030F4FD111F0030F32D14DF80C
:102B7000044D11F0040F51F8043B0BD0A3F10132C6
:102B80009A4312F0803F04BF4CF8043B51F8043BD9
:102B900016D100BF51F8044BA3F101329A4312F051
:102BA000803FA4F101320BD14CF8043BA24312F058
:102BB000803F04BF51F8043B4CF8044BEAD0234655
:102BC0000CF8013B13F0FF0F4FEA3323F8D15DF807
:102BD000044B704711F0010F06D011F8012B0CF8CF
:102BE000012B002A08BF704711F0020FBFD031F847
:102BF000022B12F0FF0F16BF2CF8022B8CF80020CE
:102C000012F47F4FB3D1704711F8012B0CF8012B50
:102C1000002AF9D1704700BF40EA01039B0770B456
:102C20002BD1032A29D90C460346214654F8046BBC
:102C3000A6F1013525EA060515F0803F06D1043AD4
:102C4000032A43F8046B2146EFD8A2B10C781C701C
:102C5000013A013301313CB16AB111F8014B03F87B
:102C6000014B013A002CF7D12AB11A44002103F894
:102C7000011B9A42FBD170BC70470346E5E700BFD9
:102C80002DE9F84FDDF828900F46804616461D4680
:102C90008B4600E0A3465C46484614F801AB00F0C2
:102CA000A1F85044417801F0080101F0FF0C00291F
:102CB000F0D152462D2A61D02B2A04BF9BF8012067
:102CC0000BF10204002D43D0102D65D0A946BCF1B4
:102CD000000F0CBF6FF0004A4FF0004A0021BAFB12
:102CE000F9FE084609FB1EAA05E029D009FB0030C1
:102CF000012114F8012BA2F13003092B05D9A2F10F
:102D00004103192B0AD8A2F137039D420EDD4A1C5C
:102D1000EFD08645E9D24FF0FF31EAE7A2F1610337
:102D2000192B03D8A2F157039D42F0DC4B1C15D0A0
:102D3000BCF1000F10D14EB1E1B93760BDE8F88F9A
:102D40009A45D3DA70464FF0FF31D2E7BDE8F88FED
:102D5000302A1AD00A25B9E74042ECE7BCF1000F4F
:102D60004FF022030CBF6FF000404FF00040C8F856
:102D70000030F6B1671E3760BDE8F88F0BF1020432
:102D80009BF801204FF0010C9CE7237803F0DF0350
:102D9000582B08D0082599E7302A97D1237803F0DB
:102DA000DF03582B92D14FF0100962784D46023460
:102DB0008DE7BDE8F88F00BF30B5084C084B25689B
:102DC0006C6B83B0002C08BF1C46009413460A4667
:102DD00001462846FFF754FF03B030BD48040020E9
:102DE0004C040020D0F8EC00704700BF82B049B11D
:102DF0005AB16BB113780B601278101C18BF012008
:102E000002B0704701A9002AF3D1104602B0704702
:102E10006FF00100F4E700BF21B1FF2A04D80A7067
:102E200001207047084670478A2303604FF0FF3047
:102E3000704700BF6C696A6E000000000D0A000058
:102E4000656C6C697073000043000000504F53497B
:102E500058000000000000002E000000002020208C
:102E6000202020202020282828282820202020203A
:102E7000202020202020202020202020208810100A
:102E80001010101010101010101010101004040466
:102E90000404040404040410101010101010414124
:102EA0004141414101010101010101010101010112
:102EB0000101010101010101101010101010424226
:102EC00042424242020202020202020202020202E2
:102ED0000202020202020202101010102000000082
:102EE00000000000000000000000000000000000E2
:102EF00000000000000000000000000000000000D2
:102F000000000000000000000000000000000000C1
:102F100000000000000000000000000000000000B1
:102F200000000000000000000000000000000000A1
:102F30000000000000000000000000000000000091
:102F40000000000000000000000000000000000081
:0D2F50000000000000000000000000000074
:102F5D0030313233343536373839414243444546C2
:102F6D000000000001020304010203040607080922
:102F7D00000000000C03002074030020DC0300207F
:102F8D000000000000000000000000000000000034
:102F9D000000000000000000000000000000000024
:102FAD000000000000000000000000000000000014
:102FBD000000000000000000000000000000000004
:102FCD0000000000000000000000000000000000F4
:102FDD0000000000000000000000000000000000E4
:102FED0000000000000000000000000000000000D4
:102FFD0000000000000000000000000000000000C4
:10300D0000000000000000000000000000000000B3
:10301D0000000000000000000100000000000000A2
:10302D000E33CDAB34126DE6ECDE05000B00000067
:10303D000000000000000000000000000000000083
:10304D000000000000000000000000000000000073
:10305D000000000000000000000000000000000063
:10306D000000000000000000000000000000000053
:10339D00000000000000000020000020430000009D
:1033AD000000000000000000000000000000000010
:1033BD0000000000000000000000000043000000BD
:1033CD0000000000000000000000000000000000F0
:1033DD00000000000000000000000000430000009D
:1033ED0000000000000000000000000000000000D0
:1033FD00000000000000000000000000430000007D
:10340D0000000000000000000000000000000000AF
:10341D00000000000000000000000000430000005C
:10342D00000000000000000000000000000000008F
:10343D00000000000000000000000000430000003C
:10344D00000000000000000000000000000000006F
:10345D00000000000000000000000000430000001C
:10346D00000000000000000000000000000000004F
:10347D00000000000000000000000000192E0008F0
:10348D00ED2D0008000000005C2E0008582E0008ED
:10349D00542E0008542E0008542E0008542E0008F7
:1034AD00542E0008542E0008542E0008542E0008E7
:1034BD00542E0008FFFFFFFFFFFFFFFFFFFFFFFF81
:1034CD00FFFF000001004153434949000000000087
:1034DD0000000000000000000000000000000000DF
:1034ED000000000000004153434949000000000066
:1034FD0000000000000000000000000000000000BF
:08350D000000000000000000B6
:0400000508000000EF
:00000001FF
